:04000000D8EF36F00F
:0269F80012008B
:1069FB000506303132333435369EA607EF35F009B4
:106A0B00EF35F002EF35F09E961200010E3FEC369B
:106A1B00F0000E026E030E016E1AEC36F01200C57A
:106A2B009AC588C5B81CEF35F01EEF35F017EF355A
:106A3B00F01200C58AC588C5B826EF35F028EF35AA
:106A4B00F021EF35F01200C584C5B42FEF35F031CE
:106A5B00EF35F02AEF35F0C7501200938093825038
:106A6B000EC76E280EC66E000EC56E130EC86E9D39
:106A7B00869E961200016E01C0C9FF02EC35F0C56F
:106A8B00AC4AEF35F04CEF35F04FEF35F0010E50CF
:106A9B00EF35F0020E1200026EC582C5B258EF350B
:106AAB00F05AEF35F053EF35F09E96C7B660EF35E1
:106ABB00F062EF35F064EF35F067EF35F0025040E0
:106ACB00EC35F01200026EC580C5B06FEF35F0717A
:106ADB00EF35F06AEF35F09E96C7B677EF35F07964
:106AEB00EF35F07BEF35F07EEF35F0025040EC35B3
:106AFB00F01200000E936E000E026E0F0E016E1A56
:106B0B00EC36F0020E3FEC36F0280E3FEC36F0017F
:106B1B000E3FEC36F00C0E3FEC36F0060E3FEC362B
:106B2B00F01200016EC586C7A09EEF35F0A0EF35C1
:106B3B00F099EF35F0C9CF02F00150D8A4A8EF358A
:106B4B00F0AAEF35F0AEEF35F015EC35F0B0EF35D0
:106B5B00F01FEC35F002EC35F002501200000E0A7B
:106B6B006E000E096ECAEF35F08C80010E026EF4CA
:106B7B000E016E1AEC36F08C90010E026EF40E01C3
:106B8B006E1AEC36F0094A0A2A0750095C08500ABB
:106B9B0058D8A0D3EF35F0D5EF35F0BAEF35F0126A
:106BAB0000000E106E000E0F6EE7EF35F00EC001F9
:106BBB00F0026A0CC003F00DC004F032EC39F00F98
:106BCB004A102A0F500A24D96E10500B20DA6EDFB0
:106BDB00500E6E0E50D8A4F5EF35F0F7EF35F0DC14
:106BEB00EF35F01200046ED00E68EC35F004504017
:106BFB00EC35F0D10E51EC35F0000E97EC35F0037F
:106C0B006E03500001706F716B000E97EC35F00343
:106C1B006E035000016E6F6F6B010E97EC35F00336
:106C2B006E03505A6E5B6A1200000E046E000E0368
:106C3B006E33EF36F0000E066E000E056E054A063B
:106C4B002A065009E1A50E055CD8A02FEF36F031CE
:106C5B00EF36F024EF36F0034A042A0150035C02AE
:106C6B00500458D8A03CEF36F03EEF36F020EF360C
:106C7B00F01200086E08C007F0F00E07168A500FCE
:106C8B000B07108A6E8A948A8600F08A96000E0291
:106C9B006E010E016E1AEC36F008C007F0073AF0E1
:106CAB000E07168A500F0B07108A6E8A8600F08A21
:106CBB0096000E026E030E016E1AEC36F0120008EF
:106CCB006E08C007F0F00E07168A500F0B07108ADC
:106CDB006E8A848A8600F08A96000E026E010E017F
:106CEB006E1AEC36F008C007F0073AF00E07168A5A
:106CFB00500F0B07108A6E8A8600F08A96000E02E0
:106D0B006E030E016E1AEC36F01200460E486E0042
:106D1B000E496E42C04AF043C04BF0000E4E6E005F
:106D2B000E4D6E000E556E000E546E4A0E3A6E00EE
:106D3B000E3B6E44C03CF045C03DF0480E3E6E002D
:106D4B000E3F6EB1EC36F04D504224D96E4E50438F
:106D5B0020DA6EDF6A12003CC040F03DC041F0C546
:106D6B00EF36F03AC02CF03BC02DF0400E2E6E00EB
:106D7B000E2F6E3EC030F03FC031F0C0EC3AF04009
:106D8B00C0F6FF41C0F7FF0800F5500009D8A4D1A9
:106D9B00EF36F0D3EF36F0B7EF36F0000E3B6E0068
:106DAB000E3A6E1200FD0EF66E690EF76E000EF8BF
:106DBB006E00EEDBF010EE07F00900F5CFEEFFE50D
:106DCB0050E150FAE1FB0EF66E690EF76E000EF80D
:106DDB006E0900F5CF5DF00900F5CF5EF000EE60B7
:106DEB00F07B0EEE6AE806FDE15C6A5B6A5A6A00AC
:106DFB000EF86E0001CFEF38F0046ED00E68EC3554
:106E0B00F0045040EC35F0D10E51EC35F0000E97FC
:106E1B00EC35F0036E035000016C6F6D6B000E9739
:106E2B00EC35F0036E035000016A6F6B6B000E972D
:106E3B00EC35F0036E03500001686F696B010E9720
:106E4B00EC35F0036E03500001666F676B29EC3570
:106E5B00F0120045EF37F009C0F6FF0AC0F7FFF854
:106E6B006A070EF76403D00800F55005D0F6CFE1A2
:106E7B00FFF7CFE2FFE75065EC36F0094A0A2A0923
:106E8B00C0F6FF0AC0F7FFF86A070EF76403D008D5
:106E9B0000F55005D0F6CFE1FFF7CFE2FFE750004A
:106EAB0009D8A45BEF37F05DEF37F031EF37F01215
:106EBB000016BE63EF37F065EF37F06BEF37F01569
:106ECB00C01AF016C01BF06FEF37F0000E1B6E00F0
:106EDB000E1A6E000E196E000E186E81EF37F00051
:106EEB000E026E200E016E11C003F012C004F032C0
:106EFB00EC39F0184A192A1A50185C1950800A17E5
:106F0B006E1B50800A1758D8A08EEF37F090EF37D2
:106F1B00F075EF37F013C00AF014C00BF011C00C72
:106F2B00F012C00DF0D6EC35F0120014C001F015C4
:106F3B00C002F05CEC3BF014C001F015C002F06C29
:106F4B00EC38F014C010F015C011F026EC3AF0201C
:106F5B00EE02F01450D9261550DA22DE2A000EDD8F
:106F6B002220EE06F01450D9261550DA22DE2A0024
:106F7B000EDD2220EE06F01450D9261550DA220130
:106F8B000EDB5009E1320EDE5CD8A0CFEF37F0D12B
:106F9B00EF37F0DAEF37F020EE06F01450D9261564
:106FAB0050DA22DE6ADD6A8C7212000E6E0E04D885
:106FBB00A4E2EF37F0E4EF37F0EBEF37F00B500FC5
:106FCB000B80090F6E0F503FEC36F0020E0E18D8E7
:106FDB00A4F2EF37F0F4EF37F0FBEF37F00B500F75
:106FEB000BC0090F6E0F503FEC36F0030E0E18D886
:106FFB00A402EF38F004EF38F00BEF38F00B500F22
:10700B000B94090F6E0F503FEC36F0040E0E18D890
:10701B00A412EF38F014EF38F01BEF38F00B500FD1
:10702B000BD4090F6E0F503FEC36F00CC009F00D6E
:10703B00C00AF02FEC37F0120001C0D9FF02C0DA02
:10704B00FF010EDF6E20EE01F00150D9260250DA5F
:10705B0022010EDF6E20EE02F00150D9260250DA2B
:10706B0022DE6ADD6A20EE04F00150D9260250DAE6
:10707B0022DE6ADD6A20EE06F00150D9260250DAD4
:10708B0022DE6ADD6A20EE08F00150D9260250DAC2
:10709B0022DE6ADD6A20EE0AF00150D9260250DAB0
:1070AB0022010EDF6E20EE0BF00150D9260250DAD2
:1070BB0022010EDF6E20EE0CF00150D9260250DAC1
:1070CB0022010EDF6E8C968C948C9212009DEF3801
:1070DB00F08C96CEEF38F08C9620EE02F00150D962
:1070EB00260250DA22010EDB5009E1640EDE5CD879
:1070FB00A082EF38F084EF38F0CEEF38F020EE02BC
:10710B00F00150D9260250DA22DE6ADD6A20EE0445
:10711B00F00150D9260250DA22DE2A000EDD22CEF3
:10712B00EF38F08C86CEEF38F08C84CEEF38F00150
:10713B00C0D9FF02C0DAFFDF50036E046A045000AF
:10714B000AD8B4ABEF38F0CEEF38F00350000AD8C2
:10715B00B4CEEF38F0010AD8B46EEF38F0030AD88A
:10716B00B46EEF38F0010AD8B471EF38F0070AD8D3
:10717B00B46EEF38F0010AD8B4CEEF38F0030AD86A
:10718B00B497EF38F0010AD8B49AEF38F0CEEF3855
:10719B00F01200720ED36E7FEC35F033EC35F0004D
:1071AB000E956E000E946E000E826E920E016E00A6
:1071BB000E026E22EC38F0000E086E020E076EB453
:1071CB00EC35F0000E576E010E566E3EEC3DF00B9B
:1071DB000E026EB80E016E1AEC36F0000E576E02F0
:1071EB000E566E3EEC3DF00B0E026EB80E016E1A93
:1071FB00EC36F0000E576E030E566E3EEC3DF00B68
:10720B000E026EB80E016E1AEC36F0000E576E04BD
:10721B000E566E3EEC3DF0000E086E010E076EB47E
:10722B00EC35F00B0E026EB80E016E1AEC36F00058
:10723B000EF8EC35F029EC35F0920E146E000E15AD
:10724B006E9BEC37F0000E026E0A0E016E1AEC36D6
:10725B00F01DEF39F000EF00F003500410D8B439F3
:10726B00EF39F03BEF39F044EF39F003500410D80D
:10727B00A442EF39F044EF39F049EF39F00150FCFB
:10728B00EC34F096EF39F020EE0AF00350D92604D7
:10729B0050DA22DE50DE10D8B456EF39F058EF3901
:1072AB00F073EF39F020EE0AF00350D9260450DAD0
:1072BB002210EE03F00350E1260450E222DE50E6EA
:1072CB005CE650800A096EDE50800A0958D8B0710E
:1072DB00EF39F073EF39F096EF39F020EE03F0034E
:1072EB0050D9260450DA22DECF05F0DDCF06F003AD
:1072FB00C0D9FF04C0DAFFDECF07F0DDCF08F00501
:10730B00500724D96E06500820DA6E01C0DFFF202B
:10731B00EE03F00350D9260450DA22DE2A000EDDEC
:10732B00221200000163BF9FEF39F09DEF39F0A5EA
:10733B00EF39F0000E286E010E276EA9EF39F062BF
:10734B00C027F063C028F060C023F061C024F000B8
:10735B000E2A6E1F0E296E000E916FF1EF39F02978
:10736B0006D8A02A061E500F0B2B6E090E2B64C1DC
:10737B00EF39F0C3EF39F0CBEF39F0570E2B242553
:10738B006E266A000E2622D1EF39F0300E2B242503
:10739B006E266A000E262225C02BF0720E2924D9E8
:1073AB006E000E2A20DA6E2BC0DFFF2706D8A0282E
:1073BB00062306D8A024061EC020F01FC021F0040F
:1073CB000E226ED89021322032222EE7EF39F02098
:1073DB00C01EF021C01FF02ABEFDEF39F02A500964
:1073EB00E1020E295CD8A0FDEF39F0FFEF39F01563
:1073FB00EF3AF01E501F10D8A406EF3AF008EF3A00
:10740B00F0B5EF39F028BE15EF3AF0285006E1271A
:10741B0004D8B013EF3AF015EF3AF0B5EF39F01C92
:10742B00C011F01DC012F0720E2924136E000E2A2B
:10743B0020146E23C015F024C016F05EEC37F0124A
:10744B00000001644B652B655109E10A0E645DD8A0
:10745B00A032EF3AF034EF3AF0BFEF3AF0000E659E
:10746B006F000E646F92EF3AF0010E0B6EEF0E0C85
:10747B006E7E0E0D6E020EDBEC37F0BFEF3AF001B5
:10748B000E0B6E6B0E0C6E7E0E0D6E020EDBEC3762
:10749B00F0BFEF3AF0010E0B6E970E0C6E7E0E0DD9
:1074AB006E020EDBEC37F0BFEF3AF0010E0B6EC342
:1074BB000E0C6E7E0E0D6E020EDBEC37F0BFEF3A4C
:1074CB00F0010E0B6E810E0C6E7E0E0D6E020EDB3E
:1074DB00EC37F0BFEF3AF0010E0B6EAD0E0C6E7E7B
:1074EB000E0D6E020EDBEC37F0BFEF3AF0010E0B18
:1074FB006E550E0C6E7E0E0D6E020EDBEC37F0BF72
:10750B00EF3AF0010E0B6ED90E0C6E7E0E0D6E0265
:10751B000EDBEC37F0BFEF3AF010C0D9FF11C0DA39
:10752B00FFDF50126E136A1350000AD8B4A0EF3A63
:10753B00F087EF3AF01250010AD8B43AEF3AF00361
:10754B000AD8B445EF3AF0010AD8B450EF3AF00735
:10755B000AD8B45BEF3AF0010AD8B466EF3AF003FD
:10756B000AD8B471EF3AF0010AD8B47CEF3AF0873D
:10757B00EF3AF012002EC0D9FF2FC0DAFFDECFF6A4
:10758B00FFDDCFF7FF0800F550250AD8A4D0EF3A5E
:10759B00F0D2EF3AF047EF3BF02EC0D9FF2FC0DA15
:1075AB00FFDE2A000EDD22000E0001616F000E606F
:1075BB006F60C05CF0626963692EC0D9FF2FC0DABF
:1075CB00FFDECF38F0DDCF39F038C0F6FF39C0F72A
:1075DB00FF0800F550780AD8A4F6EF3AF0F8EF3A26
:1075EB00F03EEF3BF030C0D9FF31C0DAFFDFCF32D6
:1075FB00F0020EDE26DFCF33F0000EDD2232C0D9D3
:10760B00FF33C0DAFFDECF34F0DDCF35F0010E38BB
:10761B0024326E000E3920336E2EC0D9FF2FC0DA04
:10762B00FF32C0DEFF33C0DDFF28EF3BF02CC01C68
:10763B00F02DC01DF034C01EF035C01FF097EC3993
:10764B00F05BEF3BF038C0F6FF39C0F7FF0800F5F1
:10765B0050326E336A3350000AD8B437EF3BF03EEA
:10766B00EF3BF03250780AD8B41CEF3BF03EEF3BC7
:10767B00F02EC0D9FF2FC0DAFFDE2A000EDD225B11
:10768B00EF3BF02EC0D9FF2FC0DAFFDECFF6FFDDC8
:10769B00CFF7FF0800F550016E026A2CC003F02DE6
:1076AB00C004F032EC39F03EEF3BF01200000E82DA
:1076BB00B4010E0A6E000E066E20EE0CF00150D9CE
:1076CB00260250DA22DE04D8A46EEF3BF070EF3BBB
:1076DB00F07AEF3BF00A50D8A476EF3BF078EF3B13
:1076EB00F07AEF3BF0010E066E20EE0CF00150D954
:1076FB00260250DA220AC0DFFF000E076E20EE0AC8
:10770B00F00150D9260250DA22DE04D8A490EF3BC8
:10771B00F092EF3BF09BEF3BF082B097EF3BF09991
:10772B00EF3BF09BEF3BF0010E076E07C005F0201F
:10773B00EE0AF00150D9260250DA2282B0A8EF3BB4
:10774B00F0ABEF3BF0010EACEF3BF0000EDF6E0049
:10775B000E086E20EE0BF00150D9260250DA22DE15
:10776B0004D8A4BBEF3BF0BDEF3BF0C6EF3BF08280
:10777B00B2C2EF3BF0C4EF3BF0C6EF3BF0010E089B
:10778B006E08C009F020EE0BF00150D9260250DA3A
:10779B002282B2D3EF3BF0D6EF3BF0010ED7EF3B9B
:1077AB00F0000EDF6EE9EF3CF020EE02F00150D955
:1077BB00260250DA222D0EDE5C010EDE58D8A0E92F
:1077CB00EF3BF0EBEF3BF016EF3DF020EE01F0015D
:1077DB0050D9260250DA22020EDF6E16EF3DF00A68
:1077EB0050D8A4FBEF3BF0FDEF3BF007EF3CF02054
:1077FB00EE01F00150D9260250DA22060EDF6E168A
:10780B00EF3DF00550D8B40DEF3CF00FEF3CF01608
:10781B00EF3DF020EE01F00150D9260250DA2203A1
:10782B000EDF6E20EE04F00150D9260250DA22DE74
:10783B006ADD6A16EF3DF00A50D8A427EF3CF02919
:10784B00EF3CF033EF3CF020EE01F00150D9260273
:10785B0050DA22050EDF6E16EF3DF020EE04F0013C
:10786B0050D9260250DA22010EDB5009E11E0EDE42
:10787B005CD8A043EF3CF045EF3CF04FEF3CF020E1
:10788B00EE01F00150D9260250DA22040EDF6E16FB
:10789B00EF3DF00950D8B455EF3CF057EF3CF016E4
:1078AB00EF3DF020EE01F00150D9260250DA22050F
:1078BB000EDF6E16EF3DF00A50D8A467EF3CF0696F
:1078CB00EF3CF073EF3CF020EE01F00150D92602B3
:1078DB0050DA22050EDF6E16EF3DF00950D8B47961
:1078EB00EF3CF07BEF3CF016EF3DF020EE01F001AA
:1078FB0050D9260250DA22050EDF6E16EF3DF0202E
:10790B00EE02F00150D9260250DA22010EDB5009AB
:10791B00E1330EDE5CD8A095EF3CF097EF3CF01610
:10792B00EF3DF00A50D8A49DEF3CF09FEF3CF0A93F
:10793B00EF3CF020EE01F00150D9260250DA22067E
:10794B000EDF6E16EF3DF020EE01F00150D926024E
:10795B0050DA22020EDF6E16EF3DF00A04D8A4B9FE
:10796B00EF3CF0BBEF3CF016EF3DF020EE01F001E9
:10797B0050D9260250DA22020EDF6E16EF3DF020B0
:10798B00EE02F00150D9260250DA22E90EDE5C033A
:10799B000EDE58D8A0D4EF3CF0D6EF3CF016EF3DFE
:1079AB00F020EE01F00150D9260250DA22020EDF50
:1079BB006E16EF3DF020EE01F00150D9260250DAA1
:1079CB0022DF6A16EF3DF001C0D9FF02C0DAFFDFFC
:1079DB0050036E046A0450000AD8B4F7EF3CF0E091
:1079EB00EF3CF00350010AD8B4DAEF3BF0030AD8AE
:1079FB00B4F5EF3BF0010AD8B421EF3CF0070AD8FD
:107A0B00B461EF3CF0010AD8B485EF3CF0030AD81F
:107A1B00B4B3EF3CF0010AD8B4C5EF3CF0E0EF3C57
:107A2B00F020EE01F00150D9260250DA2201C0E11C
:107A3B00FF02C0E2FFDE50E618D8B427EF3DF02975
:107A4B00EF3DF03DEF3DF020EE01F00150D9260265
:107A5B0050DA2201C0E1FF02C0E2FFDFCFE7FF20D7
:107A6B00EE02F00150D9260250DA22DE6ADD6A12EC
:107A7B00000BEC35F00BEF3FF0070E0B6ED20E0C3C
:107A8B006E7F0E0D6E010EDBEC37F0000E0B6E05EC
:107A9B000E0C6E7F0E0D6E020EDBEC37F0020E0B32
:107AAB006E3D0E0C6E7F0E0D6E030EDBEC37F0038E
:107ABB000E0B6E910E0C6E7F0E0D6E040EDBEC3703
:107ACB00F029EF3FF0020E0B6E190E0C6E7F0E0DB0
:107ADB006E010EDBEC37F0040E0B6EA00E0C6E7FFE
:107AEB000E0D6E020EDBEC37F0010E0B6E2B0E0C37
:107AFB006E7F0E0D6E030EDBEC37F0030E0B6E81FB
:107B0B000E0C6E7F0E0D6E040EDBEC37F029EF3F83
:107B1B00F0020E0B6E710E0C6E7F0E0D6E010EDBF6
:107B2B00EC37F05AAC9CEF3DF09EEF3DF0FEEF3D95
:107B3B00F05AAAA3EF3DF0A5EF3DF0B0EF3DF00EEC
:107B4B000E0B6EFC0E0C6E7F0E0D6E020EDBEC3709
:107B5B00F0B9EF3DF00E0E0B6EF90E0C6E7F0E0DA5
:107B6B006E020EDBEC37F01F0E5A145A6E5B6AD1A5
:107B7B000E426E000E436ED90E446E7F0E456E7034
:107B8B00C046F071C047F08BEC36F0C70E426E006A
:107B9B000E436ECE0E446E7F0E456E6EC046F06F7A
:107BAB00C047F08BEC36F0BD0E426E000E436ECA32
:107BBB000E446E7F0E456E5AC046F05BC047F08B8D
:107BCB00EC36F0000E0B6EBD0E0C6E000E0D6E0241
:107BDB000EDBEC37F0C70E096E000E0A6E2FEC377A
:107BEB00F0D10E096E000E0A6E2FEC37F037EF3E18
:107BFB00F03F0E5A145A6E5B6AD10E426E000E4362
:107C0B006ED90E446E7F0E456E70C046F071C04744
:107C1B00F08BEC36F0C70E426E000E436ECE0E4468
:107C2B006E7F0E456E6EC046F06FC047F08BEC3624
:107C3B00F0BD0E426E000E436ECA0E446E7F0E45B3
:107C4B006E5AC046F05BC047F08BEC36F0000E0B63
:107C5B006EBD0E0C6E000E0D6E020EDBEC37F0F0EF
:107C6B00EF3DF0030E02EC37F029EC35F0B30E428A
:107C7B006E000E436EBA0E446E7F0E456E6AC046A2
:107C8B00F06BC047F08BEC36F0A90E426E000E4342
:107C9B006EBE0E446E7F0E456E68C046F069C047DF
:107CAB00F08BEC36F09F0E426E000E436ED90E44F5
:107CBB006E7F0E456E66C046F067C047F08BEC36A4
:107CCB00F0000E0B6EB30E0C6E000E0D6E030EDB82
:107CDB00EC37F0A90E096E000E0A6E2FEC37F09FF1
:107CEB000E096E000E0A6E2FEC37F0B5EF3EF0F179
:107CFB000E096E7F0E0A6E2FEC37F029EF3FF0E97D
:107D0B000E096E7F0E0A6E2FEC37F029EF3FF0E570
:107D1B000E096E7F0E0A6E2FEC37F029EF3FF0DD68
:107D2B000E096E7F0E0A6E2FEC37F029EF3FF0ED48
:107D3B000E096E7F0E0A6E2FEC37F029EF3FF0F530
:107D4B000E096E7F0E0A6E2FEC37F029EF3FF0E134
:107D5B000E096E7F0E0A6E2FEC37F029EF3FF0DB2A
:107D6B000E00016C25D96E000E6D21DA6EDF5058B6
:107D7B006E596A5950000AD8B4C6EF3EF029EF3F4E
:107D8B00F05850300AD8B47DEF3EF0010AD8B485D4
:107D9B00EF3EF0030AD8B48DEF3EF0010AD8B4954C
:107DAB00EF3EF0070AD8B49DEF3EF0010AD8B4A518
:107DBB00EF3EF0030AD8B4ADEF3EF029EF3FF001F0
:107DCB000E0B6EAD0E0C6E7F0E0D6E010EDBEC37D7
:107DDB00F0010E0B6EC20E0C6E7F0E0D6E020EDBE3
:107DEB00EC37F0010E0B6E600E0C6E7F0E0D6E03FA
:107DFB000EDBEC37F0010E0B6E4F0E0C6E7F0E0D83
:107E0B006E040EDBEC37F029EF3FF056C058F057FD
:107E1B00C059F05950000AD8B416EF3FF029EF3F84
:107E2B00F05850010AD8B442EF3DF0030AD8B468B9
:107E3B00EF3DF0010AD8B48EEF3DF0070AD8B4E558
:107E4B00EF3EF029EF3FF01200005374617475732D
:107E5B003A2046616C6861202020202020202000E1
:107E6B005374617475733A2050726F6E746F202067
:107E7B002020202020005374617475733A205061C8
:107E8B0072616E646F202020202020005374617477
:107E9B0075733A2050617274696E646F20202020D4
:107EAB0020005374617475733A20426C6F71756561
:107EBB0061646F20202020005374617475733A2025
:107ECB0046756E63696F6E616E646F20200053742C
:107EDB00617475733A20446573636F6E686563698B
:107EEB00646F20005374617475733A20496E696333
:107EFB0069616C697A616E646F00456E67656E6867
:107F0B006172696120456C657472696361005765C4
:107F1B006C696E67746F6E20436F72726569610076
:107F2B005365712E456C6574722E4C696D70657A54
:107F3B00610050726F6A65746F20496E7465677269
:107F4B0061646F0054656D702E204D6163616C3AF6
:107F5B0023232C230054656D702E204D6F746F728C
:107F6B003A23232C230053656A612042656D20560A
:107F7B00696E646F210046696C74726F20646520B2
:107F8B004D616E676100456D20456C657472696368
:107F9B0061204949005241203A203130363336377F
:107FAB00370046696C74726F204D616E67610043D8
:107FBB00616C2025782D005374617475733A0054ED
:107FCB00696D3A25783A00554E495542450025785A
:107FDB002000517561005361620054656300536565
:107FEB00670051756900446F6D0053657800414D12
:057FFB0000504D0000E4
:020000040030CA
:0E0000000009191EFF0181FF0FC00FE00F4025
:00000001FF
