:040000008CEF11F080
:1008000000456E67656E686172696120456C65744C
:100810007269636100253032782F253032782025C7
:100820003032783A253032780057656C696E6774DB
:100830006F6E20436F72726569610046414C48419A
:100840002120507265737320416C74610020202058
:100850002020202020202020202020202000507236
:100860006F6E746F20202020202020202020004345
:1008700069636C6F20417469766F2020202020000E
:100880004D616E75616C20563A2564202020200051
:1008900046696C74726F206465204D616E676100FB
:1008A0005365712E204C696D70657A610052413A32
:1008B00020313036333637370050726573733A253E
:1008C00034646D56002573204369633A25303464DF
:1008D0000042656D2D76696E646F2100554E495555
:1008E0004245004D616E20004175746F006C6C7361
:1008F00000002EC0D9FF2FC0DAFFDECFF6FFDDCF1C
:10090000F7FF0800F550250AD8A489EF04F08BEF13
:1009100004F00CEF06F02EC0D9FF2FC0DAFFDE2A5C
:10092000000EDD22000E0001616F000E606F60C0DE
:1009300070F062696369000E356E000E346ECCEFA4
:1009400004F0000170832EC0D9FF2FC0DAFFDE2A29
:10095000000EDD22CCEF04F0000E356E010E346E79
:10096000CCEF04F02EC0D9FF2FC0DAFFDECFF6FFA8
:10097000DDCFF7FF0800F550326E336A3350000ABE
:10098000D8B4C5EF04F0ACEF04F03250300AD8B45C
:10099000A1EF04F0ACEF04F034503510D8B4D3EF2D
:1009A00004F0D5EF04F0B2EF04F02EC007F02FC032
:1009B00008F030C009F031C00AF032EC0DF007C089
:1009C00060F008C061F0000161BFEBEF04F0E9EFF7
:1009D00004F0F0EF04F07081606D611FD8B0612BFE
:1009E0002EC0D9FF2FC0DAFFDECF3CF0DDCF3DF0C7
:1009F0003CC0F6FF3DC0F7FF0800F550640AD8B4CC
:100A000004EF05F006EF05F014EF05F03CC0F6FF2B
:100A10003DC0F7FF0800F550690AD8A412EF05F0B1
:100A200014EF05F042EF05F030C0D9FF31C0DAFF16
:100A3000DFCF32F0020EDE26DFCF33F0000EDD22F4
:100A400032C0D9FF33C0DAFFDECF38F0DDCF39F066
:100A5000010E3C24326E000E3D20336E2EC0D9FFB5
:100A60002FC0DAFF32C0DEFF33C0DDFF2CC01CF028
:100A70002DC01DF038C01EF039C01FF06BEC08F01F
:100A800020EF06F03CC0F6FF3DC0F7FF0800F55030
:100A9000780AD8A44EEF05F050EF05F096EF05F078
:100AA00030C0D9FF31C0DAFFDFCF32F0020EDE26D0
:100AB000DFCF33F0000EDD2232C0D9FF33C0DAFFC2
:100AC000DECF38F0DDCF39F0010E3C24326E000E5F
:100AD0003D20336E2EC0D9FF2FC0DAFF32C0DEFFBB
:100AE00033C0DDFF80EF05F02CC01CF02DC01DF0E1
:100AF00038C01EF039C01FF0B2EC0BF020EF06F04A
:100B00003CC0F6FF3DC0F7FF0800F550326E336A77
:100B10003350000AD8B48FEF05F096EF05F032504D
:100B2000780AD8B474EF05F096EF05F02EC0D9FF1F
:100B30002FC0DAFFDECFF6FFDDCFF7FF0800F5505C
:100B4000730AD8B4A6EF05F0A8EF05F0C3EF05F0DF
:100B50002EC0D9FF2FC0DAFFDECF01F0DDCF02F0CB
:100B6000ED0E036E080E046E000E066E030E056E8B
:100B70005EEC0CF001500210D8A4C1EF05F0C3EFF9
:100B800005F003EF06F02EC0D9FF2FC0DAFFDECF4D
:100B9000F6FFDDCFF7FF0800F550730AD8B4D3EFA6
:100BA00005F0D5EF05F0DBEF05F0000E376E030E14
:100BB000366EDFEF05F0000E376E010E366E2EC07A
:100BC000D9FF2FC0DAFF3650DE263750DD222CC089
:100BD0000AF02DC00BF030C0D9FF31C0DAFFDFCFF3
:100BE00032F0020EDE26DFCF33F0000EDD2232C0FF
:100BF000D9FF33C0DAFFDECF0CF0DDCF0DF02FECE4
:100C00000AF020EF06F02EC0D9FF2FC0DAFFDE2A4F
:100C1000000EDD2220EF06F02EC0D9FF2FC0DAFF34
:100C2000DECFF6FFDDCFF7FF0800F550016E026A58
:100C30002CC003F02DC004F0CDEC0CF003EF06F057
:100C4000120000017451D8B428EF06F02AEF06F024
:100C500034EF07F0000E756F8C96000E826E8C9E3E
:100C600051EF07F0000E756F8C9666510A6E675152
:100C70000B6E664B672BB80E0A5C0B0E0B58D8A098
:100C800044EF06F046EF06F051EF07F0010E716FEA
:100C9000000E676F000E666F000E726F010E756FAB
:100CA0008C866E4B6F2B31EC12F051EF07F08B807E
:100CB00096EF06F08B8296EF06F08B8496EF06F0A7
:100CC0008B8C96EF06F08B8E96EF06F08C8E96EF5F
:100CD00006F072510A6E0B6A0B50000AD8B473EF1B
:100CE00006F096EF06F00A50000AD8B457EF06F067
:100CF000010AD8B45AEF06F0030AD8B45DEF06F043
:100D0000010AD8B45DEF06F0070AD8B45DEF06F02B
:100D1000010AD8B460EF06F0030AD8B463EF06F016
:100D2000010AD8B466EF06F096EF06F066510A6E37
:100D300067510B6E664B672B0B5009E1C80E0A5CBE
:100D4000D8A0A5EF06F0A7EF06F051EF07F0BBEF34
:100D500006F08B90E8EF06F08B92E8EF06F08B94AC
:100D6000E8EF06F08B9CE8EF06F08B9EE8EF06F0CC
:100D70008C9EE8EF06F072510A6E0B6A0B50000A67
:100D8000D8B4C5EF06F0E8EF06F00A50000AD8B470
:100D9000A9EF06F0010AD8B4ACEF06F0030AD8B404
:100DA000AFEF06F0010AD8B4AFEF06F0070AD8B4E7
:100DB000AFEF06F0010AD8B4B2EF06F0030AD8B4D8
:100DC000B5EF06F0010AD8B4B8EF06F0E8EF06F088
:100DD000020E716F000E676F000E666F51EF07F025
:100DE00066510A6E67510B6E664B672BF40E0A5CF8
:100DF000010E0B58D8A0FFEF06F001EF07F051EFFE
:100E000007F0010E716F000E676F000E666F722B98
:100E1000070E72650EEF07F010EF07F051EF07F0C5
:100E2000030E716F000E676F000E666F000E756F18
:100E30008C9651EF07F066510A6E67510B6E664B48
:100E4000672B0B5009E1640E0A5CD8A02AEF07F06B
:100E50002CEF07F051EF07F0000E716F000E676F77
:100E6000000E666F51EF07F071510A6E0B6A0B505E
:100E7000000AD8B43EEF07F051EF07F00A50000A1D
:100E8000D8B432EF06F0010AD8B469EF06F0030ACD
:100E9000D8B4F0EF06F0010AD8B41BEF07F051EF19
:100EA00007F0120080B657EF07F059EF07F07BEF1D
:100EB00007F00001B905D8A460EF07F062EF07F072
:100EC0007BEF07F0000E026E320E016EC4EC10F0E4
:100ED00080B66DEF07F06FEF07F07BEF07F00001D2
:100EE000762B070E766577EF07F079EF07F07BEF4B
:100EF00007F0000E766F000E80B6010E0001B96F8C
:100F000080B885EF07F087EF07F0AAEF07F0B80584
:100F1000D8A48DEF07F08FEF07F0AAEF07F0000ECF
:100F2000026E320E016EC4EC10F080B89AEF07F03A
:100F30009CEF07F0AAEF07F000017651D8A4A3EFC9
:100F400007F0A5EF07F0A9EF07F0070E766FAAEFFD
:100F500007F07607000E80B8010E0001B86F80BA66
:100F6000B4EF07F0B6EF07F037EF08F0B705D8A4F5
:100F7000BCEF07F0BEEF07F037EF08F0000E026E8F
:100F8000320E016EC4EC10F080BAC9EF07F0CBEF5F
:100F900007F037EF08F009EF08F08B80070E026EBC
:100FA000D00E016EC4EC10F08B9037EF08F08B82FE
:100FB000070E026ED00E016EC4EC10F08B9237EF6C
:100FC00008F08B84070E026ED00E016EC4EC10F098
:100FD0008B9437EF08F08B8C070E026ED00E016EEB
:100FE000C4EC10F08B9C37EF08F08B8E070E026E6E
:100FF000D00E016EC4EC10F08B9E37EF08F08C8E93
:10100000070E026ED00E016EC4EC10F08C9E37EF0E
:1010100008F000017651BA6FBB6BBB51000AD8B41F
:1010200014EF08F037EF08F0BA51000AD8B4CDEF4A
:1010300007F0010AD8B4D7EF07F0030AD8B4E1EFFC
:1010400007F0010AD8B4E1EF07F0070AD8B4E1EFDE
:1010500007F0010AD8B4EBEF07F0030AD8B4F5EFB4
:1010600007F0010AD8B4FFEF07F037EF08F0000EE1
:1010700080BA010E0001B76F6451BA6F6551BB6F42
:10108000644B652BBB5109E1640EBA5DD8A04BEFF0
:1010900008F04DEF08F06AEF08F0000E656F000EE3
:1010A000646F980E466E000E476E800E486E080EF6
:1010B000496E010E76254A6E4B6A000E4B2252ECA9
:1010C00010F0010E0B6E980E0C6E000E0D6E020EDF
:1010D0005AEC0FF012001FBE70EF08F073EF08F02B
:1010E000010E74EF08F0000E286E2850D8B47BEF84
:1010F00008F07DEF08F081EF08F01E6C1F1ED8B0DD
:101100001F2A000163BF87EF08F089EF08F08AEF1C
:1011100008F0709363BF91EF08F08FEF08F097EF3E
:1011200008F0000E236E010E226E9BEF08F062C0E5
:1011300022F063C023F060C024F061C025F0285085
:10114000D8B4A5EF08F0A7EF08F0BEEF08F024062A
:10115000D8A025062850D8A4B0EF08F0B2EF08F0C8
:10116000B8EF08F0000E216E2B0E206EBCEF08F0D9
:10117000000E216E2D0E206E20C028F0000E276E6E
:101180001F0E266E000E976FF6EF08F02606D8A009
:101190002706780E2624D96E000E2720DA6E1EC090
:1011A00001F01FC002F0000E046E0A0E036E57EC31
:1011B0000EF001C007F002C008F04FEC11F007502C
:1011C000300FDF6E2206D8A023062406D8A02506FD
:1011D0001EC001F01FC002F0000E046E0A0E036E66
:1011E00095EC0DF001C01EF002C01FF027BE01EF0C
:1011F00009F0275008E12604D8A001EF09F003EF19
:1012000009F02EEF09F01E501F10D8A40AEF09F0C4
:101210000CEF09F0C6EF08F023BE19EF09F02350D8
:1012200006E12204D8B017EF09F019EF09F0C6EF74
:1012300008F025BE24EF09F0255008E12404D8A0C9
:1012400024EF09F026EF09F02EEF09F0000170B34A
:101250002CEF09F02EEF09F0C6EF08F02850D8B4B3
:1012600034EF09F036EF09F041EF09F02606D8A077
:101270002706780E2624D96E000E2720DA6E28C0A5
:10128000DFFF1CC011F01DC012F0780E2624136E73
:10129000000E2720146E24C015F025C016F0AFEC08
:1012A0000EF0120000016851BA6F6951BB6F684BB4
:1012B000692BBB5109E1320EBA5DD8A062EF09F08B
:1012C00064EF09F02EEF0AF0000E696F000E686FF0
:1012D000010E731B010E0B6E4D0E0C6E080E0D6E83
:1012E000010E5AEC0FF000017351D8B47AEF09F0F7
:1012F0007CEF09F0D9EF09F07751D8A482EF09F01B
:1013000084EF09F08AEF09F0E30EBE6F080EBF6F9D
:101310008EEF09F0E80EBE6F080EBF6F980E466E96
:10132000000E476EC50E486E080E496EBEC04AF0EC
:10133000BFC04BF06EC04CF06FC04DF052EC10F0DF
:10134000010E0B6E980E0C6E000E0D6E010E5AEC17
:101350000FF06AC001F06BC002F0130E046E880E2D
:10136000036E1EEC12F00A0E0001BA6FD890023222
:101370000132BA2FB6EF09F001C0BCF002C0BDF0D7
:10138000980E466E000E476EB90E486E080E496EF6
:10139000BCC04AF0BDC04BF052EC10F0010E0B6E19
:1013A000980E0C6E000E0D6E020E5AEC0FF02EEF22
:1013B0000AF0A90E036E000E046E06EC0FF0980EF4
:1013C000466E000E476E150E486E080E496EADC093
:1013D0004AF04B6AAEC04CF04D6AABC04EF04F6A5B
:1013E000AAC050F0516A52EC10F0010E0B6E980E2C
:1013F0000C6E000E0D6E010E5AEC0FF000017451D0
:10140000D8B405EF0AF007EF0AF012EF0AF0010E68
:101410000B6E3B0E0C6E080E0D6E020E5AEC0FF0AA
:101420002EEF0AF07551D8B418EF0AF01AEF0AF04F
:1014300025EF0AF0010E0B6E6F0E0C6E080E0D6E8E
:10144000020E5AEC0FF02EEF0AF0010E0B6E5E0E3C
:101450000C6E080E0D6E020E5AEC0FF0120020EE0C
:10146000B0F010EE0FF0060EDBCFE3FFE806FCE273
:101470000CC01AF00DC01BF01A501B10D8A443EF7B
:101480000AF045EF0AF049EF0AF00F0E1A6E000E4F
:101490001B6E1AC001F01BC002F02BEC10F001C053
:1014A0001EF002C01FF062C01CF063C01DF01DBE24
:1014B0005CEF0AF05EEF0AF073EF0AF01E501C5C5E
:1014C0001D50800A0E6E1F50800A0E58D8A06BEF78
:1014D0000AF06DEF0AF06FEF0AF073EF0AF01CC02C
:1014E0001EF01DC01FF01EC01CF01FC01DF060C00C
:1014F00018F061C019F0000170B181EF0AF083EFBC
:101500000AF0A0EF0AF091EF0AF0000E026E200E32
:10151000016E0AC003F00BC004F0CDEC0CF01E4AC3
:101520001F2A18501E5C1F50800A0E6E1950800A28
:101530000E58D8A09EEF0AF0A0EF0AF085EF0AF04F
:10154000000E176E000E166EC4EF0AF01AC0F6FFFA
:101550001BC0F7FFF86A070EF76403D00800F550C8
:1015600005D0F6CFE1FFF7CFE2FFE7500E6E0E5049
:10157000016E026A0AC003F00BC004F0CDEC0CF05F
:101580001A4A1B2A164A172A1C50165C1750800A42
:101590000E6E1D50800A0E58D8A0D1EF0AF0D3EF7E
:1015A0000AF0A6EF0AF0000170A1D9EF0AF0DBEF14
:1015B0000AF0F8EF0AF0E9EF0AF0000E026E200ED2
:1015C000016E0AC003F00BC004F0CDEC0CF01E4A13
:1015D0001F2A18501E5C1F50800A0E6E1950800A78
:1015E0000E58D8A0F6EF0AF0F8EF0AF0DDEF0AF097
:1015F0001200720ED36E000E956E000E946E000EE9
:10160000826E000E836E928492869288928A928C69
:101610009280DAEC11F043EC12F0A9EC12F060ECDD
:1016200012F0A7EC11F0010EA1EC0FF0F7EC0DF0A9
:10163000020EA1EC0FF0120E0001AB6F000EAA6FAC
:10164000000EA96F070EAD6F120EAE6F250EAF6FB5
:10165000000E2FEC11F007C06AF008C06BF009EC27
:1016600012F080BC36EF0BF038EF0BF068EF0BF0A8
:10167000000E026E320E016EC4EC10F080BC43EF1F
:101680000BF045EF0BF068EF0BF000017705D8A4E5
:101690004CEF0BF04EEF0BF056EF0BF0000E6F6FB0
:1016A000000E6E6F31EC12F061EF0BF082688C8EE1
:1016B000070E026ED00E016EC4EC10F0000E826EAA
:1016C0008C9E80AC66EF0BF068EF0BF061EF0BF0D7
:1016D00080B46DEF0BF06FEF0BF082EF0BF00001B9
:1016E0007705D8A476EF0BF078EF0BF082EF0BF0D4
:1016F000000E776F000E756F000E826E8C9E8C96BA
:1017000094EF0BF080A487EF0BF089EF0BF094EFD0
:101710000BF000017751D8A490EF0BF092EF0BF093
:1017200094EF0BF0010E776F00017751D8A49BEF77
:101730000BF09DEF0BF0A1EF0BF052EC07F0A3EFD5
:101740000BF021EC06F052EC09F0000E026E0A0ECE
:10175000016EC4EC10F000016C4B6D2B28EF0BF008
:1017600000EF00F0000163BFB8EF0BF0BAEF0BF031
:10177000BBEF0BF0709363BFC2EF0BF0C0EF0BF049
:10178000C8EF0BF0000E266E010E256ECCEF0BF0AD
:1017900062C025F063C026F060C027F061C028F069
:1017A000000E2A6E1F0E296E000E976F14EF0CF0BC
:1017B0002906D8A02A061E500F0B2B6E090E2B648B
:1017C000E4EF0BF0E6EF0BF0EEEF0BF0570E2B24EF
:1017D000236E246A000E2422F4EF0BF0300E2B242B
:1017E000236E246A000E242223C02BF0780E2924B5
:1017F000D96E000E2A20DA6E2BC0DFFF2506D8A096
:1018000026062706D8A028061EC020F01FC021F0FB
:10181000040E226ED89021322032222E0AEF0CF0D4
:1018200020C01EF021C01FF02ABE20EF0CF02A506D
:1018300009E1020E295CD8A020EF0CF022EF0CF099
:101840004DEF0CF01E501F10D8A429EF0CF02BEF19
:101850000CF0D8EF0BF026BE38EF0CF0265006E166
:101860002504D8B036EF0CF038EF0CF0D8EF0BF0C1
:1018700028BE43EF0CF0285008E12704D8A043EF1E
:101880000CF045EF0CF04DEF0CF0000170B34BEF96
:101890000CF04DEF0CF0D8EF0BF01CC011F01DC098
:1018A00012F0780E2924136E000E2A20146E27C021
:1018B00015F028C016F0AFEC0EF0120001C008F0D1
:1018C00002C009F003C00AF004C00BF00506D8A05E
:1018D0000606052806E10628D8A471EF0CF073EF80
:1018E0000CF080EF0CF0000E026E000E016ECCEFDB
:1018F0000CF0084A092A0A4A0B2A0506D8A006064F
:1019000008C0F6FF09C0F7FF0800F5500009D8B479
:101910008CEF0CF08EEF0CF0BAEF0CF00AC0F6FF73
:101920000BC0F7FF0800F5500009D8B49AEF0CF08F
:101930009CEF0CF0BAEF0CF005500610D8B4A3EFF2
:101940000CF0A5EF0CF0BAEF0CF008C0F6FF09C0E0
:10195000F7FF0800F5CF07F00AC0F6FF0BC0F7FF4E
:101960000800F5500718D8B4B8EF0CF0BAEF0CF037
:1019700079EF0CF008C0F6FF09C0F7FF0800F5CFBB
:1019800007F00AC0F6FF0BC0F7FF0800F550075C30
:10199000016E026AD8A00206120003500410D8B4E7
:1019A000D4EF0CF0D6EF0CF0DFEF0CF00350041086
:1019B000D8A4DDEF0CF0DFEF0CF0E4EF0CF00150F9
:1019C000AEEC12F031EF0DF020EE0AF00350D92604
:1019D0000450DA22DE50DE10D8B4F1EF0CF0F3EF51
:1019E0000CF00EEF0DF020EE0AF00350D926045053
:1019F000DA2210EE03F00350E1260450E222DE501A
:101A0000E65CE650800A096EDE50800A0958D8B0BC
:101A10000CEF0DF00EEF0DF031EF0DF020EE03F0B6
:101A20000350D9260450DA22DECF05F0DDCF06F0D0
:101A300003C0D9FF04C0DAFFDECF07F0DDCF08F026
:101A400005500724D96E06500820DA6E01C0DFFF6A
:101A500020EE03F00350D9260450DA22DE2A000ECD
:101A6000DD221200000E0F6E000E0E6E07C0D9FFB1
:101A700008C0DAFFDECFF6FFDDCFF7FF0800F55034
:101A80002A0AD8A446EF0DF048EF0DF07CEF0DF0D8
:101A900007C0D9FF08C0DAFFDE2A000EDD2209C028
:101AA000D9FF0AC0DAFFDFCF0BF0020EDE26DFCF50
:101AB0000CF0000EDD220BC0D9FF0CC0DAFFDECF28
:101AC0000EF0DDCF0FF090EF0DF00EC001F00FC063
:101AD00002F0000E046E0A0E036E1EEC12F00D50A2
:101AE00001240E6E000E02200F6E07C0D9FF08C041
:101AF000DAFFDE2A000EDD2207C0D9FF08C0DAFFB8
:101B0000DECFF6FFDDCFF7FF0800F550D00F0D6EEA
:101B1000090E0D648EEF0DF090EF0DF065EF0DF0F6
:101B20000EC007F00FC008F01200000E066E04BED3
:101B30009EEF0DF09CEF0DF0A4EF0DF0036C041E72
:101B4000D8B0042A010E066E02BEABEF0DF0A9EF6D
:101B50000DF0B1EF0DF0016C021ED8B0022A010E9B
:101B6000061A000E086E000E076E03500410D8B45B
:101B7000BCEF0DF0BEEF0DF0E6EF0DF0010E056EBF
:101B8000C6EF0DF0D89003360436052A04AECBEF2D
:101B90000DF0CDEF0DF0C2EF0DF0D89007360836FE
:101BA0000350015C04500258D8A0D9EF0DF0DBEFD0
:101BB0000DF0E0EF0DF00350015E0450025A078073
:101BC000D89004320332052ECDEF0DF00650D8B474
:101BD000ECEF0DF0EEEF0DF0F2EF0DF0076C081EDC
:101BE000D8B0082A07C001F008C002F012007FEC4C
:101BF00012F0040E0B6EDC0E0C6E080E0D6E010E54
:101C00005AEC0FF0010E0B6E010E0C6E080E0D6EED
:101C1000020E5AEC0FF00B0E026EB80E016EC4EC01
:101C200010F07FEC12F0020E0B6E290E0C6E080EF7
:101C30000D6E010E5AEC0FF0040E0B6EAD0E0C6E15
:101C4000080E0D6E020E5AEC0FF00B0E026EB80E5F
:101C5000016EC4EC10F07FEC12F0010E0B6EA00EC2
:101C60000C6E080E0D6E010E5AEC0FF0010E0B6E8D
:101C7000900E0C6E080E0D6E020E5AEC0FF00B0E4D
:101C8000026EB80E016EC4EC10F07FEC12F0040E80
:101C90000B6ED10E0C6E080E0D6E010E5AEC0FF08D
:101CA0000B0E026EB80E016EC4EC10F01200000EA6
:101CB000066E02BE60EF0EF05EEF0EF066EF0EF005
:101CC000016C021ED8B0022A010E066E04BE6DEF32
:101CD0000EF06BEF0EF071EF0EF0036C041ED8B037
:101CE000042A03500410D8B478EF0EF07AEF0EF007
:101CF0009EEF0EF0010E056E82EF0EF0D8900336C7
:101D00000436052A04AE87EF0EF089EF0EF07EEF61
:101D10000EF00350015C04500258D8A092EF0EF070
:101D200094EF0EF098EF0EF00350015E0450025A4B
:101D3000D89004320332052E89EF0EF00650D8B445
:101D4000A4EF0EF0A6EF0EF0AAEF0EF0016C021E4B
:101D5000D8B0022A01C001F002C002F01200000156
:101D600070A1B5EF0EF0B7EF0EF0C1EF0EF013C09B
:101D70000AF014C00BF011C00CF012C00DF00DEC05
:101D800011F016BEC6EF0EF0C8EF0EF0CEEF0EF05B
:101D900015C01AF016C01BF0D2EF0EF0000E1B6E2D
:101DA000000E1A6E000E196E000E186EE4EF0EF0A3
:101DB000000E026E200E016E11C003F012C004F07E
:101DC000CDEC0CF0184A192A1A50185C1950800AE8
:101DD000176E1B50800A1758D8A0F1EF0EF0F3EFE2
:101DE0000EF0D8EF0EF0000170B1F9EF0EF0FBEF3E
:101DF0000EF005EF0FF013C00AF014C00BF011C085
:101E00000CF012C00DF00DEC11F0120092EC12F07B
:101E1000D00E53EC12F0000E53EC12F09BEC12F0CB
:101E2000D10E53EC12F0010E6FEC11F003C0D9FF8C
:101E300004C0DAFFDF6E20EE01F00350D926045013
:101E4000DA22010E6FEC11F0DF6E20EE02F003508B
:101E5000D9260450DA22010E6FEC11F0DF6E20EE6D
:101E600003F00350D9260450DA22010E6FEC11F072
:101E7000DF6E20EE04F00350D9260450DA22010E62
:101E80006FEC11F0DF6E20EE05F00350D926045000
:101E9000DA22010E6FEC11F0DF6E20EE06F0035037
:101EA000D9260450DA22000E6FEC11F0DF6E89ECB7
:101EB00012F012000E6E0E04D8A461EF0FF063EF63
:101EC0000FF06AEF0FF00B500F0B80090F6E0F50E1
:101ED0009EEC10F0020E0E18D8A471EF0FF073EF05
:101EE0000FF07AEF0FF00B500F0BC0090F6E0F5071
:101EF0009EEC10F0030E0E18D8A481EF0FF083EFC4
:101F00000FF08AEF0FF00B500F0B94090F6E0F506C
:101F10009EEC10F0040E0E18D8A491EF0FF093EF82
:101F20000FF09AEF0FF00B500F0BD4090F6E0F50FC
:101F30009EEC10F00CC009F00DC00AF0D5EC0FF0CB
:101F40001200076E0704D8A4A8EF0FF0AAEF0FF055
:101F5000B4EF0FF08C80070E026ED00E016EC4EC51
:101F600010F08C90D4EF0FF0020E0718D8A4BBEF3E
:101F70000FF0BDEF0FF0D4EF0FF08C80000E026E6B
:101F8000FA0E016EC4EC10F08C90000E026E640E1E
:101F9000016EC4EC10F08C80000E026EFA0E016E21
:101FA000C4EC10F0B1EF0FF01200EBEF0FF009C02E
:101FB000F6FF0AC0F7FFF86A070EF76403D00800BF
:101FC000F55005D0F6CFE1FFF7CFE2FFE75078EC10
:101FD00010F0094A0A2A09C0F6FF0AC0F7FFF86A9A
:101FE000070EF76403D00800F55005D0F6CFE1FFE7
:101FF000F7CFE2FFE7500009D8A401EF10F003EF9C
:1020000010F0D7EF0FF0120040C044F041C045F08F
:1020100018EF10F03EC02CF03FC02DF0440E2E6E95
:10202000000E2F6E42C030F043C031F079EC04F066
:1020300044C0F6FF45C0F7FF0800F5500009D8A4DA
:1020400024EF10F026EF10F00AEF10F0000E3F6EB4
:10205000000E3E6E120001C003F002C004F033EF28
:1020600010F0014A022A01C0F6FF02C0F7FFF86A29
:10207000070EF76403D00800F55005D0F6CFE1FF56
:10208000F7CFE2FFE7500009D8A449EF10F04BEF7B
:1020900010F031EF10F00350015C016E0450025853
:1020A000026E12004A0E526E000E536E46C054F07D
:1020B00047C055F0000E586E000E576E000E5F6E52
:1020C000000E5E6E540E3E6E000E3F6E48C040F035
:1020D00049C041F0520E426E000E436E04EC10F007
:1020E00057504624D96E58504720DA6EDF6A1200E6
:1020F000086E08C007F0F00E07168A500F0B071085
:102100008A6E8A848A8600F08A96000E026E010E1C
:10211000016EC4EC10F008C007F0073AF00E071685
:102120008A500F0B07108A6E8A8600F08A96000E7E
:10213000026E030E016EC4EC10F01200086E08C0AF
:1021400007F0F00E07168A500F0B07108A6E8A945C
:102150008A8600F08A96000E026E010E016EC4ECB3
:1021600010F008C007F0073AF00E07168A500F0B60
:1021700007108A6E8A8600F08A96000E026E030EA1
:10218000016EC4EC10F01200000E046E000E036E1F
:10219000DDEF10F0000E066E000E056E054A062AF1
:1021A000065009E1A50E055CD8A0D9EF10F0DBEFD1
:1021B00010F0CEEF10F0034A042A0150035C0250E5
:1021C0000458D8A0E6EF10F0E8EF10F0CAEF10F0D6
:1021D0001200C5B0EEEF10F0F0EF10F0E9EF10F0E4
:1021E000C5B2F5EF10F0F7EF10F0E9EF10F0C5B45D
:1021F000FCEF10F0FEEF10F0E9EF10F0C5B603EFC2
:1022000011F005EF11F0E9EF10F0C7B40AEF11F08B
:102210000CEF11F0E9EF10F01200000E106E000E3E
:102220000F6E1EEF11F00EC001F0026A0CC003F039
:102230000DC004F0CDEC0CF00F4A102A0F500A2408
:10224000D96E10500B20DA6EDF500E6E0E50D8A4EF
:102250002CEF11F02EEF11F013EF11F012000B6EB6
:102260000B44E846FC0B0109C26E000E026E010E23
:10227000016EC4EC10F0C282C2B241EF11F043EF24
:1022800011F03CEF11F0C350C4CF09F00A6A09C045
:102290000AF0096A0910076E0A50086E120008BE9B
:1022A0005CEF11F0085006E10704D8B05AEF11F0C6
:1022B0005CEF11F06AEF11F007C009F008C00AF0F6
:1022C000091E0A1E094A0A2A09C007F00AC008F0B6
:1022D0006EEF11F007C007F008C008F01200016EA1
:1022E000C586C7A076EF11F078EF11F071EF11F00D
:1022F000C9CF02F0E9EC10F00104D8A482EF11F08C
:1023000084EF11F088EF11F075EC12F08AEF11F004
:102310006BEC12F002501200480EF66E250EF76EAE
:10232000000EF86E00EEB0F010EE0AF00900F5CFE6
:10233000EEFFE550E150FAE100EE60F0500EEE6A7B
:10234000E806FDE1000EF86E0001F9EF0AF0000E5C
:10235000046E000E036EC2EC11F0086E000E046EE7
:10236000010E036EC2EC11F0096E095008C006F0B0
:10237000076A06C007F0066A061000016E6F075074
:102380006F6F120092EC12F0A00E53EC12F004509A
:1023900053EC12F0035053EC12F09BEC12F0A10E30
:1023A00053EC12F0000E6FEC11F0056E89EC12F098
:1023B00005501200000E936E000E026E0F0E016E9D
:1023C000C4EC10F0020E9EEC10F0280E9EEC10F003
:1023D000010E9EEC10F00C0E9EEC10F0060E9EEC22
:1023E00010F0120092EC12F0A00E53EC12F0085014
:1023F00053EC12F0075053EC12F0095053EC12F06A
:1024000089EC12F0000E026E0A0E016EC4EC10F0A0
:102410001200340E00016A5D030E6B59D8A013EF51
:1024200012F015EF12F01AEF12F0010E746F8C8497
:102430001DEF12F0000E746F8C9412000150030215
:10244000F3CF05F0F4CF06F001500402F350062656
:1024500002500302F350062605C001F006C002F048
:102460001200000E086E000E076E00016F51096E1B
:10247000F2EC11F0000E086E010E076E6EC009F04E
:10248000F2EC11F0120060EC12F092EC12F0D00EAF
:1024900053EC12F0070E53EC12F0000E53EC12F056
:1024A00089EC12F01200016E01C0C9FFC7B05BEFEA
:1024B00012F05DEF12F056EF12F0E9EC10F012009E
:1024C00093829380800EC76E280EC66E000EC56E76
:1024D000040EC86E1200C58AC588C5B872EF12F026
:1024E00074EF12F06DEF12F01200C59AC588C5B8EE
:1024F0007CEF12F07EEF12F077EF12F01200010E77
:102500009EEC10F0000E026E030E016EC4EC10F093
:102510001200C584C5B48FEF12F091EF12F08AEF6C
:1025200012F01200C580C5B098EF12F09AEF12F0C9
:1025300093EF12F01200C582C5B2A1EF12F0A3EF23
:1025400012F09CEF12F01200286E756C6C290001DD
:0E25500001010E0EC16EBE0EC06E1200120012
:020000040030CA
:0E0000000009191EFF0181FF0FC00FE00F4025
:00000001FF
