:0400000056EF35F092
:1069FA001200C580C5B004EF35F006EF35F0FFEFA1
:106A0A0034F01200C584C5B40DEF35F00FEF35F040
:106A1A0008EF35F01200010E3CEC36F0000E026E63
:106A2A00030E016E17EC36F01200C59AC588C5B878
:106A3A0021EF35F023EF35F01CEF35F01200C58A4F
:106A4A00C588C5B82BEF35F02DEF35F026EF35F0B8
:106A5A00120093829380800EC76E280EC66E000EB7
:106A6A00C56E040EC86E1200016E01C0C9FFC7B020
:106A7A0041EF35F043EF35F03CEF35F0F3EC35F00C
:106A8A0012002EEC35F0FEEC34F0D00E39EC35F075
:106A9A00070E39EC35F0000E39EC35F007EC35F01D
:106AAA00120000EE60F0660EEE6AE806FDE100EE06
:106ABA0058F0080EEE6AE806FDE1000EF86E0001D5
:106ACA00DBEF39F001500302F3CF05F0F4CF06F003
:106ADA0001500402F350062602500302F350062620
:106AEA0005C001F006C002F01200000E936E000EFF
:106AFA00026E0F0E016E17EC36F0020E3CEC36F009
:106B0A00280E3CEC36F0010E3CEC36F00C0E3CEC58
:106B1A0036F0060E3CEC36F01200016EC586C7A0B0
:106B2A0099EF35F09BEF35F094EF35F0C9CF02F0CD
:106B3A00F3EC35F00104D8A4A5EF35F0A7EF35F052
:106B4A00ABEF35F01AEC35F0ADEF35F024EC35F05B
:106B5A0002501200000E0A6E000E096EC5EF35F0E3
:106B6A008C80010E026EF40E016E17EC36F08C90DA
:106B7A00010E026EF40E016E17EC36F0094A0A2A6B
:106B8A000750095C08500A58D8A0CEEF35F0D0EF6C
:106B9A0035F0B5EF35F01200000E106E000E0F6ED4
:106BAA00E2EF35F00EC001F0026A0CC003F00DC02E
:106BBA0004F076EC39F00F4A102A0F500A24D96EE5
:106BCA0010500B20DA6EDF500E6E0E50D8A4F0EF84
:106BDA0035F0F2EF35F0D7EF35F01200C5B0F8EF27
:106BEA0035F0FAEF35F0F3EF35F0C5B2FFEF35F0D7
:106BFA0001EF36F0F3EF35F0C5B406EF36F008EFE3
:106C0A0036F0F3EF35F0C5B60DEF36F00FEF36F08C
:106C1A00F3EF35F0C7B414EF36F016EF36F0F3EFB2
:106C2A0035F01200000E046E000E036E30EF36F0DF
:106C3A00000E066E000E056E054A062A065009E188
:106C4A00A50E055CD8A02CEF36F02EEF36F021EF1A
:106C5A0036F0034A042A0150035C02500458D8A0B3
:106C6A0039EF36F03BEF36F01DEF36F01200086EC2
:106C7A0008C007F0F00E07168A500F0B07108A6E2D
:106C8A008A948A8600F08A96000E026E010E016EC0
:106C9A0017EC36F008C007F0073AF00E07168A50CC
:106CAA000F0B07108A6E8A8600F08A96000E026E13
:106CBA00030E016E17EC36F01200086E08C007F0DA
:106CCA00F00E07168A500F0B07108A6E8A848A867E
:106CDA0000F08A96000E026E010E016E17EC36F075
:106CEA0008C007F0073AF00E07168A500F0B071074
:106CFA008A6E8A8600F08A96000E026E030E016E74
:106D0A0017EC36F012003EC042F03FC043F09CEF51
:106D1A0036F03CC02CF03DC02DF0420E2E6E000E17
:106D2A002F6E40C030F041C031F016EC3CF042C04A
:106D3A00F6FF43C0F7FF0800F5500009D8A4A8EFF2
:106D4A0036F0AAEF36F08EEF36F0000E3D6E000EEA
:106D5A003C6E1200480E0001C66F000EC76F44C099
:106D6A00C8F045C0C9F0000ECC6F000ECB6F000E04
:106D7A00D36F000ED26FC80E3C6E000E3D6E46C039
:106D8A003EF047C03FF0C60E406E000E416E88ECE2
:106D9A0036F00001CB514424D96ECC514520DA6E2D
:106DAA00DF6A1200590E036E000E046E03EC38F00F
:106DBA00670E446E000E456ED30E466E7D0E476E0C
:106DCA005BC048F0496A5AC04AF04B6A59C04CF055
:106DDA004D6A5DC04EF04F6A5EC050F0516A5FC0A6
:106DEA0052F0536AAFEC36F0000E0B6E670E0C6E63
:106DFA00000E0D6E020E72EC37F0120019EF37F02A
:106E0A0009C0F6FF0AC0F7FFF86A070EF76403D055
:106E1A000800F55005D0F6CFE9FFF7CFEAFFEF50AB
:106E2A0062EC36F0094A0A2A09C0F6FF0AC0F7FFDF
:106E3A00F86A070EF76403D00800F55005D0F6CFBC
:106E4A00E9FFF7CFEAFFEF500009D8A42FEF37F098
:106E5A0031EF37F005EF37F0120014C001F015C01A
:106E6A0002F007EC3DF014C001F015C002F0B0ECDE
:106E7A0038F014C010F015C011F0D0EC3AF020EE42
:106E8A0002F01450D9261550DA22DE2A000EDD222D
:106E9A0020EE06F01450D9261550DA22DE2A000E0A
:106EAA00DD2220EE06F01450D9261550DA22010E02
:106EBA00DB5009E1320EDE5CD8A066EF37F068EFEE
:106ECA0037F071EF37F020EE06F01450D92615503E
:106EDA00DA22DE6ADD6A8C7212000E6E0E04D8A403
:106EEA0079EF37F07BEF37F082EF37F00B500F0B6B
:106EFA0080090F6E0F503CEC36F0020E0E18D8A423
:106F0A0089EF37F08BEF37F092EF37F00B500F0B1A
:106F1A00C0090F6E0F503CEC36F0030E0E18D8A4C1
:106F2A0099EF37F09BEF37F0A2EF37F00B500F0BCA
:106F3A0094090F6E0F503CEC36F0040E0E18D8A4CC
:106F4A00A9EF37F0ABEF37F0B2EF37F00B500F0B7A
:106F5A00D4090F6E0F503CEC36F00CC009F00DC08E
:106F6A000AF003EC37F0120001C0D9FF02C0DAFFC1
:106F7A00010EDF6E20EE01F00150D9260250DA220E
:106F8A00010EDF6E20EE02F00150D9260250DA22FD
:106F9A00DE6ADD6A20EE04F00150D9260250DA22B8
:106FAA00DE6ADD6A20EE06F00150D9260250DA22A6
:106FBA00DE6ADD6A20EE08F00150D9260250DA2294
:106FCA00DE6ADD6A20EE0AF00150D9260250DA2282
:106FDA00010EDF6E20EE0BF00150D9260250DA22A4
:106FEA00010EDF6E20EE0CF00150D9260250DA2293
:106FFA00010EDF6E8C968C948C921200FEEC34F0AB
:10700A00D00E39EC35F0000E39EC35F007EC35F0DE
:10701A00FEEC34F0D10E39EC35F0010E92EC35F07D
:10702A0003C0D9FF04C0DAFFDF6E20EE01F003507F
:10703A00D9260450DA22010E92EC35F0DF6E20EEEA
:10704A0002F00350D9260450DA22010E92EC35F0F0
:10705A00DF6E20EE03F00350D9260450DA22010E27
:10706A0092EC35F0DF6E20EE04F00350D92604507E
:10707A00DA22010E92EC35F0DF6E20EE05F00350B5
:10708A00D9260450DA22010E92EC35F0DF6E20EE9A
:10709A0006F00350D9260450DA22000E92EC35F09D
:1070AA00DF6E07EC35F01200000166A15FEF38F0E1
:1070BA0061EF38F06BEF38F013C00AF014C00BF030
:1070CA0011C00CF012C00DF0D1EC35F016BE70EF05
:1070DA0038F072EF38F078EF38F015C01AF016C0B1
:1070EA001BF07CEF38F0000E1B6E000E1A6E000EBD
:1070FA00196E000E186E8EEF38F0000E026E200E1A
:10710A00016E11C003F012C004F076EC39F0184A8F
:10711A00192A1A50185C1950800A176E1B50800AD7
:10712A001758D8A09BEF38F09DEF38F082EF38F06F
:10713A00000166B1A3EF38F0A5EF38F0AFEF38F0F1
:10714A0013C00AF014C00BF011C00CF012C00DF0FD
:10715A00D1EC35F01200E1EF38F08C9612EF39F0ED
:10716A008C9620EE02F00150D9260250DA22010E46
:10717A00DB5009E1640EDE5CD8A0C6EF38F0C8EF38
:10718A0038F012EF39F020EE02F00150D926025001
:10719A00DA22DE6ADD6A20EE04F00150D9260250B6
:1071AA00DA22DE2A000EDD2212EF39F08C8612EF87
:1071BA0039F08C8412EF39F001C0D9FF02C0DAFF2E
:1071CA00DF50036E046A0450000AD8B4EFEF38F0B7
:1071DA0012EF39F00350000AD8B412EF39F0010A5D
:1071EA00D8B4B2EF38F0030AD8B4B2EF38F0010AD3
:1071FA00D8B4B5EF38F0070AD8B4B2EF38F0010ABC
:10720A00D8B412EF39F0030AD8B4DBEF38F0010A28
:10721A00D8B4DEEF38F012EF39F01200000E0F6E1C
:10722A00000E0E6E07C0D9FF08C0DAFFDECFF6FFE8
:10723A00DDCFF7FF0800F5502A0AD8A427EF39F066
:10724A0029EF39F05DEF39F007C0D9FF08C0DAFF3E
:10725A00DE2A000EDD2209C0D9FF0AC0DAFFDFCF1D
:10726A000BF0020EDE26DFCF0CF0000EDD220BC083
:10727A00D9FF0CC0DAFFDECF0EF0DDCF0FF071EFD1
:10728A0039F00EC001F00FC002F0000E046E0A0EB3
:10729A00036E67EC35F00D5001240E6E000E0220CD
:1072AA000F6E07C0D9FF08C0DAFFDE2A000EDD2202
:1072BA0007C0D9FF08C0DAFFDECFF6FFDDCFF7FF40
:1072CA000800F550D00F0D6E090E0D646FEF39F0FE
:1072DA0071EF39F046EF39F00EC007F00FC008F031
:1072EA00120003500410D8B47DEF39F07FEF39F063
:1072FA0088EF39F003500410D8A486EF39F088EFEC
:10730A0039F08DEF39F00150FDEC34F0DAEF39F055
:10731A0020EE0AF00350D9260450DA22DE50DE109D
:10732A00D8B49AEF39F09CEF39F0B7EF39F020EE84
:10733A000AF00350D9260450DA2210EE03F0035063
:10734A00E1260450E222DE50E65CE650800A096E2D
:10735A00DE50800A0958D8B0B5EF39F0B7EF39F0E6
:10736A00DAEF39F020EE03F00350D9260450DA227E
:10737A00DECF05F0DDCF06F003C0D9FF04C0DAFF87
:10738A00DECF07F0DDCF08F005500724D96E06508E
:10739A000820DA6E01C0DFFF20EE03F00350D92681
:1073AA000450DA22DE2A000EDD221200720ED36E9B
:1073BA007AEC35F046EC35F0190E5B6E310E5A6EEA
:1073CA00300E596E030E5D6E030E5E6E210E5F6EF9
:1073DA00030E5C6E000E956E000E946E000E826EA9
:1073EA00B90E016E000E026EB9EC37F0000E086E8F
:1073FA00020E076EAFEC35F0000E556E010E546E9C
:10740A0047EC3AF00B0E026EB80E016E17EC36F02E
:10741A00000E556E020E546E47EC3AF00B0E026ED9
:10742A00B80E016E17EC36F0000E556E030E546E50
:10743A0047EC3AF00B0E026EB80E016E17EC36F0FE
:10744A00000E556E040E546E47EC3AF0000E086EAC
:10745A00010E076EAFEC35F00B0E026EB80E016E20
:10746A0017EC36F0B90E146E000E156E32EC37F0CA
:10747A00000E026E0A0E016E17EC36F037EF3AF084
:10748A0000EF00F010EC35F0B1EF3AF0070E0B6E9A
:10749A00F70E0C6E7F0E0D6E010E72EC37F0000EB9
:1074AA000B6E640E0C6E7F0E0D6E020E72EC37F0D0
:1074BA00020E0B6E9C0E0C6E7F0E0D6E030E72EC9E
:1074CA0037F0030E0B6ECE0E0C6E7F0E0D6E040E91
:1074DA0072EC37F0CFEF3AF0020E0B6E780E0C6EAC
:1074EA007F0E0D6E010E72EC37F0040E0B6EDD0E80
:1074FA000C6E7F0E0D6E020E72EC37F0010E0B6EE3
:10750A008A0E0C6E7F0E0D6E030E72EC37F0030EB0
:10751A000B6EBE0E0C6E7F0E0D6E040E72EC37F003
:10752A00CFEF3AF0020E0B6EAE0E0C6E7F0E0D6EA2
:10753A00040E72EC37F0D7EC36F0CFEF3AF0D7EC16
:10754A0036F0020E0B6EEA0E0C6E7F0E0D6E040EF6
:10755A0072EC37F0CFEF3AF054C056F055C057F0FE
:10756A005750000AD8B4BCEF3AF0CFEF3AF0565071
:10757A00010AD8B44BEF3AF0030AD8B471EF3AF0E3
:10758A00010AD8B497EF3AF0070AD8B4A4EF3AF050
:10759A00CFEF3AF012000001644B652B655109E107
:1075AA000A0E645DD8A0DCEF3AF0DEEF3AF069EF3C
:1075BA003BF0000E656F000E646F3CEF3BF0010E6E
:1075CA000B6EBB0E0C6E7E0E0D6E020E72EC37F059
:1075DA0069EF3BF0010E0B6E370E0C6E7E0E0D6ED0
:1075EA00020E72EC37F069EF3BF0010E0B6E630E80
:1075FA000C6E7E0E0D6E020E72EC37F069EF3BF0E8
:10760A00010E0B6E8F0E0C6E7E0E0D6E020E72EC5C
:10761A0037F069EF3BF0010E0B6E4D0E0C6E7E0ECD
:10762A000D6E020E72EC37F069EF3BF0010E0B6E35
:10763A00790E0C6E7E0E0D6E020E72EC37F069EF4B
:10764A003BF0010E0B6E210E0C6E7E0E0D6E020EBD
:10765A0072EC37F069EF3BF0010E0B6EA50E0C6E63
:10766A007E0E0D6E020E72EC37F069EF3BF010C021
:10767A00D9FF11C0DAFFDF50126E136A1350000AE5
:10768A00D8B44AEF3BF031EF3BF01250010AD8B4BC
:10769A00E4EF3AF0030AD8B4EFEF3AF0010AD8B4AB
:1076AA00FAEF3AF0070AD8B405EF3BF0010AD8B46A
:1076BA0010EF3BF0030AD8B41BEF3BF0010AD8B431
:1076CA0026EF3BF031EF3BF01200000163BF70EF91
:1076DA003BF072EF3BF073EF3BF0669363BF7AEFD8
:1076EA003BF078EF3BF080EF3BF0000E266E010E88
:1076FA00256E84EF3BF062C025F063C026F060C0BF
:10770A0027F061C028F0000E2A6E1F0E296E000EA7
:10771A00B86FCCEF3BF02906D8A02A061E500F0BF3
:10772A002B6E090E2B649CEF3BF09EEF3BF0A6EF0D
:10773A003BF0570E2B24236E246A000E2422ACEF52
:10774A003BF0300E2B24236E246A000E242223C021
:10775A002BF0990E2924D96E000E2A20DA6E2BC03E
:10776A00DFFF2506D8A026062706D8A028061EC0B1
:10777A0020F01FC021F0040E226ED8902132203250
:10778A00222EC2EF3BF020C01EF021C01FF02ABEFD
:10779A00D8EF3BF02A5009E1020E295CD8A0D8EFB5
:1077AA003BF0DAEF3BF005EF3CF01E501F10D8A477
:1077BA00E1EF3BF0E3EF3BF090EF3BF026BEF0EF5A
:1077CA003BF0265006E12504D8B0EEEF3BF0F0EF8F
:1077DA003BF090EF3BF028BEFBEF3BF0285008E16E
:1077EA002704D8A0FBEF3BF0FDEF3BF005EF3CF0A0
:1077FA00000166B303EF3CF005EF3CF090EF3BF07D
:10780A001CC011F01DC012F0990E2924136E000E2F
:10781A002A20146E27C015F028C016F059EC38F04B
:10782A0012002EC0D9FF2FC0DAFFDECFF6FFDDCF60
:10783A00F7FF0800F550250AD8A426EF3CF028EFF8
:10784A003CF0F2EF3CF02EC0D9FF2FC0DAFFDE2A5F
:10785A00000EDD22000E0001616F000E606F60C035
:10786A0066F062696369000E396E000E386E69EF60
:10787A003CF0000166832EC0D9FF2FC0DAFFDE2A52
:10788A00000EDD2269EF3CF0000E396E010E386EF3
:10789A0069EF3CF02EC0D9FF2FC0DAFFDECFF6FF2A
:1078AA00DDCFF7FF0800F550326E336A3350000A15
:1078BA00D8B462EF3CF049EF3CF03250300AD8B409
:1078CA003EEF3CF049EF3CF038503910D8B470EF35
:1078DA003CF072EF3CF04FEF3CF02EC007F02FC0A7
:1078EA0008F030C009F031C00AF013EC39F007C0D3
:1078FA0060F008C061F0000161BF88EF3CF086EFDC
:10790A003CF08DEF3CF06681606D611FD8B0612B51
:10791A002EC0D9FF2FC0DAFFDECF3AF0DDCF3BF021
:10792A003AC0F6FF3BC0F7FF0800F550780AD8A422
:10793A00A1EF3CF0A3EF3CF0E9EF3CF030C0D9FFF7
:10794A0031C0DAFFDFCF32F0020EDE26DFCF33F0AE
:10795A00000EDD2232C0D9FF33C0DAFFDECF34F0A9
:10796A00DDCF35F0010E3A24326E000E3B20336E25
:10797A002EC0D9FF2FC0DAFF32C0DEFF33C0DDFFD1
:10798A00D3EF3CF02CC01CF02DC01DF034C01EF00B
:10799A0035C01FF06AEC3BF006EF3DF03AC0F6FF47
:1079AA003BC0F7FF0800F550326E336A3350000AC5
:1079BA00D8B4E2EF3CF0E9EF3CF03250780AD8B4A0
:1079CA00C7EF3CF0E9EF3CF02EC0D9FF2FC0DAFF39
:1079DA00DE2A000EDD2206EF3DF02EC0D9FF2FC0B1
:1079EA00DAFFDECFF6FFDDCFF7FF0800F550016EB4
:1079FA00026A2CC003F02DC004F076EC39F0E9EFEE
:107A0A003CF01200000E82B4010E0A6E000E066EE1
:107A1A0020EE0CF00150D9260250DA22DE04D8A456
:107A2A0019EF3DF01BEF3DF025EF3DF00A50D8A4C9
:107A3A0021EF3DF023EF3DF025EF3DF0010E066EFC
:107A4A0020EE0CF00150D9260250DA220AC0DFFFDC
:107A5A00000E076E20EE0AF00150D9260250DA22F3
:107A6A00DE04D8A43BEF3DF03DEF3DF046EF3DF09C
:107A7A0082B042EF3DF044EF3DF046EF3DF0010E9B
:107A8A00076E07C005F020EE0AF00150D926025011
:107A9A00DA2282B053EF3DF056EF3DF0010E57EF78
:107AAA003DF0000EDF6E000E086E20EE0BF0015066
:107ABA00D9260250DA22DE04D8A466EF3DF068EF38
:107ACA003DF071EF3DF082B26DEF3DF06FEF3DF0AA
:107ADA0071EF3DF0010E086E08C009F020EE0BF0C0
:107AEA000150D9260250DA2282B27EEF3DF081EFB0
:107AFA003DF0010E82EF3DF0000EDF6E94EF3EF096
:107B0A0020EE02F00150D9260250DA222D0EDE5C58
:107B1A00010EDE58D8A094EF3DF096EF3DF0C1EF8C
:107B2A003EF020EE01F00150D9260250DA22020E70
:107B3A00DF6EC1EF3EF00A50D8A4A6EF3DF0A8EFE1
:107B4A003DF0B2EF3DF020EE01F00150D92602508F
:107B5A00DA22060EDF6EC1EF3EF00550D8B4B8EF58
:107B6A003DF0BAEF3DF0C1EF3EF020EE01F00150DA
:107B7A00D9260250DA22030EDF6E20EE04F00150FD
:107B8A00D9260250DA22DE6ADD6AC1EF3EF00A50D7
:107B9A00D8A4D2EF3DF0D4EF3DF0DEEF3DF020EE79
:107BAA0001F00150D9260250DA22050EDF6EC1EF2C
:107BBA003EF020EE04F00150D9260250DA22010EDE
:107BCA00DB5009E11E0EDE5CD8A0EEEF3DF0F0EFCF
:107BDA003DF0FAEF3DF020EE01F00150D9260250B7
:107BEA00DA22040EDF6EC1EF3EF00950D8B400EF7E
:107BFA003EF002EF3EF0C1EF3EF020EE01F0015000
:107C0A00D9260250DA22050EDF6EC1EF3EF00A5085
:107C1A00D8A412EF3EF014EF3EF01EEF3EF020EE35
:107C2A0001F00150D9260250DA22050EDF6EC1EFAB
:107C3A003EF00950D8B424EF3EF026EF3EF0C1EFF3
:107C4A003EF020EE01F00150D9260250DA22050E4C
:107C5A00DF6EC1EF3EF020EE02F00150D92602504D
:107C6A00DA22010EDB5009E1330EDE5CD8A040EFC8
:107C7A003EF042EF3EF0C1EF3EF00A50D8A448EF82
:107C8A003EF04AEF3EF054EF3EF020EE01F0015094
:107C9A00D9260250DA22060EDF6EC1EF3EF020EE40
:107CAA0001F00150D9260250DA22020EDF6EC1EF2E
:107CBA003EF00A04D8A464EF3EF066EF3EF0C1EF4E
:107CCA003EF020EE01F00150D9260250DA22020ECF
:107CDA00DF6EC1EF3EF020EE02F00150D9260250CD
:107CEA00DA22E90EDE5C030EDE58D8A07FEF3EF002
:107CFA0081EF3EF0C1EF3EF020EE01F00150D926AF
:107D0A000250DA22020EDF6EC1EF3EF020EE01F0E1
:107D1A000150D9260250DA22DF6AC1EF3EF001C0D3
:107D2A00D9FF02C0DAFFDF50036E046A0450000A6A
:107D3A00D8B4A2EF3EF08BEF3EF00350010AD8B45C
:107D4A0085EF3DF0030AD8B4A0EF3DF0010AD8B49C
:107D5A00CCEF3DF0070AD8B40CEF3EF0010AD8B4D4
:107D6A0030EF3EF0030AD8B45EEF3EF0010AD8B411
:107D7A0070EF3EF08BEF3EF020EE01F00150D92675
:107D8A000250DA2201C0E1FF02C0E2FFDE50E6182B
:107D9A00D8B4D2EF3EF0D4EF3EF0E8EF3EF020EE5A
:107DAA0001F00150D9260250DA2201C0E1FF02C0D7
:107DBA00E2FFDFCFE7FF20EE02F00150D9260250A2
:107DCA00DA22DE6ADD6A120000486F72613A2532F1
:107DDA00783A2532783A2532782020202041420A02
:107DEA00446174653A2532782F2532782F25327806
:107DFA0000486F72613A2532783A2532783A25324C
:107E0A0078202020200A446174653A2532782F258B
:107E1A0032782F253078005374617475733A20468E
:107E2A00616C68612020202020202020005374618A
:107E3A007475733A2050726F6E746F202020202060
:107E4A002020005374617475733A20506172616E18
:107E5A00646F202020202020005374617475733AC7
:107E6A002050617274696E646F20202020200053B4
:107E7A0074617475733A20426C6F71756561646FD1
:107E8A0020202020005374617475733A2046756E61
:107E9A0063696F6E616E646F20200053746174753C
:107EAA00733A20446573636F6E68656369646F2013
:107EBA00005374617475733A20496E696369616C21
:107ECA00697A616E646F00416A75737461722044E5
:107EDA00696120202020202020202000536169721F
:107EEA0020416A75737465202020202020202020DC
:107EFA0000416A757374617220416E6F20202020E0
:107F0A00202020202000416A7573746172204D651B
:107F1A007320202020202020202000416A757374BD
:107F2A00617220486F7261202020202020202000CA
:107F3A00416A7573746172204D696E75746F73202E
:107F4A002020202000416A75737461722044617494
:107F5A0061206520486F72612000456E67656E6812
:107F6A006172696120456C65747269636100576565
:107F7A006C696E67746F6E20436F72726569610017
:107F8A005365712E456C6574722E4C696D70657AF5
:107F9A00610050726F6A65746F20496E746567720A
:107FAA0061646F0053656A612042656D2056696E8F
:107FBA00646F210046696C74726F206465204D619C
:107FCA006E676100456D20456C6574726963612056
:107FDA004949005241203A2031303633363737008A
:107FEA0046696C74726F204D616E676100554E4927
:057FFA005542450000A6
:020000040030CA
:0E0000000009191EFF0181FF0FC00FE00F4025
:00000001FF
