:04000000A9EF39F03B
:10733E00010E2EEC3AF0000E026E030E016E09ECF9
:10734E003AF0120000EE18F00F0EEE6AE806FDE1BC
:10735E00000EF86E00014EEF3BF0000E936E000E25
:10736E00026E0F0E016E09EC3AF0020E2EEC3AF0A0
:10737E00280E2EEC3AF0010E2EEC3AF00C0E2EECFE
:10738E003AF0060E2EEC3AF01200D8EF39F009C0A2
:10739E00F6FF0AC0F7FF0800F55054EC3AF0094A20
:1073AE000A2A09C0F6FF0AC0F7FF0800F5500009C7
:1073BE00D8A4E4EF39F0E6EF39F0CEEF39F0120051
:1073CE00000E0A6E000E096EFDEF39F08C80010E74
:1073DE00026EF40E016E09EC3AF08C90010E026E04
:1073EE00F40E016E09EC3AF0094A0A2A0750095CBC
:1073FE0008500A58D8A006EF3AF008EF3AF0EDEF31
:10740E0039F01200000E046E000E036E22EF3AF0F9
:10741E00000E066E000E056E054A062A065009E19C
:10742E00A50E055CD8A01EEF3AF020EF3AF013EF50
:10743E003AF0034A042A0150035C02500458D8A0C3
:10744E002BEF3AF02DEF3AF00FEF3AF01200086EF4
:10745E0008C007F0F00E07168A500F0B07108A6E41
:10746E008A908A8200F08A92000E026E010E016EE0
:10747E0009EC3AF008C007F0073AF00E07168A50EA
:10748E000F0B07108A6E8A8200F08A92000E026E2F
:10749E00030E016E09EC3AF01200086E08C007F0F8
:1074AE00F00E07168A500F0B07108A6E8A808A829A
:1074BE0000F08A92000E026E010E016E09EC3AF097
:1074CE0008C007F0073AF00E07168A500F0B071088
:1074DE008A6E8A8200F08A92000E026E030E016E90
:1074EE0009EC3AF0120014C001F015C002F05FEC86
:1074FE003DF014C001F015C002F0ACEC3BF014C02E
:10750E0010F015C011F026EC3CF020EE02F01450F5
:10751E00D9261550DA22DE2A000EDD2220EE06F0E4
:10752E001450D9261550DA22DE2A000EDD2220EE66
:10753E0006F01450D9261550DA22010EDB5009E15F
:10754E00320EDE5CD8A0AEEF3AF0B0EF3AF0B9EF03
:10755E003AF020EE06F01450D9261550DA22DE6AE3
:10756E00DD6A8C7212000E6E0E04D8A4C1EF3AF0D2
:10757E00C3EF3AF0CAEF3AF00B500F0B80090F6EC3
:10758E000F502EEC3AF0020E0E18D8A4D1EF3AF0AE
:10759E00D3EF3AF0DAEF3AF00B500F0BC0090F6E43
:1075AE000F502EEC3AF0030E0E18D8A4E1EF3AF07D
:1075BE00E3EF3AF0EAEF3AF00B500F0B94090F6E2F
:1075CE000F502EEC3AF0040E0E18D8A4F1EF3AF04C
:1075DE00F3EF3AF0FAEF3AF00B500F0BD4090F6EAF
:1075EE000F502EEC3AF00CC009F00DC00AF0CCECA6
:1075FE0039F0120001C0D9FF02C0DAFF010EDF6EB2
:10760E0020EE01F00150D9260250DA22010EDF6E73
:10761E0020EE02F00150D9260250DA22DE6ADD6A2F
:10762E0020EE04F00150D9260250DA22DE6ADD6A1D
:10763E0020EE06F00150D9260250DA22DE6ADD6A0B
:10764E0020EE08F00150D9260250DA22DE6ADD6AF9
:10765E0020EE0AF00150D9260250DA22010EDF6E1A
:10766E0020EE0BF00150D9260250DA22010EDF6E09
:10767E0020EE0CF00150D9260250DA22010EDF6EF8
:10768E008C988C9A8C9C8C968C948C921200720E88
:10769E00D36EB4EC39F0000E956E9468000E826EC7
:1076AE008C988C9A8C9C1A0E016E000E026E01EC58
:1076BE003BF0000E086E020E076EE7EC39F0000E7E
:1076CE00116E010E106EBFEC3CF00B0E026EB80E7A
:1076DE00016E09EC3AF0000E116E020E106EBFEC48
:1076EE003CF00B0E026EB80E016E09EC3AF0000E75
:1076FE00116E030E106EBFEC3CF00B0E026EB80E48
:10770E00016E09EC3AF0000E116E040E106EBFEC15
:10771E003CF0000E086E010E076EE7EC39F00B0E12
:10772E00026EB80E016E09EC3AF01A0E146E000ECF
:10773E00156E7AEC3AF0000E026E0A0E016E09EC2E
:10774E003AF09CEF3BF000EF00F0F4EF3BF08C983A
:10775E008C9A8C9C8C9625EF3CF08C888C8C8C9A19
:10776E008C9620EE02F00150D9260250DA22010E3C
:10777E00DB5009E1640EDE5CD8A0C8EF3BF0CAEF27
:10778E003BF025EF3CF020EE02F00150D9260250DE
:10779E00DA22DE6ADD6A20EE04F00150D9260250AC
:1077AE00DA22DE2A000EDD2225EF3CF08C888C8A50
:1077BE008C9C8C9625EF3CF08C988C9A8C9C25EFAB
:1077CE003CF08C988C9A8C9C8C8625EF3CF08C9897
:1077DE008C9A8C9C8C8425EF3CF001C0D9FF02C0A2
:1077EE00DAFFDF50036E046A0450000AD8B402EFC9
:1077FE003CF025EF3CF00350000AD8B425EF3CF0E6
:10780E00010AD8B4AEEF3BF0030AD8B4AEEF3BF0AA
:10781E00010AD8B4B4EF3BF0070AD8B4DDEF3BF061
:10782E00010AD8B4E3EF3BF0030AD8B4E8EF3BF01B
:10783E00010AD8B4EEEF3BF025EF3CF01200184AE7
:10784E00192A195009E10A0E185CD8A031EF3CF044
:10785E0033EF3CF0BEEF3CF0000E196E000E186ECA
:10786E0091EF3CF0010E0B6E1D0E0C6E7F0E0D6E29
:10787E00020EBAEC3AF0BEEF3CF0010E0B6E990E12
:10788E000C6E7E0E0D6E020EBAEC3AF0BEEF3CF0B0
:10789E00010E0B6EC50E0C6E7E0E0D6E020EBAEC48
:1078AE003AF0BEEF3CF0010E0B6EF10E0C6E7E0E3A
:1078BE000D6E020EBAEC3AF0BEEF3CF0010E0B6EFE
:1078CE00AF0E0C6E7E0E0D6E020EBAEC3AF0BEEFDF
:1078DE003CF0010E0B6EDB0E0C6E7E0E0D6E020E6C
:1078EE00BAEC3AF0BEEF3CF0010E0B6E830E0C6E4E
:1078FE007E0E0D6E020EBAEC3AF0BEEF3CF0010EAB
:10790E000B6E070E0C6E7F0E0D6E020EBAEC3AF079
:10791E00BEEF3CF010C0D9FF11C0DAFFDF50126E7F
:10792E00136A1350000AD8B49FEF3CF086EF3CF078
:10793E001250010AD8B439EF3CF0030AD8B444EF20
:10794E003CF0010AD8B44FEF3CF0070AD8B45AEF16
:10795E003CF0010AD8B465EF3CF0030AD8B470EFDE
:10796E003CF0010AD8B47BEF3CF086EF3CF01200FD
:10797E009FEC39F040EF3DF0070E0B6EF70E0C6EDC
:10798E007F0E0D6E010EBAEC3AF0000E0B6E330E3A
:10799E000C6E7F0E0D6E020EBAEC3AF0020E0B6EEE
:1079AE007F0E0C6E7F0E0D6E030EBAEC3AF0030EC8
:1079BE000B6ED30E0C6E7F0E0D6E040EBAEC3AF0FB
:1079CE005EEF3DF0020E0B6E5B0E0C6E7F0E0D6EBB
:1079DE00010EBAEC3AF0040E0B6EE20E0C6E7F0E38
:1079EE000D6E020EBAEC3AF0010E0B6E6D0E0C6EB1
:1079FE007F0E0D6E030EBAEC3AF0030E0B6EC30E35
:107A0E000C6E7F0E0D6E040EBAEC3AF05EEF3DF08A
:107A1E00020E0B6EB30E0C6E7F0E0D6E010EBAECD7
:107A2E003AF05EEF3DF0010E0B6E470E0C6E7F0EC0
:107A3E000D6E010EBAEC3AF0010E0B6EEF0E0C6EDF
:107A4E007F0E0D6E020EBAEC3AF0010E0B6EA20E08
:107A5E000C6E7F0E0D6E030EBAEC3AF0010E0B6E2D
:107A6E00910E0C6E7F0E0D6E040EBAEC3AF05EEFB8
:107A7E003DF010C012F011C013F01350000AD8B42C
:107A8E004BEF3DF05EEF3DF01250010AD8B4C3EF5C
:107A9E003CF0030AD8B4E9EF3CF0010AD8B40FEF7A
:107AAE003DF0070AD8B41AEF3DF05EEF3DF012003C
:107ABE00000E82B4010E0A6E000E066E20EE0CF061
:107ACE000150D9260250DA22DE04D8A471EF3DF01F
:107ADE0073EF3DF07DEF3DF00A50D8A479EF3DF005
:107AEE007BEF3DF07DEF3DF0010E066E20EE0CF0CB
:107AFE000150D9260250DA220AC0DFFF000E076EAF
:107B0E0020EE0AF00150D9260250DA22DE04D8A463
:107B1E0093EF3DF095EF3DF09EEF3DF082B09AEF82
:107B2E003DF09CEF3DF09EEF3DF0010E076E07C05D
:107B3E0005F020EE0AF00150D9260250DA2282B06A
:107B4E00ABEF3DF0AEEF3DF0010EAFEF3DF0000EAE
:107B5E00DF6E000E086E20EE0BF00150D92602509B
:107B6E00DA22DE04D8A4BEEF3DF0C0EF3DF0C9EF3F
:107B7E003DF082B2C5EF3DF0C7EF3DF0C9EF3DF0ED
:107B8E00010E086E08C009F020EE0BF00150D92648
:107B9E000250DA2282B2D6EF3DF0D9EF3DF0010E5F
:107BAE00DAEF3DF0000EDF6EECEF3EF020EE02F06D
:107BBE000150D9260250DA222D0EDE5C010EDE585F
:107BCE00D8A0ECEF3DF0EEEF3DF019EF3FF020EED8
:107BDE0001F00150D9260250DA22020EDF6E19EFA3
:107BEE003FF00A50D8A4FEEF3DF000EF3EF00AEF52
:107BFE003EF020EE01F00150D9260250DA22060E98
:107C0E00DF6E19EF3FF00550D8B410EF3EF012EFD3
:107C1E003EF019EF3FF020EE01F00150D926025050
:107C2E00DA22030EDF6E20EE04F00150D926025048
:107C3E00DA22DE6ADD6A19EF3FF00A50D8A42AEF85
:107C4E003EF02CEF3EF036EF3EF020EE01F001500C
:107C5E00D9260250DA22050EDF6E19EF3FF020EE24
:107C6E0004F00150D9260250DA22010EDB5009E150
:107C7E001E0EDE5CD8A046EF3EF048EF3EF052EF0F
:107C8E003EF020EE01F00150D9260250DA22040E09
:107C9E00DF6E19EF3FF00950D8B458EF3EF05AEFAF
:107CAE003EF019EF3FF020EE01F00150D9260250C0
:107CBE00DA22050EDF6E19EF3FF00A50D8A46AEFF4
:107CCE003EF06CEF3EF076EF3EF020EE01F001500C
:107CDE00D9260250DA22050EDF6E19EF3FF0095059
:107CEE00D8B47CEF3EF07EEF3EF019EF3FF020EE81
:107CFE0001F00150D9260250DA22050EDF6E19EF7F
:107D0E003FF020EE02F00150D9260250DA22010E89
:107D1E00DB5009E1330EDE5CD8A098EF3EF09AEF0F
:107D2E003EF019EF3FF00A50D8A4A0EF3EF0A2EFBC
:107D3E003EF0ACEF3EF020EE01F00150D92602509D
:107D4E00DA22060EDF6E19EF3FF020EE01F0015041
:107D5E00D9260250DA22020EDF6E19EF3FF00A0426
:107D6E00D8A4BCEF3EF0BEEF3EF019EF3FF020EE90
:107D7E0001F00150D9260250DA22020EDF6E19EF01
:107D8E003FF020EE02F00150D9260250DA22E90E21
:107D9E00DE5C030EDE58D8A0D7EF3EF0D9EF3EF0F2
:107DAE0019EF3FF020EE01F00150D9260250DA22F1
:107DBE00020EDF6E19EF3FF020EE01F00150D926D2
:107DCE000250DA22DF6A19EF3FF001C0D9FF02C07C
:107DDE00DAFFDF50036E046A0450000AD8B4FAEFDB
:107DEE003EF0E3EF3EF00350010AD8B4DDEF3DF074
:107DFE00030AD8B4F8EF3DF0010AD8B424EF3EF0F0
:107E0E00070AD8B464EF3EF0010AD8B488EF3EF00A
:107E1E00030AD8B4B6EF3EF0010AD8B4C8EF3EF06C
:107E2E00E3EF3EF020EE01F00150D9260250DA22A7
:107E3E0001C0E1FF02C0E2FFDE50E618D8B42AEF1F
:107E4E003FF02CEF3FF040EF3FF020EE01F00150FD
:107E5E00D9260250DA2201C0E1FF02C0E2FFDFCFD5
:107E6E00E7FF20EE02F00150D9260250DA22DE6A38
:107E7E00DD6A1200005374617475733A2046616CAA
:107E8E00686120202020202020200053746174750A
:107E9E00733A2050726F6E746F20202020202020A5
:107EAE00005374617475733A20506172616E646F21
:107EBE00202020202020005374617475733A2050C6
:107ECE00617274696E646F202020202000537461EB
:107EDE007475733A20426C6F71756561646F202002
:107EEE002020005374617475733A2046756E636971
:107EFE006F6E616E646F2020005374617475733AF7
:107F0E0020446573636F6E68656369646F20005308
:107F1E0074617475733A20496E696369616C697A2C
:107F2E00616E646F00456E67656E6861726961208F
:107F3E00456C6574726963610052656C65204573AA
:107F4E0074722D547269616E67756C6F0057656C33
:107F5E00696E67746F6E20436F727265696100534C
:107F6E0065712E456C6574722E4C696D70657A6103
:107F7E000050726F6A65746F20496E746567726126
:107F8E00646F0054656D702E204D6163616C3A23F1
:107F9E00232C230054656D702E204D6F746F723A32
:107FAE0023232C230053656A612042656D20566998
:107FBE006E646F210046696C74726F206465204D8B
:107FCE00616E676100456D20456C65747269636111
:107FDE00204949005241203A203130363336373766
:107FEE00005374617475733A00554E4955424500FD
:017FFE000082
:020000040030CA
:0E0000000009191EFF8181FF0FC00FE00F40A5
:00000001FF
