:0400000002EF37F0E4
:026A4C00120036
:106A4F000506303132333435369EA631EF35F0330B
:106A5F00EF35F02CEF35F09E961200010E69EC36F3
:106A6F00F0000E026E030E016E44EC36F01200C5FC
:106A7F009AC588C5B846EF35F048EF35F041EF3588
:106A8F00F01200C58AC588C5B850EF35F052EF3502
:106A9F00F04BEF35F01200C584C5B459EF35F05BFC
:106AAF00EF35F054EF35F0C75012009380938250BA
:106ABF000EC76E280EC66E000EC56E130EC86E9DE5
:106ACF00869E961200016E01C0C9FF2CEC35F0C5F1
:106ADF00AC74EF35F076EF35F079EF35F0010E7AD3
:106AEF00EF35F0020E1200026EC582C5B282EF358D
:106AFF00F084EF35F07DEF35F09E96C7B68AEF350F
:106B0F00F08CEF35F08EEF35F091EF35F002506AE3
:106B1F00EC35F01200026EC580C5B099EF35F09BD1
:106B2F00EF35F094EF35F09E96C7B6A1EF35F0A391
:106B3F00EF35F0A5EF35F0A8EF35F002506AEC35E0
:106B4F00F01200000E936E000E026E0F0E016E44D7
:106B5F00EC36F0020E69EC36F0280E69EC36F001D7
:106B6F000E69EC36F00C0E69EC36F0060E69EC3659
:106B7F00F01200016EC586C7A0C8EF35F0CAEF3519
:106B8F00F0C3EF35F0C9CF02F00150D8A4D2EF35E2
:106B9F00F0D4EF35F0D8EF35F03FEC35F0DAEF35D4
:106BAF00F049EC35F02CEC35F002501200000E0AD3
:106BBF006E000E096EF4EF35F08C80010E026EF44C
:106BCF000E016E44EC36F08C90010E026EF40E0145
:106BDF006E44EC36F0094A0A2A0750095C08500A3D
:106BEF0058D8A0FDEF35F0FFEF35F0E4EF35F01298
:106BFF0000000E106E000E0F6E11EF36F00EC0017A
:106C0F00F0026A0CC003F00DC004F05BEC39F00F1A
:106C1F004A102A0F500A24D96E10500B20DA6EDF5B
:106C2F00500E6E0E50D8A41FEF36F021EF36F0063F
:106C3F00EF36F01200046ED00E92EC35F004506A6D
:106C4F00EC35F0D10E7BEC35F0000EC1EC35F003D6
:106C5F006E03500001706F716B000EC1EC35F003C5
:106C6F006E035000016E6F6F6B010EC1EC35F003B8
:106C7F006E03505C6E5D6A1200000E046E000E0310
:106C8F006E5DEF36F0000E066E000E056E054A06BD
:106C9F002A065009E1A50E055CD8A059EF36F05B26
:106CAF00EF36F04EEF36F0034A042A0150035C0230
:106CBF00500458D8A066EF36F068EF36F04AEF363A
:106CCF00F01200086E08C007F0F00E07168A500F7A
:106CDF000B07108A6E8A948A8600F08A96000E023D
:106CEF006E010E016E44EC36F008C007F0073AF063
:106CFF000E07168A500F0B07108A6E8A8600F08ACD
:106D0F0096000E026E030E016E44EC36F012000870
:106D1F006E08C007F0F00E07168A500F0B07108A87
:106D2F006E8A848A8600F08A96000E026E010E012A
:106D3F006E44EC36F008C007F0073AF00E07168ADB
:106D4F00500F0B07108A6E8A8600F08A96000E028B
:106D5F006E030E016E44EC36F01200460E486E00C4
:106D6F000E496E42C04AF043C04BF0000E4E6E000B
:106D7F000E4D6E000E556E000E546E4A0E3A6E009A
:106D8F000E3B6E44C03CF045C03DF0480E3E6E00D9
:106D9F000E3F6EDBEC36F04D504224D96E4E504311
:106DAF0020DA6EDF6A12003CC040F03DC041F0EFC8
:106DBF00EF36F03AC02CF03BC02DF0400E2E6E0097
:106DCF000E2F6E3EC030F03FC031F072EC3BF04002
:106DDF00C0F6FF41C0F7FF0800F5500009D8A4FB2B
:106DEF00EF36F0FDEF36F0E1EF36F0000E3B6E00C0
:106DFF000E3A6E1200510EF66E6A0EF76E000EF816
:106E0F006E00EEDCF010EE07F00900F5CFEEFFE5B7
:106E1F0050E150FAE14F0EF66E6A0EF76E000EF863
:106E2F006E0900F5CF5EF00900F5CF5FF000EE6060
:106E3F00F07C0EEE6AE806FDE15D6A5C6A000EF812
:106E4F006E0001F8EF38F0046ED00E92EC35F004BE
:106E5F00506AEC35F0D10E7BEC35F0000EC1EC35FD
:106E6F00F0036E035000016C6F6D6B000EC1EC35BB
:106E7F00F0036E035000016A6F6B6B000EC1EC35AF
:106E8F00F0036E03500001686F696B010EC1EC35A2
:106E9F00F0036E03500001666F676B53EC35F01211
:106EAF00006EEF37F009C0F6FF0AC0F7FFF86A0768
:106EBF000EF76403D00800F55005D0F6CFE1FFF7C9
:106ECF00CFE2FFE7508FEC36F0094A0A2A09C0F6E5
:106EDF00FF0AC0F7FFF86A070EF76403D00800F542
:106EEF005005D0F6CFE1FFF7CFE2FFE7500009D80A
:106EFF00A484EF37F086EF37F05AEF37F012001611
:106F0F00BE8CEF37F08EEF37F094EF37F015C01AD5
:106F1F00F016C01BF098EF37F0000E1B6E000E1A24
:106F2F006E000E196E000E186EAAEF37F0000E02EB
:106F3F006E200E016E11C003F012C004F05BEC392D
:106F4F00F0184A192A1A50185C1950800A176E1B2C
:106F5F0050800A1758D8A0B7EF37F0B9EF37F09E27
:106F6F00EF37F013C00AF014C00BF011C00CF01281
:106F7F00C00DF000EC36F0120014C001F015C00285
:106F8F00F05DEC3DF014C001F015C002F095EC3847
:106F9F00F014C010F015C011F0D8EC3AF020EE024A
:106FAF00F01450D9261550DA22DE2A000EDD2220E9
:106FBF00EE06F01450D9261550DA22DE2A000EDD27
:106FCF002220EE06F01450D9261550DA22010EDBDE
:106FDF005009E1320EDE5CD8A0F8EF37F0FAEF3748
:106FEF00F003EF38F020EE06F01450D9261550DAE2
:106FFF0022DE6ADD6A8C7212000E6E0E04D8A40BAC
:10700F00EF38F00DEF38F014EF38F00B500F0B8016
:10701F00090F6E0F5069EC36F0020E0E18D8A41B34
:10702F00EF38F01DEF38F024EF38F00B500F0BC096
:10703F00090F6E0F5069EC36F0030E0E18D8A42B03
:10704F00EF38F02DEF38F034EF38F00B500F0B9482
:10705F00090F6E0F5069EC36F0040E0E18D8A43BD2
:10706F00EF38F03DEF38F044EF38F00B500F0BD402
:10707F00090F6E0F5069EC36F00CC009F00DC00A05
:10708F00F058EC37F0120001C0D9FF02C0DAFF014F
:10709F000EDF6E20EE01F00150D9260250DA2201E8
:1070AF000EDF6E20EE02F00150D9260250DA22DEFA
:1070BF006ADD6A20EE04F00150D9260250DA22DE92
:1070CF006ADD6A20EE06F00150D9260250DA22DE80
:1070DF006ADD6A20EE08F00150D9260250DA22DE6E
:1070EF006ADD6A20EE0AF00150D9260250DA220139
:1070FF000EDF6E20EE0BF00150D9260250DA22017E
:10710F000EDF6E20EE0CF00150D9260250DA22016C
:10711F000EDF6E8C968C948C921200C6EF38F08C2A
:10712F0096F7EF38F08C9620EE02F00150D9260238
:10713F0050DA22010EDB5009E1640EDE5CD8A0AB01
:10714F00EF38F0ADEF38F0F7EF38F020EE02F00146
:10715F0050D9260250DA22DE6ADD6A20EE04F001F1
:10716F0050D9260250DA22DE2A000EDD22F7EF3840
:10717F00F08C86F7EF38F08C84F7EF38F001C0D938
:10718F00FF02C0DAFFDF50036E046A0450000AD812
:10719F00B4D4EF38F0F7EF38F00350000AD8B4F753
:1071AF00EF38F0010AD8B497EF38F0030AD8B49744
:1071BF00EF38F0010AD8B49AEF38F0070AD8B4972D
:1071CF00EF38F0010AD8B4F7EF38F0030AD8B4C09B
:1071DF00EF38F0010AD8B4C3EF38F0F7EF38F012F8
:1071EF0000720ED36EA9EC35F05DEC35F0000E9504
:1071FF006E000E946E000E826E930E016E000E02E4
:10720F006E4BEC38F0000E086E020E076EDEEC359A
:10721F00F0000E596E010E586EC0EC39F00B0E02D5
:10722F006EB80E016E44EC36F0000E596E020E5819
:10723F006EC0EC39F00B0E026EB80E016E44EC36D8
:10724F00F0000E596E030E586EC0EC39F00B0E02A3
:10725F006EB80E016E44EC36F0000E596E040E58E7
:10726F006EC0EC39F0000E086E010E076EDEEC35C5
:10727F00F00B0E026EB80E016E44EC36F0000E22CB
:10728F00EC36F053EC35F0930E146E000E156EC401
:10729F00EC37F0000E026E0A0E016E44EC36F0462B
:1072AF00EF39F000EF00F003500410D8B462EF395B
:1072BF00F064EF39F06DEF39F003500410D8A46B80
:1072CF00EF39F06DEF39F072EF39F0015026EC35F0
:1072DF00F0BFEF39F020EE0AF00350D9260450DA50
:1072EF0022DE50DE10D8B47FEF39F081EF39F09CF9
:1072FF00EF39F020EE0AF00350D9260450DA2210AD
:10730F00EE03F00350E1260450E222DE50E65CE685
:10731F0050800A096EDE50800A0958D8B09AEF39AA
:10732F00F09CEF39F0BFEF39F020EE03F00350D9A6
:10733F00260450DA22DECF05F0DDCF06F003C0D9E8
:10734F00FF04C0DAFFDECF07F0DDCF08F0055007EE
:10735F0024D96E06500820DA6E01C0DFFF20EE033D
:10736F00F00350D9260450DA22DE2A000EDD221255
:10737F000035EC35F02AEF3AF0070E0B6ED20E0CFB
:10738F006E7F0E0D6E010E04EC38F0000E0B6E2F9B
:10739F000E0C6E7F0E0D6E020E04EC38F0020E0B0B
:1073AF006E670E0C6E7F0E0D6E030E04EC38F0033D
:1073BF000E0B6E990E0C6E7F0E0D6E040E04EC38D4
:1073CF00F048EF3AF0020E0B6E430E0C6E7F0E0D6F
:1073DF006E010E04EC38F0040E0B6EA80E0C6E7FCF
:1073EF000E0D6E020E04EC38F0010E0B6E550E0CE6
:1073FF006E7F0E0D6E030E04EC38F0030E0B6E89CC
:10740F000E0C6E7F0E0D6E040E04EC38F048EF3A42
:10741F00F0020E0B6E790E0C6E7F0E0D6E040E04C5
:10742F00EC38F00EEC3CF048EF3AF00EEC3CF0028A
:10743F000E0B6EB50E0C6E7F0E0D6E040E04EC3837
:10744F00F048EF3AF058C05AF059C05BF05B50006B
:10745F000AD8B435EF3AF048EF3AF05A50010AD84B
:10746F00B4C4EF39F0030AD8B4EAEF39F0010AD8FF
:10747F00B410EF3AF0070AD8B41DEF3AF048EF3ADC
:10748F00F01200000163BF51EF3AF04FEF3AF0579F
:10749F00EF3AF0000E286E010E276E5BEF3AF062A6
:1074AF00C027F063C028F060C023F061C024F00053
:1074BF000E2A6E1F0E296E000E926FA3EF3AF0295F
:1074CF0006D8A02A061E500F0B2B6E090E2B6473C5
:1074DF00EF3AF075EF3AF07DEF3AF0570E2B242587
:1074EF006E266A000E262283EF3AF0300E2B2425EB
:1074FF006E266A000E262225C02BF0730E2924D982
:10750F006E000E2A20DA6E2BC0DFFF2706D8A028C8
:10751F00062306D8A024061EC020F01FC021F004A9
:10752F000E226ED89021322032222E99EF3AF0207F
:10753F00C01EF021C01FF02ABEAFEF3AF02A50094B
:10754F00E1020E295CD8A0AFEF3AF0B1EF3AF0C7E5
:10755F00EF3AF01E501F10D8A4B8EF3AF0BAEF3A36
:10756F00F067EF3AF028BEC7EF3AF0285006E12750
:10757F0004D8B0C5EF3AF0C7EF3AF067EF3AF01C16
:10758F00C011F01DC012F0730E2924136E000E2AC5
:10759F0020146E23C015F024C016F087EC37F012BC
:1075AF00000001644B652B655109E10A0E645DD83B
:1075BF00A0E4EF3AF0E6EF3AF071EF3BF0000E6522
:1075CF006F000E646F44EF3BF0010E0B6E190E0C43
:1075DF006E7F0E0D6E020E04EC38F071EF3BF00172
:1075EF000E0B6E950E0C6E7E0E0D6E020E04EC38A9
:1075FF00F071EF3BF0010E0B6EC10E0C6E7E0E0D97
:10760F006E020E04EC38F071EF3BF0010E0B6EEDD5
:10761F000E0C6E7E0E0D6E020E04EC38F071EF3B09
:10762F00F0010E0B6EAB0E0C6E7E0E0D6E020E0485
:10763F00EC38F071EF3BF0010E0B6ED70E0C6E7E37
:10764F000E0D6E020E04EC38F071EF3BF0010E0BD5
:10765F006E7F0E0C6E7E0E0D6E020E04EC38F07106
:10766F00EF3BF0010E0B6E030E0C6E7F0E0D6E02D4
:10767F000E04EC38F071EF3BF010C0D9FF11C0DAF7
:10768F00FFDF50126E136A1350000AD8B452EF3B4B
:10769F00F039EF3BF01250010AD8B4ECEF3AF00397
:1076AF000AD8B4F7EF3AF0010AD8B402EF3BF0076B
:1076BF000AD8B40DEF3BF0010AD8B418EF3BF00332
:1076CF000AD8B423EF3BF0010AD8B42EEF3BF039C0
:1076DF00EF3BF012002EC0D9FF2FC0DAFFDECFF63E
:1076EF00FFDDCFF7FF0800F550250AD8A482EF3B46
:1076FF00F084EF3BF0F9EF3BF02EC0D9FF2FC0DA4B
:10770F00FFDE2A000EDD22000E0001616F000E6009
:10771F006F60C072F0626963692EC0D9FF2FC0DA43
:10772F00FFDECF38F0DDCF39F038C0F6FF39C0F7C4
:10773F00FF0800F550780AD8A4A8EF3BF0AAEF3B5A
:10774F00F0F0EF3BF030C0D9FF31C0DAFFDFCF32BE
:10775F00F0020EDE26DFCF33F0000EDD2232C0D96D
:10776F00FF33C0DAFFDECF34F0DDCF35F0010E3856
:10777F0024326E000E3920336E2EC0D9FF2FC0DA9F
:10778F00FF32C0DEFF33C0DDFFDAEF3BF02CC01C51
:10779F00F02DC01DF034C01EF035C01FF049EC3A7B
:1077AF00F00DEF3CF038C0F6FF39C0F7FF0800F5D9
:1077BF0050326E336A3350000AD8B4E9EF3BF0F021
:1077CF00EF3BF03250780AD8B4CEEF3BF0F0EF3BFE
:1077DF00F02EC0D9FF2FC0DAFFDE2A000EDD220DFA
:1077EF00EF3CF02EC0D9FF2FC0DAFFDECFF6FFDD62
:1077FF00CFF7FF0800F550016E026A2CC003F02D81
:10780F00C004F05BEC39F0F0EF3BF012005CAC130E
:10781F00EF3CF015EF3CF075EF3CF05CAA1AEF3C33
:10782F00F01CEF3CF027EF3CF0110E0B6EFC0E0C32
:10783F006E7F0E0D6E010E04EC38F030EF3CF01140
:10784F000E0B6EF90E0C6E7F0E0D6E010E04EC38E2
:10785F00F01F0E5C145C6E5D6AD20E426E000E431A
:10786F006ED90E446E7F0E456E70C046F071C047E4
:10787F00F0B5EC36F0C80E426E000E436ECE0E44DD
:10788F006E7F0E456E6EC046F06FC047F0B5EC369A
:10789F00F0BE0E426E000E436ECA0E446E7F0E4552
:1078AF006E5CC046F05DC047F0B5EC36F0000E0BD5
:1078BF006EBE0E0C6E000E0D6E010E04EC38F0C88D
:1078CF000E096E000E0A6E58EC37F0D20E096E00DC
:1078DF000E0A6E58EC37F0AEEF3CF03F0E5C145CC6
:1078EF006E5D6AD20E426E000E436ED90E446E7FED
:1078FF000E456E70C046F071C047F0B5EC36F0C85B
:10790F000E426E000E436ECE0E446E7F0E456E6EAF
:10791F00C046F06FC047F0B5EC36F0BE0E426E00B9
:10792F000E436ECA0E446E7F0E456E5CC046F05D10
:10793F00C047F0B5EC36F0000E0B6EBE0E0C6E00AD
:10794F000E0D6E010E04EC38F067EF3CF0030E2BBA
:10795F00EC37F053EC35F0B40E426E000E436EC2AE
:10796F000E446E7F0E456E6AC046F06BC047F0B591
:10797F00EC36F0AA0E426E000E436EC60E446E7FBA
:10798F000E456E68C046F069C047F0B5EC36F0A002
:10799F000E426E000E436ED90E446E7F0E456E661C
:1079AF00C046F067C047F0B5EC36F0000E0B6EB472
:1079BF000E0C6E000E0D6E020E04EC38F0AA0E09BE
:1079CF006E000E0A6E58EC37F0A00E096E000E0A0C
:1079DF006E58EC37F02CEF3DF0F10E096E7F0E0A6A
:1079EF006E58EC37F05CEF3DF0E90E096E7F0E0A32
:1079FF006E58EC37F05CEF3DF0E50E096E7F0E0A26
:107A0F006E58EC37F05CEF3DF0DD0E096E7F0E0A1D
:107A1F006E58EC37F05CEF3DF0ED0E096E7F0E0AFD
:107A2F006E58EC37F05CEF3DF0F50E096E7F0E0AE5
:107A3F006E58EC37F05CEF3DF0E10E096E7F0E0AE9
:107A4F006E58EC37F05CEF3DF0DC0E00016C25D981
:107A5F006E000E6D21DA6EDF50566E576A5750006A
:107A6F000AD8B43DEF3DF05CEF3DF05650300AD8E8
:107A7F00B4F4EF3CF0010AD8B4FCEF3CF0030AD8A1
:107A8F00B404EF3DF0010AD8B40CEF3DF0070AD86B
:107A9F00B414EF3DF0010AD8B41CEF3DF0030AD83F
:107AAF00B424EF3DF05CEF3DF01200000E82B40104
:107ABF000E0A6E000E066E20EE0CF00150D9260253
:107ACF0050DA22DE04D8A46FEF3DF071EF3DF07B6A
:107ADF00EF3DF00A50D8A477EF3DF079EF3DF07B02
:107AEF00EF3DF0010E066E20EE0CF00150D926028C
:107AFF0050DA220AC0DFFF000E076E20EE0AF001F7
:107B0F0050D9260250DA22DE04D8A491EF3DF0932B
:107B1F00EF3DF09CEF3DF082B098EF3DF09AEF3DD6
:107B2F00F09CEF3DF0010E076E07C005F020EE0A46
:107B3F00F00150D9260250DA2282B0A9EF3DF0AC05
:107B4F00EF3DF0010EADEF3DF0000EDF6E000E08C1
:107B5F006E20EE0BF00150D9260250DA22DE04D847
:107B6F00A4BCEF3DF0BEEF3DF0C7EF3DF082B2C3D6
:107B7F00EF3DF0C5EF3DF0C7EF3DF0010E086E0889
:107B8F00C009F020EE0BF00150D9260250DA228204
:107B9F00B2D4EF3DF0D7EF3DF0010ED8EF3DF0003E
:107BAF000EDF6EEAEF3EF020EE02F00150D9260212
:107BBF0050DA222D0EDE5C010EDE58D8A0EAEF3D22
:107BCF00F0ECEF3DF017EF3FF020EE01F00150D950
:107BDF00260250DA22020EDF6E17EF3FF00A50D85E
:107BEF00A4FCEF3DF0FEEF3DF008EF3EF020EE017C
:107BFF00F00150D9260250DA22060EDF6E17EF3F42
:107C0F00F00550D8B40EEF3EF010EF3EF017EF3FF7
:107C1F00F020EE01F00150D9260250DA22030EDFD8
:107C2F006E20EE04F00150D9260250DA22DE6ADD12
:107C3F006A17EF3FF00A50D8A428EF3EF02AEF3E24
:107C4F00F034EF3EF020EE01F00150D9260250DA69
:107C5F0022050EDF6E17EF3FF020EE04F00150D932
:107C6F00260250DA22010EDB5009E11E0EDE5CD82F
:107C7F00A044EF3EF046EF3EF050EF3EF020EE0115
:107C8F00F00150D9260250DA22040EDF6E17EF3FB3
:107C9F00F00950D8B456EF3EF058EF3EF017EF3FD3
:107CAF00F020EE01F00150D9260250DA22050EDF46
:107CBF006E17EF3FF00A50D8A468EF3EF06AEF3E20
:107CCF00F074EF3EF020EE01F00150D9260250DAA9
:107CDF0022050EDF6E17EF3FF00950D8B47AEF3E52
:107CEF00F07CEF3EF017EF3FF020EE01F00150D99E
:107CFF00260250DA22050EDF6E17EF3FF020EE025C
:107D0F00F00150D9260250DA22010EDB5009E1337F
:107D1F000EDE5CD8A096EF3EF098EF3EF017EF3FE7
:107D2F00F00A50D8A49EEF3EF0A0EF3EF0AAEF3E2F
:107D3F00F020EE01F00150D9260250DA22060EDFB4
:107D4F006E17EF3FF020EE01F00150D9260250DA06
:107D5F0022020EDF6E17EF3FF00A04D8A4BAEF3EEF
:107D6F00F0BCEF3EF017EF3FF020EE01F00150D9DD
:107D7F00260250DA22020EDF6E17EF3FF020EE02DE
:107D8F00F00150D9260250DA22E90EDE5C030EDE36
:107D9F0058D8A0D5EF3EF0D7EF3EF017EF3FF020C9
:107DAF00EE01F00150D9260250DA22020EDF6E17D3
:107DBF00EF3FF020EE01F00150D9260250DA22DF1A
:107DCF006A17EF3FF001C0D9FF02C0DAFFDF50039F
:107DDF006E046A0450000AD8B4F8EF3EF0E1EF3EAB
:107DEF00F00350010AD8B4DBEF3DF0030AD8B4F624
:107DFF00EF3DF0010AD8B422EF3EF0070AD8B46283
:107E0F00EF3EF0010AD8B486EF3EF0030AD8B4B4BF
:107E1F00EF3EF0010AD8B4C6EF3EF0E1EF3EF0209E
:107E2F00EE01F00150D9260250DA2201C0E1FF0223
:107E3F00C0E2FFDE50E618D8B428EF3FF02AEF3F3C
:107E4F00F03EEF3FF020EE01F00150D9260250DA5C
:107E5F002201C0E1FF02C0E2FFDFCFE7FF20EE0209
:107E6F00F00150D9260250DA22DE6ADD6A120000D4
:107E7F005374617475733A2046616C6861202020D9
:107E8F002020202020005374617475733A205072A3
:107E9F006F6E746F20202020202020005374617497
:107EAF0075733A20506172616E646F20202020201C
:107EBF0020005374617475733A2050617274696E47
:107ECF00646F2020202020005374617475733A2052
:107EDF00426C6F71756561646F20202020005374B0
:107EEF00617475733A2046756E63696F6E616E6467
:107EFF006F2020005374617475733A204465736367
:107F0F006F6E68656369646F200053746174757375
:107F1F003A20496E696369616C697A616E646F00BA
:107F2F00456E67656E686172696120456C65747234
:107F3F006963610057656C696E67746F6E20436F7C
:107F4F007272656961005365712E456C6574722E8E
:107F5F004C696D70657A610050726F6A65746F203D
:107F6F00496E7465677261646F0053656A61204280
:107F7F00656D2056696E646F210046696C74726F6F
:107F8F00206465204D616E676100456D20456C650D
:107F9F007472696361204949005241203A2031309F
:107FAF0036333637370046696C74726F204D616E09
:107FBF0067610043616C2025782D0054696D3A2567
:107FCF00783A00554E4955424500257820005175A5
:107FDF00610053616200546563005365670051751A
:107FEF006900446F6D0053657800414D00504D009E
:017FFF000081
:020000040030CA
:0E0000000009191EFF0181FF0FC00FE00F4025
:00000001FF
