:0400000012EF33F0D8
:0C63E60012000E0EC16EBE0EC06E120042
:1063F300286E756C6C290001010101C582C5B205C7
:10640300EF32F007EF32F000EF32F01200C580C533
:10641300B00EEF32F010EF32F009EF32F01200C598
:1064230084C5B417EF32F019EF32F012EF32F012E5
:1064330000010E1CEC34F0000E026E030E016ED14F
:10644300EC33F01200C59AC588C5B82BEF32F02D96
:10645300EF32F026EF32F01200C58AC588C5B83591
:10646300EF32F037EF32F030EF32F01200938293D5
:1064730080800EC76E280EC66E000EC56E040EC851
:106483006E1200016E01C0C9FFC7B04BEF32F04D71
:10649300EF32F046EF32F0ADEC33F0120038EC326D
:1064A300F008EC32F0D00E43EC32F0070E43EC323E
:1064B300F0000E43EC32F011EC32F01200000E0843
:1064C3006E000E076E00016F51096EB0EC32F000E2
:1064D3000E086E010E076E6EC009F0B0EC32F012BA
:1064E3000001500302F3CF05F0F4CF06F00150048E
:1064F30002F350062602500302F350062605C0019C
:10650300F006C002F01200340E00016A5D030E6B48
:1065130059D8A08FEF32F091EF32F096EF32F001BD
:106523000E736F8C8499EF32F0000E736F8C94129C
:10653300009268000E956E000E946E000E806E0041
:106543000E826E000E836EC7EC32F050EC32F0F424
:10655300EC31F038EC32F08FEC34F0120008EC320E
:10656300F0A00E43EC32F0085043EC32F0075043F6
:10657300EC32F0095043EC32F011EC32F0000E0231
:106583006E0A0E016ED1EC33F01200000E936E0012
:106593000E026E0F0E016ED1EC33F0020E1CEC34C2
:1065A300F0280E1CEC34F0010E1CEC34F00C0E1C25
:1065B300EC34F0060E1CEC34F0120008EC32F0A0C0
:1065C3000E43EC32F0045043EC32F0035043EC3210
:1065D300F0FFEC31F0A10E43EC32F0000E2EEC3361
:1065E300F0056E11EC32F00550120001C003F00209
:1065F300C004F0FFEF32F0014A022A01C0D9FF02C2
:10660300C0DAFFDF50D8A409EF33F00BEF33F0FD0E
:10661300EF32F00350015C016E04500258026E1217
:1066230000F30EF66E630EF76E000EF86E00EEC604
:10663300F010EE0BF00900F5CFEEFFE550E150FA54
:10664300E100EE60F0660EEE6AE806FDE15F6A00C7
:106653000EF86E0001C8EF38F0016EC586C7A0358D
:10666300EF33F037EF33F030EF33F0C9CF02F0AD53
:10667300EC33F00104D8A441EF33F043EF33F04798
:10668300EF33F024EC32F049EF33F02EEC32F0022A
:1066930050120008BE58EF33F0085006E10704D843
:1066A300B056EF33F058EF33F066EF33F007C0091D
:1066B300F008C00AF0091E0A1E094A0A2A09C0077F
:1066C300F00AC008F06AEF33F007C007F008C0080B
:1066D300F012000B6E0B44E846FC0B0109C26E007E
:1066E3000E026E010E016ED1EC33F0C282C2B27D96
:1066F300EF33F07FEF33F078EF33F0C350C4CF09BB
:10670300F00A6A09C00AF0096A0910076E0A5008FC
:106713006E1200000E106E000E0F6E9CEF33F00E23
:10672300C001F0026A0CC003F00DC004F0F4EC37B2
:10673300F00F4A102A0F500A24D96E10500B20DA9A
:106743006EDF500E6E0E50D8A4AAEF33F0ACEF33C9
:10675300F091EF33F01200C5B0B2EF33F0B4EF3382
:10676300F0ADEF33F0C5B2B9EF33F0BBEF33F0ADBB
:10677300EF33F0C5B4C0EF33F0C2EF33F0ADEF3316
:10678300F0C5B6C7EF33F0C9EF33F0ADEF33F0C761
:10679300B4CEEF33F0D0EF33F0ADEF33F0120000AF
:1067A3000E046E000E036EEAEF33F0000E066E0069
:1067B3000E056E054A062A065009E1A50E055CD8AA
:1067C300A0E6EF33F0E8EF33F0DBEF33F0034A04F6
:1067D3002A0150035C02500458D8A0F3EF33F0F5BC
:1067E300EF33F0D7EF33F01200470E4D6E000E4E2D
:1067F3006E43C04FF044C050F0000E536E000E5273
:106803006E000E5A6E000E596E4F0E3B6E000E3C1C
:106813006E45C03DF046C03EF04D0E3F6E000E404B
:106823006E68EC34F052504324D96E53504420DA4E
:106833006EDF6A1200086E08C007F0F00E07168AB2
:10684300500F0B07108A6E8A948A8600F08A96008E
:106853000E026E010E016ED1EC33F008C007F00793
:106863003AF00E07168A500F0B07108A6E8A8600BD
:10687300F08A96000E026E030E016ED1EC33F01215
:1068830000086E08C007F0F00E07168A500F0B07BA
:10689300108A6E8A848A8600F08A96000E026E0140
:1068A3000E016ED1EC33F008C007F0073AF00E0783
:1068B300168A500F0B07108A6E8A8600F08A96009C
:1068C3000E026E030E016ED1EC33F012003DC04197
:1068D300F03EC042F07CEF34F03BC029F03CC02ACC
:1068E300F0410E2B6E000E2C6E3FC02DF040C02EDB
:1068F300F0D4EC3DF041C0F6FF42C0F7FF0800F5CD
:10690300500009D8A488EF34F08AEF34F06EEF34E6
:10691300F0000E3C6E000E3B6E1200000E046E0083
:106923000E036EDFEC32F0086E000E046E010E03F0
:106933006EDFEC32F0096E095008C006F0076A06F4
:10694300C007F0066A061000016E6F07506F6F6E86
:106953002906E16F29D8A4B1EF34F0B3EF34F0B7CF
:10696300EF34F0000E6F6F000E6E6F1200CEEF3437
:10697300F009C0F6FF0AC0F7FFF86A070EF76403D1
:10698300D00800F55005D0F6CFE1FFF7CFE2FFE7DF
:106993005042EC34F0094A0A2A09C0F6FF0AC0F74C
:1069A300FFF86A070EF76403D00800F55005D0F628
:1069B300CFE1FFF7CFE2FFE7500009D8A4E4EF34BB
:1069C300F0E6EF34F0BAEF34F01200096E14EF354D
:1069D300F08C80070E026ED00E016ED1EC33F08C7A
:1069E300902DEF35F08C80000E026EFA0E016ED101
:1069F300EC33F08C90000E026E640E016ED1EC331A
:106A0300F08C80000E026EFA0E016ED1EC33F0F1C1
:106A1300EF34F08C80000E026E640E016ED1EC3305
:106A2300F0F1EF34F00950076E086A0850000AD8F5
:106A3300B41EEF35F02DEF35F00750010AD8B4EA54
:106A4300EF34F0030AD8B4F4EF34F0010AD8B40BEE
:106A5300EF35F02DEF35F012000E6E0E04D8A4358D
:106A6300EF35F037EF35F03EEF35F00B500F0B807D
:106A7300090F6E0F501CEC34F0020E0E18D8A4450B
:106A8300EF35F047EF35F04EEF35F00B500F0BC0FD
:106A9300090F6E0F501CEC34F0030E0E18D8A455DA
:106AA300EF35F057EF35F05EEF35F00B500F0B94E9
:106AB300090F6E0F501CEC34F0040E0E18D8A465A9
:106AC300EF35F067EF35F06EEF35F00B500F0BD469
:106AD300090F6E0F501CEC34F00CC009F00DC00A06
:106AE300F0B8EC34F0120008EC32F0D00E43EC3284
:106AF300F0000E43EC32F0FFEC31F0D10E43EC32F8
:106B0300F0010E2EEC33F003C0D9FF04C0DAFFDF2F
:106B13006E20EE01F00350D9260450DA22010E2E26
:106B2300EC33F0DF6E20EE02F00350D9260450DA86
:106B330022010E2EEC33F0DF6E20EE03F00350D96A
:106B4300260450DA22010E2EEC33F0DF6E20EE0421
:106B5300F00350D9260450DA22010E2EEC33F0DF75
:106B63006E20EE05F00350D9260450DA22010E2ED2
:106B7300EC33F0DF6E20EE06F00350D9260450DA32
:106B830022000E2EEC33F0DF6E11EC32F012000017
:106B93000170A1CFEF35F0D1EF35F0DBEF35F01316
:106BA300C00AF014C00BF011C00CF012C00DF08B32
:106BB300EC33F016BEE0EF35F0E2EF35F0E8EF35F9
:106BC300F015C01AF016C01BF0ECEF35F0000E1BE9
:106BD3006E000E1A6E000E196E000E186EFEEF3563
:106BE300F0000E026E200E016E11C003F012C004FD
:106BF300F0F4EC37F0184A192A1A50185C1950802F
:106C03000A176E1B50800A1758D8A00BEF36F00DE9
:106C1300EF36F0F2EF35F0000170B113EF36F015F7
:106C2300EF36F01FEF36F013C00AF014C00BF0116B
:106C3300C00CF012C00DF08BEC33F01200000E0606
:106C43006E02BE29EF36F027EF36F02FEF36F00154
:106C53006C021ED8B0022A010E066E04BE36EF3651
:106C6300F034EF36F03AEF36F0036C041ED8B0047C
:106C73002A03500410D8B441EF36F043EF36F067DF
:106C8300EF36F0010E056E4BEF36F0D89003360465
:106C930036052A04AE50EF36F052EF36F047EF36A2
:106CA300F00350015C04500258D8A05BEF36F05D4E
:106CB300EF36F061EF36F00350015E0450025AD80C
:106CC3009004320332052E52EF36F00650D8B46DDD
:106CD300EF36F06FEF36F073EF36F0016C021ED82B
:106CE300B0022A01C001F002C002F0120020EE023D
:106CF300F05D50D9265E50DA22DF500001D16F0FCC
:106D03000ED11720EE02F05D50D9265E50DA22DF55
:106D130050D26FD2390F0B0A0DF350D125D36F2008
:106D2300EE01F05D50D9265E50DA22DF50D16F0FAD
:106D33000ED11720EE01F05D50D9265E50DA22DF26
:106D430050D26FD2390F0B0A0DF350D125D46F5D9A
:106D5300C0D9FF5EC0DAFFDF50D16F0F0ED1175DD0
:106D6300C0D9FF5EC0DAFFDF50D26FD2390F0B0AF2
:106D73000DF350D125D56F5BC043F05CC044F0B434
:106D83000E456E7F0E466ED3C047F0486AD4C049A5
:106D9300F04A6AD5C04BF04C6AF6EC33F01200208F
:106DA300EE04F05D50D9265E50DA22DF500001D1A7
:106DB3006F0F0ED11720EE04F05D50D9265E50DA26
:106DC30022DF50D26FD2390F0B0A0DF350D125D3E6
:106DD3006F20EE05F05D50D9265E50DA22DF50D1E8
:106DE3006F0F0ED11720EE05F05D50D9265E50DAF5
:106DF30022DF50D26FD2390F0B0A0DF350D125D4B5
:106E03006F20EE06F05D50D9265E50DA22DF50D1B6
:106E13006F0F0ED11720EE06F05D50D9265E50DAC3
:106E230022DF50D26FD2390F0B0A0DF350D125D088
:106E33000FD56F5BC043F05CC044F0C30E456E7F5B
:106E43000E466ED3C047F0486AD4C049F04A6AD5AB
:106E5300C04BF04C6AF6EC33F01200000E066E04E1
:106E6300BE38EF37F036EF37F03EEF37F0036C0400
:106E73001ED8B0042A010E066E02BE45EF37F0435A
:106E8300EF37F04BEF37F0016C021ED8B0022A0146
:106E93000E061A000E086E000E076E03500410D87B
:106EA300B456EF37F058EF37F080EF37F0010E05A7
:106EB3006E60EF37F0D89003360436052A04AE65CA
:106EC300EF37F067EF37F05CEF37F0D8900736080D
:106ED300360350015C04500258D8A073EF37F075A5
:106EE300EF37F07AEF37F00350015E0450025A0790
:106EF30080D89004320332052E67EF37F00650D85E
:106F0300B486EF37F088EF37F08CEF37F0076C0873
:106F13001ED8B0082A07C001F008C002F012000012
:106F23000E0F6E000E0E6E07C0D9FF08C0DAFFDE2B
:106F3300CFF6FFDDCFF7FF0800F5502A0AD8A4A546
:106F4300EF37F0A7EF37F0DBEF37F007C0D9FF08D3
:106F5300C0DAFFDE2A000EDD2209C0D9FF0AC0DA3B
:106F6300FFDFCF0BF0020EDE26DFCF0CF0000EDDCD
:106F7300220BC0D9FF0CC0DAFFDECF0EF0DDCF0F3E
:106F8300F0EFEF37F00EC001F00FC002F0000E0477
:106F93006E0A0E036E72EC32F00D5001240E6E0079
:106FA3000E02200F6E07C0D9FF08C0DAFFDE2A00E9
:106FB3000EDD2207C0D9FF08C0DAFFDECFF6FFDD02
:106FC300CFF7FF0800F550D00F0D6E090E0D64EDDD
:106FD300EF37F0EFEF37F0C4EF37F00EC007F00FE5
:106FE300C008F0120003500410D8B4FBEF37F0FDD3
:106FF300EF37F006EF38F003500410D8A404EF384D
:10700300F006EF38F00BEF38F00150F3EC31F058A5
:10701300EF38F020EE0AF00350D9260450DA22DECE
:1070230050DE10D8B418EF38F01AEF38F035EF38D7
:10703300F020EE0AF00350D9260450DA2210EE03B2
:10704300F00350E1260450E222DE50E65CE6508075
:107053000A096EDE50800A0958D8B033EF38F0358C
:10706300EF38F058EF38F020EE03F00350D9260440
:1070730050DA22DECF05F0DDCF06F003C0D9FF04DE
:10708300C0DAFFDECF07F0DDCF08F005500724D9C3
:107093006E06500820DA6E01C0DFFF20EE03F00316
:1070A30050D9260450DA22DE2A000EDD2212000116
:1070B300C008F002C009F003C00AF004C00BF005D9
:1070C30006D8A00606052806E10628D8A46CEF38E2
:1070D300F06EEF38F07BEF38F0000E026E000E0119
:1070E3006EC7EF38F0084A092A0A4A0B2A0506D860
:1070F300A0060608C0F6FF09C0F7FF0800F5500018
:1071030009D8B487EF38F089EF38F0B5EF38F00AD3
:10711300C0F6FF0BC0F7FF0800F5500009D8B4957F
:10712300EF38F097EF38F0B5EF38F005500610D888
:10713300B49EEF38F0A0EF38F0B5EF38F008C0F6A2
:10714300FF09C0F7FF0800F5CF07F00AC0F6FF0BF1
:10715300C0F7FF0800F5500718D8B4B3EF38F0B5FF
:10716300EF38F074EF38F008C0F6FF09C0F7FF08F6
:1071730000F5CF07F00AC0F6FF0BC0F7FF0800F5D4
:1071830050075C016E026AD8A002061200720ED389
:107193006E9AEC32F0010EE7EC34F0C7EC3CF002EF
:1071A3000EE7EC34F0000E6BEC33F007C06AF00826
:1071B300C06BF085EC32F080BCE2EF38F0E4EF38DE
:1071C300F017EF39F0000E026E320E016ED1EC3380
:1071D300F080BCEFEF38F0F1EF38F017EF39F05FE4
:1071E30004D8A4F7EF38F0F9EF38F005EF39F000E1
:1071F3000E00016F6F000E6E6F60EC32F0020EE74F
:10720300EC34F010EF39F082688C8E070E026ED0EA
:107213000E016ED1EC33F0000E826E8C9E80AC15A5
:10722300EF39F017EF39F010EF39F080B41CEF3974
:10723300F01EEF39F047EF39F0000E026E320E0107
:107243006ED1EC33F080B429EF39F02BEF39F040F5
:10725300EF39F05F50D8B431EF39F034EF39F00142
:107263000E35EF39F0000E5F6E000E0001746F00F3
:107273000E826E8C9E8C96010EE7EC34F080A44552
:10728300EF39F047EF39F040EF39F0000E80B401E9
:107293000E0001D06F5F50D8A452EF39F054EF398C
:1072A300F058EF39F03DEC3AF05AEF39F00AEC3B85
:1072B300F000016851D86F6951D96F684B692BD9B8
:1072C3005109E1320ED85DD8A06AEF39F06CEF397D
:1072D300F071EF39F0000E696F000E686F8C720069
:1072E3000E026E0A0E016ED1EC33F000016C4B6D91
:1072F3002BD4EF38F000EF00F020EEC6F010EE0FC5
:10730300F0060EDBCFE3FFE806FCE20CC01AF00D3B
:10731300C01BF01A501B10D8A492EF39F094EF3928
:10732300F098EF39F00F0E1A6E000E1B6E1AC001A3
:10733300F01BC002F0F7EC32F001C01EF002C01FD8
:10734300F062C01CF063C01DF01DBEABEF39F0ADA1
:10735300EF39F0C2EF39F01E501C5C1D50800A0E4D
:107363006E1F50800A0E58D8A0BAEF39F0BCEF391F
:10737300F0BEEF39F0C2EF39F01CC01EF01DC01F84
:10738300F01EC01CF01FC01DF060C018F061C019D2
:10739300F0000170B1D0EF39F0D2EF39F0EFEF39EF
:1073A300F0E0EF39F0000E026E200E016E0AC0030A
:1073B300F00BC004F0F4EC37F01E4A1F2A18501EDD
:1073C3005C1F50800A0E6E1950800A0E58D8A0ED2B
:1073D300EF39F0EFEF39F0D4EF39F0000E176E000C
:1073E3000E166E08EF3AF01AC0D9FF1BC0DAFFDFA2
:1073F300500E6E0E50016E026A0AC003F00BC004F9
:10740300F0F4EC37F01A4A1B2A164A172A1C5016B6
:107413005C1750800A0E6E1D50800A0E58D8A015B6
:10742300EF3AF017EF3AF0F5EF39F0000170A11DD4
:10743300EF3AF01FEF3AF03CEF3AF02DEF3AF0005D
:107443000E026E200E016E0AC003F00BC004F0F4AE
:10745300EC37F01E4A1F2A18501E5C1F50800A0E7C
:107463006E1950800A0E58D8A03AEF3AF03CEF3A22
:10747300F021EF3AF0120080B642EF3AF044EF3ACF
:10748300F066EF3AF00001CF05D8A44BEF3AF04D88
:10749300EF3AF066EF3AF0000E026E320E016ED153
:1074A300EC33F080B658EF3AF05AEF3AF066EF3A21
:1074B300F00001752B070E756562EF3AF064EF3A41
:1074C300F066EF3AF0000E756F000E80B6010E0005
:1074D30001CF6F80B870EF3AF072EF3AF095EF3A60
:1074E300F0CE05D8A478EF3AF07AEF3AF095EF3A78
:1074F300F0000E026E320E016ED1EC33F080B885CF
:10750300EF3AF087EF3AF095EF3AF000017551D872
:10751300A48EEF3AF090EF3AF094EF3AF0070E753D
:107523006F95EF3AF07507000E80B8010E0001CE9B
:107533006F80BA9FEF3AF0A1EF3AF004EF3BF0CD42
:1075430005D8A4A7EF3AF0A9EF3AF004EF3BF00017
:107553000E026E320E016ED1EC33F080BAB4EF3A04
:10756300F0B6EF3AF004EF3BF0000E826E8C9ECD46
:10757300EF3AF08B80FBEF3AF08B82FBEF3AF08B24
:1075830084FBEF3AF08B8CFBEF3AF08B8EFBEF3AF8
:10759300F08C8EFBEF3AF000017551076E086A0814
:1075A30050000AD8B4D8EF3AF0FBEF3AF007500096
:1075B3000AD8B4BBEF3AF0010AD8B4BEEF3AF003ED
:1075C3000AD8B4C1EF3AF0010AD8B4C1EF3AF007D0
:1075D3000AD8B4C1EF3AF0010AD8B4C4EF3AF003C1
:1075E3000AD8B4C7EF3AF0010AD8B4CAEF3AF0FBAD
:1075F300EF3AF0070E026ED00E016ED1EC33F000BD
:107603000E826E8C9E000E80BA010E0001CD6F12A9
:107613000000017351D8B411EF3BF013EF3BF0C6F8
:10762300EF3BF0000E746F8C96000E826E8C9EDF23
:10763300EF3BF0000E746F8C9664510A6E65510B2C
:107643006E644B652BB80E0A5C0B0E0B58D8A02D3D
:10765300EF3BF02FEF3BF0DFEF3BF0010E716F00DC
:107663000E656F000E646F000E726F010E746F8CE7
:10767300866E4B6F2B60EC32F0DFEF3BF08B807F3D
:10768300EF3BF08B827FEF3BF08B847FEF3BF08B04
:107693008C7FEF3BF08B8E7FEF3BF08C8E7FEF3B4D
:1076A300F072510A6E0B6A0B50000AD8B45CEF3BC0
:1076B300F07FEF3BF00A50000AD8B440EF3BF001F3
:1076C3000AD8B443EF3BF0030AD8B446EF3BF001CA
:1076D3000AD8B446EF3BF0070AD8B446EF3BF001B3
:1076E3000AD8B449EF3BF0030AD8B44CEF3BF0019E
:1076F3000AD8B44FEF3BF07FEF3BF064510A6E655D
:10770300510B6E644B652B0B5009E1C80E0A5CD814
:10771300A08EEF3BF090EF3BF0DFEF3BF0000E82EB
:107723006E8C9E020E716F000E656F000E646F7299
:107733002B070E7265A0EF3BF0A2EF3BF0DFEF3BB0
:10774300F0000E716F000E656F000E646F000E7413
:107753006F8C96DFEF3BF064510A6E65510B6E64DC
:107763004B652BF40E0A5C010E0B58D8A0BCEF3B03
:10777300F0BEEF3BF0DFEF3BF0010E716F000E65E3
:107783006F000E646FDFEF3BF071510A6E0B6A0BF3
:1077930050000AD8B4D0EF3BF0DFEF3BF00A5000C3
:1077A3000AD8B41BEF3BF0010AD8B452EF3BF00305
:1077B3000AD8B4ADEF3BF0DFEF3BF012001FBEE59C
:1077C300EF3BF0E8EF3BF0010EE9EF3BF0000E2852
:1077D3006E2850D8B4F0EF3BF0F2EF3BF0F6EF3BFE
:1077E300F01E6C1F1ED8B01F2A000163BFFCEF3BC5
:1077F300F0FEEF3BF0FFEF3BF0709363BF06EF3C0F
:10780300F004EF3CF00CEF3CF0000E236E010E226F
:107813006E10EF3CF062C022F063C023F060C0241E
:10782300F061C025F02850D8B41AEF3CF01CEF3CAF
:10783300F033EF3CF02406D8A025062850D8A42521
:10784300EF3CF027EF3CF02DEF3CF0000E216E2BC8
:107853000E206E31EF3CF0000E216E2D0E206E20B7
:10786300C028F0000E276E1F0E266E000E956F6B5C
:10787300EF3CF02606D8A02706760E2624D96E0004
:107883000E2720DA6E1EC001F01FC002F0000E04A6
:107893006E0A0E036E20EC36F001C007F002C0083A
:1078A300F04BEC33F00750300FDF6E2206D8A023E5
:1078B300062406D8A025061EC001F01FC002F00052
:1078C3000E046E0A0E036E2FEC37F001C01EF00299
:1078D300C01FF027BE76EF3CF0275008E12604D8FE
:1078E300A076EF3CF078EF3CF0A3EF3CF01E501F86
:1078F30010D8A47FEF3CF081EF3CF03BEF3CF0234A
:10790300BE8EEF3CF0235006E12204D8B08CEF3C4E
:10791300F08EEF3CF03BEF3CF025BE99EF3CF025B9
:107923005008E12404D8A099EF3CF09BEF3CF0A36E
:10793300EF3CF0000170B3A1EF3CF0A3EF3CF03B50
:10794300EF3CF02850D8B4A9EF3CF0ABEF3CF0B6D5
:10795300EF3CF02606D8A02706760E2624D96E0023
:107963000E2720DA6E28C0DFFF1CC011F01DC012E5
:10797300F0760E2624136E000E2720146E24C015F5
:10798300F025C016F0C9EC35F012001AEC32F007FE
:107993000E0B6EEC0E0C6E7F0E0D6E010E2EEC3583
:1079A300F0000E0B6E3B0E0C6E7F0E0D6E020E2E54
:1079B300EC35F0020E0B6E730E0C6E7F0E0D6E0324
:1079C3000E2EEC35F0030E0B6EA50E0C6E7F0E0D16
:1079D3006E040E2EEC35F00B0E026EB80E016ED156
:1079E300EC33F01AEC32F0020E0B6E4F0E0C6E7F7E
:1079F3000E0D6E010E2EEC35F0040E0B6ED20E0C36
:107A03006E7F0E0D6E020E2EEC35F0010E0B6E61C5
:107A13000E0C6E7F0E0D6E030E2EEC35F0030E0B67
:107A23006E950E0C6E7F0E0D6E040E2EEC35F00B64
:107A33000E026EB80E016ED1EC33F01AEC32F00286
:107A43000E0B6E850E0C6E7F0E0D6E010E2EEC3539
:107A5300F0BF0E036E000E046E75EC35F0B60E5BD0
:107A63006E000E5C6EBF0E5D6E000E5E6E78EC36C1
:107A7300F0AB0E5B6E000E5C6EBF0E5D6E000E5EB5
:107A83006ED1EC36F0000E0B6EB60E0C6E000E0DC2
:107A93006E020E2EEC35F0000E0B6EAB0E0C6E006C
:107AA3000E0D6E030E2EEC35F0960E436E000E4453
:107AB3006EDF0E456E7F0E466E6EC047F06FC04898
:107AC300F0F6EC33F0000E0B6E960E0C6E000E0DFE
:107AD3006E040E2EEC35F00B0E026EB80E016ED155
:107AE300EC33F01AEC32F0030E0B6E950E0C6E7F36
:107AF3000E0D6E010E2EEC35F0960E436E000E4405
:107B03006EF30E456E7F0E466EB60E476E000E4840
:107B13006EAB0E496E000E4A6EF6EC33F0000E0BA0
:107B23006E960E0C6E000E0D6E020E2EEC35F05F8F
:107B330050D8A49FEF3DF0A1EF3DF0A8EF3DF09B9F
:107B43000E0001D66F7E0ED76FADEF3DF0EB0E004A
:107B530001D66F7E0ED76F000E0B6ED6C00CF0D71A
:107B6300C00DF0030E2EEC35F0960E436E000E445E
:107B73006EDF0E456E7F0E466E6EC047F06FC048D7
:107B8300F0F6EC33F0000E0B6E960E0C6E000E0D3D
:107B93006E040E2EEC35F00B0E026EB80E016ED194
:107BA300EC33F012002BC0D9FF2CC0DAFFDECFF686
:107BB300FFDDCFF7FF0800F550250AD8A4E4EF3D19
:107BC300F0E6EF3DF038EF3FF02BC0D9FF2CC0DAE1
:107BD300FFDE2A000EDD22000E0001616F000E6041
:107BE3006F60C070F062696369000E366E000E3517
:107BF3006E27EF3EF0000170832BC0D9FF2CC0DA53
:107C0300FFDE2A000EDD2227EF3EF0000E366E0166
:107C13000E356E27EF3EF02BC0D9FF2CC0DAFFDE06
:107C2300CFF6FFDDCFF7FF0800F5502F6E306A3037
:107C330050000AD8B420EF3EF007EF3EF02F50304B
:107C43000AD8B4FCEF3DF007EF3EF035503610D8BC
:107C5300B42EEF3EF030EF3EF00DEF3EF02BC007B9
:107C6300F02CC008F02DC009F02EC00AF091EC37BB
:107C7300F007C060F008C061F0000161BF46EF3E4D
:107C8300F044EF3EF04BEF3EF07081606D611FD822
:107C9300B0612B2BC0D9FF2CC0DAFFDECF39F0DD6A
:107CA300CF3AF039C0F6FF3AC0F7FF0800F5506449
:107CB3000AD8B45FEF3EF061EF3EF06FEF3EF0396C
:107CC300C0F6FF3AC0F7FF0800F550690AD8A46D63
:107CD300EF3EF06FEF3EF09DEF3EF02DC0D9FF2E4B
:107CE300C0DAFFDFCF2FF0020EDE26DFCF30F00049
:107CF3000EDD222FC0D9FF30C0DAFFDECF31F0DD39
:107D0300CF32F0010E39242F6E000E3A20306E2B45
:107D1300C0D9FF2CC0DAFF2FC0DEFF30C0DDFF2942
:107D2300C01CF02AC01DF031C01EF032C01FF0E0AD
:107D3300EC3BF04CEF3FF02BC0D9FF2CC0DAFFDE59
:107D4300CFF6FFDDCFF7FF0800F550730AD8B4ADC7
:107D5300EF3EF0AFEF3EF0CAEF3EF02BC0D9FF2C61
:107D6300C0DAFFDECF01F0DDCF02F0FA0E036E7F43
:107D73000E046E000E066E030E056E59EC38F0010C
:107D8300500210D8A4C8EF3EF0CAEF3EF00AEF3F0E
:107D9300F02BC0D9FF2CC0DAFFDECFF6FFDDCFF723
:107DA300FF0800F550730AD8B4DAEF3EF0DCEF3E7B
:107DB300F0E2EF3EF0000E386E030E376EE6EF3E54
:107DC300F0000E386E010E376E2BC0D9FF2CC0DACF
:107DD300FF3750DE263850DD2229C00AF02AC00BB7
:107DE300F02DC0D9FF2EC0DAFFDFCF2FF0020EDE59
:107DF30026DFCF30F0000EDD222FC0D9FF30C0DAEE
:107E0300FFDECF0CF0DDCF0DF07EEC39F04CEF3F11
:107E1300F02BC0D9FF2CC0DAFFDECFF6FFDDCFF7A2
:107E2300FF0800F550250AD8A41AEF3FF01CEF3FD6
:107E3300F02FEF3FF02BC0D9FF2CC0DAFFDE2A0072
:107E43000EDD22000E026E250E016E29C003F02AFC
:107E5300C004F0F4EC37F04CEF3FF02BC0D9FF2C0B
:107E6300C0DAFFDE2A000EDD224CEF3FF02BC0D933
:107E7300FF2CC0DAFFDECFF6FFDDCFF7FF0800F5FA
:107E830050016E026A29C003F02AC004F0F4EC37F3
:107E9300F02FEF3FF01200004D6F646F3A204D61F9
:107EA3006E75616C20202020202020004D616E75AE
:107EB300616C202D20563A256420202020202000AC
:107EC300433A2530346420503A2533642525202055
:107ED3002020200046696C74726F206465204D6118
:107EE3006E676120202020004D6F646F3A2041753A
:107EF300746F6D617469636F2020200046414C48A4
:107F0300412120507265737320416C7461202000FD
:107F13004175746F202D20416775617264616E64D1
:107F23006F2020004175746F202D204369636C6FAF
:107F330020417469766F2000456E67656E686172D3
:107F4300696120456C6574726963610057656C698A
:107F53006E67746F6E20436F72726569610053655B
:107F6300712E456C6574722E4C696D70657A610073
:107F730050726F6A65746F20496E746567726164CD
:107F83006F0053656A612042656D2056696E646FA8
:107F9300210046696C74726F206465204D616E67C1
:107FA3006100456D20456C657472696361204949C0
:107FB30000253032643A253032643A253032640089
:107FC300253032642F253032642F2530346400523B
:107FD30041203A2031303633363737004369636CFA
:107FE3006F733A202530346400554E49554245009D
:0C7FF300257320202573006C6C730000C7
:020000040030CA
:0E0000000008191EFF0181FF0FC00FE00F4026
:00000001FF
