:04000000FAEF34F0EF
:106962001200C580C5B0B8EF34F0BAEF34F0B3EF1F
:1069720034F01200C584C5B4C1EF34F0C3EF34F073
:10698200BCEF34F01200C59AC588C5B8CBEF34F01D
:10699200CDEF34F0C6EF34F01200C58AC588C5B811
:1069A200D5EF34F0D7EF34F0D0EF34F01200010E0F
:1069B200EEEC35F0000E026E030E016EC9EC35F0FE
:1069C200120093829380800EC76E280EC66E000E50
:1069D200C56E040EC86E1200016E01C0C9FFC7B0B9
:1069E200F5EF34F0F7EF34F0F0EF34F0A5EC35F0DA
:1069F200120000EE60F06A0EEE6AE806FDE15F6AE0
:106A02005E6A5D6A5C6A000EF86E0001D3EF39F0CF
:106A1200E2EC34F0B2EC34F0D00EEDEC34F0070ED0
:106A2200EDEC34F0000EEDEC34F0BBEC34F012007F
:106A320001500302F3CF05F0F4CF06F00150040237
:106A4200F350062602500302F350062605C001F059
:106A520006C002F01200000E936E000E026E0F0EC0
:106A6200016EC9EC35F0020EEEEC35F0280EEEECBC
:106A720035F0010EEEEC35F00C0EEEEC35F0060EB4
:106A8200EEEC35F01200016EC586C7A04BEF35F073
:106A92004DEF35F046EF35F0C9CF02F0A5EC35F0F9
:106AA2000104D8A457EF35F059EF35F05DEF35F01A
:106AB200C4EC34F05FEF35F0CEEC34F0025012004B
:106AC200000E0A6E000E096E77EF35F08C80010E13
:106AD200026EF40E016EC9EC35F08C90010E026E5E
:106AE200F40E016EC9EC35F0094A0A2A0750095C16
:106AF20008500A58D8A080EF35F082EF35F067EFE2
:106B020035F01200000E106E000E0F6E94EF35F08D
:106B12000EC001F0026A0CC003F00DC004F06EEC6E
:106B220039F00F4A102A0F500A24D96E10500B2048
:106B3200DA6EDF500E6E0E50D8A4A2EF35F0A4EF3D
:106B420035F089EF35F01200C5B0AAEF35F0ACEFA1
:106B520035F0A5EF35F0C5B2B1EF35F0B3EF35F052
:106B6200A5EF35F0C5B4B8EF35F0BAEF35F0A5EFC3
:106B720035F0C5B6BFEF35F0C1EF35F0A5EF35F012
:106B8200C7B4C6EF35F0C8EF35F0A5EF35F0120007
:106B9200000E046E000E036EE2EF35F0000E066E7C
:106BA200000E056E054A062A065009E1A50E055C8F
:106BB200D8A0DEEF35F0E0EF35F0D3EF35F0034A41
:106BC200042A0150035C02500458D8A0EBEF35F0C0
:106BD200EDEF35F0CFEF35F01200086E08C007F088
:106BE200F00E07168A500F0B07108A6E8A948A8657
:106BF20000F08A96000E026E010E016EC9EC35F0AD
:106C020008C007F0073AF00E07168A500F0B07105C
:106C12008A6E8A8600F08A96000E026E030E016E5C
:106C2200C9EC35F01200086E08C007F0F00E071626
:106C32008A500F0B07108A6E8A848A8600F08A9621
:106C4200000E026E010E016EC9EC35F008C007F0AD
:106C5200073AF00E07168A500F0B07108A6E8A86C3
:106C620000F08A96000E026E030E016EC9EC35F03A
:106C720012003EC042F03FC043F04EEF36F03CC03F
:106C82002CF03DC02DF0420E2E6E000E2F6E40C035
:106C920030F041C031F017EC3CF042C0F6FF43C087
:106CA200F7FF0800F5500009D8A45AEF36F05CEF60
:106CB20036F040EF36F0000E3D6E000E3C6E1200D4
:106CC200480E0001CA6F000ECB6F44C0CCF045C025
:106CD200CDF0000ED06F000ECF6F000ED76F000EFA
:106CE200D66FCC0E3C6E000E3D6E46C03EF047C0E5
:106CF2003FF0CA0E406E000E416E3AEC36F00001D3
:106D0200CF514424D96ED0514520DA6EDF6A120089
:106D1200C30E036E000E046E52EC38F0640E446E25
:106D2200000E456ED30E466E7D0E476EC5C048F00E
:106D3200496AC4C04AF04B6AC3C04CF04D6AC7C02E
:106D42004EF04F6AC8C050F0516AC9C052F0536A3F
:106D520061EC36F0000E0B6E640E0C6E000E0D6EC2
:106D6200010E24EC37F01200CBEF36F009C0F6FF2B
:106D72000AC0F7FFF86A070EF76403D00800F5505F
:106D820005D0F6CFE9FFF7CFEAFFEF5014EC36F06B
:106D9200094A0A2A09C0F6FF0AC0F7FFF86A070E75
:106DA200F76403D00800F55005D0F6CFE9FFF7CF1E
:106DB200EAFFEF500009D8A4E1EF36F0E3EF36F036
:106DC200B7EF36F0120058C001F059C002F007ECDC
:106DD2003DF058C001F059C002F0A8EC38F058C09C
:106DE20054F059C055F0CFEC3AF020EE02F0585072
:106DF200D9265950DA22DE2A000EDD2220EE06F0D4
:106E02005850D9265950DA22DE2A000EDD2220EE11
:106E120006F05850D9265950DA22010EDB5009E10A
:106E2200320EDE5CD8A018EF37F01AEF37F023EFFE
:106E320037F020EE06F05850D9265950DA22DE6A91
:106E4200DD6A8C7212000E6E0E04D8A42BEF37F09E
:106E52002DEF37F034EF37F00B500F0B80090F6E28
:106E62000F50EEEC35F0020E0E18D8A43BEF37F0BF
:106E72003DEF37F044EF37F00B500F0BC0090F6EA8
:106E82000F50EEEC35F0030E0E18D8A44BEF37F08E
:106E92004DEF37F054EF37F00B500F0B94090F6E94
:106EA2000F50EEEC35F0040E0E18D8A45BEF37F05D
:106EB2005DEF37F064EF37F00B500F0BD4090F6E14
:106EC2000F50EEEC35F00CC009F00DC00AF0B5EC35
:106ED20036F01200B2EC34F0D00EEDEC34F0000ECD
:106EE200EDEC34F002C0D9FF03C0DAFFDF50EDEC65
:106EF20034F020EE01F00250D9260350DA22DF509E
:106F0200EDEC34F020EE02F00250D9260350DA22E2
:106F1200DF50EDEC34F020EE03F00250D92603509E
:106F2200DA22DF50EDEC34F020EE04F00250D926E4
:106F32000350DA22DF50EDEC34F020EE05F002507F
:106F4200D9260350DA22DF50EDEC34F020EE06F0C1
:106F52000250D9260350DA22DF50EDEC34F0BBECBC
:106F620034F0120001C0D9FF02C0DAFF010EDF6E59
:106F720020EE01F00150D9260250DA22010EDF6E16
:106F820020EE02F00150D9260250DA22DE6ADD6AD2
:106F920020EE04F00150D9260250DA22DE6ADD6AC0
:106FA20020EE06F00150D9260250DA22DE6ADD6AAE
:106FB20020EE08F00150D9260250DA22DE6ADD6A9C
:106FC20020EE0AF00150D9260250DA22010EDF6EBD
:106FD20020EE0BF00150D9260250DA22010EDF6EAC
:106FE20020EE0CF00150D9260250DA22010EDF6E9B
:106FF2008C968C948C9212005EA002EF38F004EF13
:1070020038F00EEF38F013C00AF014C00BF011C0C4
:107012000CF012C00DF083EC35F016BE13EF38F011
:1070220015EF38F01BEF38F015C01AF016C01BF040
:107032001FEF38F0000E1B6E000E1A6E000E196E56
:10704200000E186E31EF38F0000E026E200E016E47
:1070520011C003F012C004F06EEC39F0184A192A7C
:107062001A50185C1950800A176E1B50800A175864
:10707200D8A03EEF38F040EF38F025EF38F05EB0A0
:1070820045EF38F047EF38F051EF38F013C00AF00F
:1070920014C00BF011C00CF012C00DF083EC35F0EF
:1070A2001200B2EC34F0D00EEDEC34F0000EEDEC48
:1070B20034F0BBEC34F0B2EC34F0D10EEDEC34F041
:1070C200010E44EC35F003C0D9FF04C0DAFFDF6ED5
:1070D20020EE01F00350D9260450DA22010E44ECCE
:1070E20035F0DF6E20EE02F00350D9260450DA228A
:1070F200010E44EC35F0DF6E20EE03F00350D9268A
:107102000450DA22010E44EC35F0DF6E20EE04F07A
:107112000350D9260450DA22010E44EC35F0DF6E1A
:1071220020EE05F00350D9260450DA22010E44EC79
:1071320035F0DF6E20EE06F00350D9260450DA2235
:10714200000E44EC35F0DF6EBBEC34F01200D9EFE8
:1071520038F08C960AEF39F08C9620EE02F001504E
:10716200D9260250DA22010EDB5009E1640EDE5C00
:10717200D8A0BEEF38F0C0EF38F00AEF39F020EEB9
:1071820002F00150D9260250DA22DE6ADD6A20EED0
:1071920004F00150D9260250DA22DE2A000EDD2246
:1071A2000AEF39F08C860AEF39F08C840AEF39F055
:1071B20001C0D9FF02C0DAFFDF50036E046A045037
:1071C200000AD8B4E7EF38F00AEF39F00350000AAA
:1071D200D8B40AEF39F0010AD8B4AAEF38F0030A9A
:1071E200D8B4AAEF38F0010AD8B4ADEF38F0070AE4
:1071F200D8B4AAEF38F0010AD8B40AEF39F0030A7A
:10720200D8B4D3EF38F0010AD8B4D6EF38F00AEF89
:1072120039F01200000E0F6E000E0E6E07C0D9FF7D
:1072220008C0DAFFDECFF6FFDDCFF7FF0800F5502A
:107232002A0AD8A41FEF39F021EF39F055EF39F0BF
:1072420007C0D9FF08C0DAFFDE2A000EDD2209C01E
:10725200D9FF0AC0DAFFDFCF0BF0020EDE26DFCF46
:107262000CF0000EDD220BC0D9FF0CC0DAFFDECF1E
:107272000EF0DDCF0FF069EF39F00EC001F00FC054
:1072820002F0000E046E0A0E036E19EC35F00D507A
:1072920001240E6E000E02200F6E07C0D9FF08C037
:1072A200DAFFDE2A000EDD2207C0D9FF08C0DAFFAE
:1072B200DECFF6FFDDCFF7FF0800F550D00F0D6EE1
:1072C200090E0D6467EF39F069EF39F03EEF39F0DE
:1072D2000EC007F00FC008F0120003500410D8B41B
:1072E20075EF39F077EF39F080EF39F00350041081
:1072F200D8A47EEF39F080EF39F085EF39F00150F4
:10730200B1EC34F0D2EF39F020EE0AF00350D92676
:107312000450DA22DE50DE10D8B492EF39F094EF46
:1073220039F0AFEF39F020EE0AF00350D9260450BD
:10733200DA2210EE03F00350E1260450E222DE507E
:10734200E65CE650800A096EDE50800A0958D8B021
:10735200ADEF39F0AFEF39F0D2EF39F020EE03F0B4
:107362000350D9260450DA22DECF05F0DDCF06F035
:1073720003C0D9FF04C0DAFFDECF07F0DDCF08F08B
:1073820005500724D96E06500820DA6E01C0DFFFCF
:1073920020EE03F00350D9260450DA22DE2A000E32
:1073A200DD221200720ED36E2CEC35F009EC35F0B2
:1073B200190E0001C56F310EC46F300EC36F030E7C
:1073C200C76F030EC86F210EC96F030EC66FC30EBF
:1073D200026E000E036E6BEC37F0000E956E000E1F
:1073E200946E000E826EB60E016E000E026EB3EC4B
:1073F20037F0000E086E020E076E61EC35F0000EDB
:10740200556E010E546E46EC3AF00B0E026EB80E3B
:10741200016EC9EC35F0000E556E020E546E46EC4C
:107422003AF00B0E026EB80E016EC9EC35F0000E8A
:10743200556E030E546E46EC3AF00B0E026EB80E09
:10744200016EC9EC35F0000E556E040E546E46EC1A
:107452003AF0000E086E010E076E61EC35F00B0E6D
:10746200026EB80E016EC9EC35F0B60E586E000E03
:10747200596EE4EC36F0000E026E0A0E016EC9EC93
:1074820035F036EF3AF000EF00F0D8EC34F0B0EF20
:107492003AF0070E0B6EF70E0C6E7F0E0D6E010E9C
:1074A20024EC37F0000E0B6E640E0C6E7F0E0D6E28
:1074B200020E24EC37F0020E0B6E9C0E0C6E7F0E49
:1074C2000D6E030E24EC37F0030E0B6ECE0E0C6E17
:1074D2007F0E0D6E040E24EC37F0CEEF3AF0020E62
:1074E2000B6E780E0C6E7F0E0D6E010E24EC37F0D3
:1074F200040E0B6EDD0E0C6E7F0E0D6E020E24EC72
:1075020037F0010E0B6E8A0E0C6E7F0E0D6E030E9F
:1075120024EC37F0030E0B6EBE0E0C6E7F0E0D6E5A
:10752200040E24EC37F0CEEF3AF0020E0B6EAE0EE4
:107532000C6E7F0E0D6E040E24EC37F089EC36F0E3
:10754200CEEF3AF089EC36F0020E0B6EEA0E0C6EBC
:107552007F0E0D6E040E24EC37F0CEEF3AF054C0DD
:1075620056F055C057F05750000AD8B4BBEF3AF066
:10757200CEEF3AF05650010AD8B44AEF3AF0030A75
:10758200D8B470EF3AF0010AD8B496EF3AF0070A8D
:10759200D8B4A3EF3AF0CEEF3AF012000001624BFA
:1075A200632B89EC36F00001635109E10A0E625D3A
:1075B200D8A0DEEF3AF0E0EF3AF06BEF3BF0000ECE
:1075C200636F000E626F3EEF3BF0010E0B6EBB0E5F
:1075D2000C6E7E0E0D6E020E24EC37F06BEF3BF05C
:1075E200010E0B6E370E0C6E7E0E0D6E020E24EC2B
:1075F20037F06BEF3BF0010E0B6E630E0C6E7E0EDE
:107602000D6E020E24EC37F06BEF3BF0010E0B6EA9
:107612008F0E0C6E7E0E0D6E020E24EC37F06BEFA9
:107622003BF0010E0B6E4D0E0C6E7E0E0D6E020EB9
:1076320024EC37F06BEF3BF0010E0B6E790E0C6E03
:107642007E0E0D6E020E24EC37F06BEF3BF0010E56
:107652000B6E210E0C6E7E0E0D6E020E24EC37F0B8
:107662006BEF3BF0010E0B6EA50E0C6E7E0E0D6ED7
:10767200020E24EC37F06BEF3BF054C0D9FF55C03B
:10768200DAFFDF50566E576A5750000AD8B44CEFF3
:107692003BF033EF3BF05650010AD8B4E6EF3AF034
:1076A200030AD8B4F1EF3AF0010AD8B4FCEF3AF089
:1076B200070AD8B407EF3BF0010AD8B412EF3BF047
:1076C200030AD8B41DEF3BF0010AD8B428EF3BF00F
:1076D20033EF3BF012005DBE71EF3BF073EF3BF016
:1076E20074EF3BF05E925DBE7BEF3BF079EF3BF0D7
:1076F20081EF3BF0000E266E010E256E85EF3BF00A
:107702005CC025F05DC026F060C027F061C028F0A3
:10771200000E2A6E1F0E296E000E0001B56FCEEF0D
:107722003BF02906D8A02A061E500F0B2B6E090E1D
:107732002B649EEF3BF0A0EF3BF0A8EF3BF0570E1F
:107742002B24236E246A000E2422AEEF3BF0300E6F
:107752002B24236E246A000E242223C02BF0960EC3
:107762002924D96E000E2A20DA6E2BC0DFFF2506EF
:10777200D8A026062706D8A028061EC020F01FC0C3
:1077820021F0040E226ED89021322032222EC4EF34
:107792003BF020C01EF021C01FF02ABEDAEF3BF002
:1077A2002A5009E1020E295CD8A0DAEF3BF0DCEFA7
:1077B2003BF006EF3CF01E501F10D8A4E3EF3BF065
:1077C200E5EF3BF092EF3BF026BEF2EF3BF02650A6
:1077D20006E12504D8B0F0EF3BF0F2EF3BF092EF78
:1077E2003BF028BEFDEF3BF0285008E12704D8A06B
:1077F200FDEF3BF0FFEF3BF006EF3CF05EB204EF33
:107802003CF006EF3CF092EF3BF01CC011F01DC0C3
:1078120012F0960E2924136E000E2A20146E27C031
:1078220015F028C016F0FDEC37F012002EC0D9FF7B
:107832002FC0DAFFDECFF6FFDDCFF7FF0800F550ED
:10784200250AD8A427EF3CF029EF3CF0F2EF3CF0F8
:107852002EC0D9FF2FC0DAFFDE2A000EDD22000E75
:107862000001616F000E606F60C05EF05C685D6871
:10787200000E396E000E386E69EF3CF05E822EC04B
:10788200D9FF2FC0DAFFDE2A000EDD2269EF3CF0BD
:10789200000E396E010E386E69EF3CF02EC0D9FF32
:1078A2002FC0DAFFDECFF6FFDDCFF7FF0800F5507D
:1078B200326E336A3350000AD8B462EF3CF049EFBB
:1078C2003CF03250300AD8B43FEF3CF049EF3CF084
:1078D20038503910D8B470EF3CF072EF3CF04FEFF3
:1078E2003CF02EC007F02FC008F030C009F031C0C4
:1078F2000AF00BEC39F007C060F008C061F000013B
:1079020061BF88EF3CF086EF3CF08DEF3CF05E808B
:10791200606D611FD8B0612B2EC0D9FF2FC0DAFF76
:10792200DECF3AF0DDCF3BF03AC0F6FF3BC0F7FFC7
:107932000800F550780AD8A4A1EF3CF0A3EF3CF080
:10794200E9EF3CF030C0D9FF31C0DAFFDFCF32F0CF
:10795200020EDE26DFCF33F0000EDD2232C0D9FF69
:1079620033C0DAFFDECF34F0DDCF35F0010E3A243A
:10797200326E000E3B20336E2EC0D9FF2FC0DAFFCD
:1079820032C0DEFF33C0DDFFD3EF3CF02CC01CF071
:107992002DC01DF034C01EF035C01FF06CEC3BF062
:1079A20006EF3DF03AC0F6FF3BC0F7FF0800F55086
:1079B200326E336A3350000AD8B4E2EF3CF0E9EF9A
:1079C2003CF03250780AD8B4C7EF3CF0E9EF3CF013
:1079D2002EC0D9FF2FC0DAFFDE2A000EDD2206EF0D
:1079E2003DF02EC0D9FF2FC0DAFFDECFF6FFDDCF8C
:1079F200F7FF0800F550016E026A2CC003F02DC09B
:107A020004F06EEC39F0E9EF3CF01200000E82B4A3
:107A1200010E0A6E000E066E20EE0CF00150D92601
:107A22000250DA22DE04D8A419EF3DF01BEF3DF03C
:107A320025EF3DF00A50D8A421EF3DF023EF3DF0B1
:107A420025EF3DF0010E066E20EE0CF00150D92616
:107A52000250DA220AC0DFFF000E076E20EE0AF0A3
:107A62000150D9260250DA22DE04D8A43BEF3DF0C1
:107A72003DEF3DF046EF3DF082B042EF3DF044EF86
:107A82003DF046EF3DF0010E076E07C005F020EE17
:107A92000AF00150D9260250DA2282B053EF3DF0AB
:107AA20056EF3DF0010E57EF3DF0000EDF6E000E77
:107AB200086E20EE0BF00150D9260250DA22DE04C5
:107AC200D8A466EF3DF068EF3DF071EF3DF082B271
:107AD2006DEF3DF06FEF3DF071EF3DF0010E086E7E
:107AE20008C009F020EE0BF00150D9260250DA222C
:107AF20082B27EEF3DF081EF3DF0010E82EF3DF06C
:107B0200000EDF6E94EF3EF020EE02F00150D92617
:107B12000250DA222D0EDE5C010EDE58D8A094EF60
:107B22003DF096EF3DF0C1EF3EF020EE01F0015046
:107B3200D9260250DA22020EDF6EC1EF3EF00A5061
:107B4200D8A4A6EF3DF0A8EF3DF0B2EF3DF020EE55
:107B520001F00150D9260250DA22060EDF6EC1EF83
:107B62003EF00550D8B4B8EF3DF0BAEF3DF0C1EFAA
:107B72003EF020EE01F00150D9260250DA22030E27
:107B8200DF6E20EE04F00150D9260250DA22DE6ABE
:107B9200DD6AC1EF3EF00A50D8A4D2EF3DF0D4EF37
:107BA2003DF0DEEF3DF020EE01F00150D92602500B
:107BB200DA22050EDF6EC1EF3EF020EE04F0015036
:107BC200D9260250DA22010EDB5009E11E0EDE5CDC
:107BD200D8A0EEEF3DF0F0EF3DF0FAEF3DF020EEF1
:107BE20001F00150D9260250DA22040EDF6EC1EFF5
:107BF2003EF00950D8B400EF3EF002EF3EF0C1EF84
:107C02003EF020EE01F00150D9260250DA22050E94
:107C1200DF6EC1EF3EF00A50D8A412EF3EF014EF2F
:107C22003EF01EEF3EF020EE01F00150D926025048
:107C3200DA22050EDF6EC1EF3EF00950D8B424EF10
:107C42003EF026EF3EF0C1EF3EF020EE01F0015093
:107C5200D9260250DA22050EDF6EC1EF3EF020EE89
:107C620002F00150D9260250DA22010EDB5009E15E
:107C7200330EDE5CD8A040EF3EF042EF3EF0C1EFA3
:107C82003EF00A50D8A448EF3EF04AEF3EF054EFDF
:107C92003EF020EE01F00150D9260250DA22060E03
:107CA200DF6EC1EF3EF020EE01F00150D926025006
:107CB200DA22020EDF6EC1EF3EF00A04D8A464EFAE
:107CC2003EF066EF3EF0C1EF3EF020EE01F00150D3
:107CD200D9260250DA22020EDF6EC1EF3EF020EE0C
:107CE20002F00150D9260250DA22E90EDE5C030EC0
:107CF200DE58D8A07FEF3EF081EF3EF0C1EF3EF0BC
:107D020020EE01F00150D9260250DA22020EDF6E77
:107D1200C1EF3EF020EE01F00150D9260250DA22E6
:107D2200DF6AC1EF3EF001C0D9FF02C0DAFFDF50C7
:107D3200036E046A0450000AD8B4A2EF3EF08BEF3F
:107D42003EF00350010AD8B485EF3DF0030AD8B4DF
:107D5200A0EF3DF0010AD8B4CCEF3DF0070AD8B449
:107D62000CEF3EF0010AD8B430EF3EF0030AD8B46B
:107D72005EEF3EF0010AD8B470EF3EF08BEF3EF0BA
:107D820020EE01F00150D9260250DA2201C0E1FFB3
:107D920002C0E2FFDE50E618D8B4D2EF3EF0D4EFD4
:107DA2003EF0E8EF3EF020EE01F00150D9260250FD
:107DB200DA2201C0E1FF02C0E2FFDFCFE7FF20EEDF
:107DC20002F00150D9260250DA22DE6ADD6A120080
:107DD20000486F72613A2532783A2532783A253274
:107DE200782020202041420A446174653A25327885
:107DF2002F2532782F25327800486F72613A25326A
:107E0200783A2532783A253278202020200A4461B7
:107E120074653A2532782F2532782F253078005331
:107E220074617475733A2046616C68612020202069
:107E320020202020005374617475733A2050726FB1
:107E42006E746F20202020202020005374617475EE
:107E5200733A20506172616E646F202020202020CE
:107E6200005374617475733A2050617274696E6460
:107E72006F2020202020005374617475733A2042D1
:107E82006C6F71756561646F2020202000537461EE
:107E92007475733A2046756E63696F6E616E646FB6
:107EA2002020005374617475733A20446573636FC4
:107EB2006E68656369646F20005374617475733A08
:107EC20020496E696369616C697A616E646F004111
:107ED2006A75737461722044696120202020202019
:107EE200202020005361697220416A7573746520F5
:107EF200202020202020202000416A7573746172A6
:107F020020416E6F20202020202020202000416A66
:107F12007573746172204D6573202020202020200B
:107F2200202000416A757374617220486F7261206B
:107F32002020202020202000416A75737461722065
:107F42004D696E75746F73202020202000416A7580
:107F5200737461722044617461206520486F72619C
:107F62002000456E67656E686172696120456C65C7
:107F720074726963610057656C696E67746F6E2015
:107F8200436F7272656961005365712E456C657449
:107F9200722E4C696D70657A610050726F6A6574F9
:107FA2006F20496E7465677261646F0053656A6120
:107FB2002042656D2056696E646F210046696C74BB
:107FC200726F206465204D616E676100456D2045CA
:107FD2006C657472696361204949005241203A20FC
:107FE200313036333637370046696C74726F204D44
:0D7FF200616E676100554E49554245000023
:020000040030CA
:0E0000000009191EFF0181FF0FC00FE00F4025
:00000001FF
