:0400000017EF33F0D3
:0C63EA0012000E0EC16EBE0EC06E12003E
:1063F700286E756C6C290001010101C582C5B207C1
:10640700EF32F009EF32F002EF32F01200C580C52B
:10641700B010EF32F012EF32F00BEF32F01200C58E
:1064270084C5B419EF32F01BEF32F014EF32F012DB
:1064370000010E21EC34F0000E026E030E016ED641
:10644700EC33F01200C59AC588C5B82DEF32F02F8E
:10645700EF32F028EF32F01200C58AC588C5B83789
:10646700EF32F039EF32F032EF32F01200938293CD
:1064770080800EC76E280EC66E000EC56E040EC84D
:106487006E1200016E01C0C9FFC7B04DEF32F04F69
:10649700EF32F048EF32F0B2EC33F012003AEC3260
:1064A700F00AEC32F0D00E45EC32F0070E45EC3234
:1064B700F0000E45EC32F013EC32F01200000E083B
:1064C7006E000E076E00016F51096E9CEC32F000F2
:1064D7000E086E010E076E6EC009F09CEC32F012CA
:1064E7000001500302F3CF05F0F4CF06F00150048A
:1064F70002F350062602500302F350062605C00198
:10650700F006C002F01200340E00016A5D030E6B44
:1065170059D8A091EF32F093EF32F098EF32F001B3
:106527000E736F8C849BEF32F0000E736F8C941296
:10653700000AEC32F0A00E45EC32F0085045EC3280
:10654700F0075045EC32F0095045EC32F013EC32CD
:10655700F0000E026E0A0E016ED6EC33F012000048
:106567000E936E000E026E0F0E016ED6EC33F00224
:106577000E21EC34F0280E21EC34F0010E21EC341E
:10658700F00C0E21EC34F0060E21EC34F012000A68
:10659700EC32F0A00E45EC32F0045045EC32F0033B
:1065A7005045EC32F001EC32F0A10E45EC32F00030
:1065B7000E33EC33F0056E13EC32F0055012000089
:1065C7000E956E000E946E000E826E000E836E9214
:1065D7008492869288928A928C9280B3EC32F0529F
:1065E700EC32F0F6EC31F03AEC32F094EC34F01295
:1065F7000001C003F002C004F004EF33F0014A02C7
:106607002A01C0D9FF02C0DAFFDF50D8A40EEF334A
:10661700F010EF33F002EF33F00350015C016E042A
:10662700500258026E1200F70EF66E630EF76E00F8
:106637000EF86E00EEC6F010EE0BF00900F5CFEE87
:10664700FFE550E150FAE100EE60F0660EEE6AE811
:1066570006FDE15F6A000EF86E0001CDEF38F0012C
:106667006EC586C7A03AEF33F03CEF33F035EF3312
:10667700F0C9CF02F0B2EC33F00104D8A446EF33EF
:10668700F048EF33F04CEF33F026EC32F04EEF33B7
:10669700F030EC32F00250120008BE5DEF33F00824
:1066A7005006E10704D8B05BEF33F05DEF33F06BD2
:1066B700EF33F007C009F008C00AF0091E0A1E09E7
:1066C7004A0A2A09C007F00AC008F06FEF33F0073B
:1066D700C007F008C008F012000B6E0B44E846FC38
:1066E7000B0109C26E000E026E010E016ED6EC336D
:1066F700F0C282C2B282EF33F084EF33F07DEF3322
:10670700F0C350C4CF09F00A6A09C00AF0096A0940
:1067170010076E0A50086E1200000E106E000E0F62
:106727006EA1EF33F00EC001F0026A0CC003F00D4A
:10673700C004F0F9EC37F00F4A102A0F500A24D999
:106747006E10500B20DA6EDF500E6E0E50D8A4AFCD
:10675700EF33F0B1EF33F096EF33F01200C5B0B777
:10676700EF33F0B9EF33F0B2EF33F0C5B2BEEF332A
:10677700F0C0EF33F0B2EF33F0C5B4C5EF33F0C775
:10678700EF33F0B2EF33F0C5B6CCEF33F0CEEF33E3
:10679700F0B2EF33F0C7B4D3EF33F0D5EF33F0B245
:1067A700EF33F01200000E046E000E036EEFEF33AE
:1067B700F0000E066E000E056E054A062A06500901
:1067C700E1A50E055CD8A0EBEF33F0EDEF33F0E079
:1067D700EF33F0034A042A0150035C02500458D8EF
:1067E700A0F8EF33F0FAEF33F0DCEF33F0120047A5
:1067F7000E4D6E000E4E6E43C04FF044C050F00079
:106807000E536E000E526E000E5A6E000E596E4FEA
:106817000E3B6E000E3C6E45C03DF046C03EF04D4F
:106827000E3F6E000E406E6DEC34F052504324D98B
:106837006E53504420DA6EDF6A1200086E08C007F4
:10684700F0F00E07168A500F0B07108A6E8A948A8B
:106857008600F08A96000E026E010E016ED6EC33AA
:10686700F008C007F0073AF00E07168A500F0B071B
:10687700108A6E8A8600F08A96000E026E030E0159
:106887006ED6EC33F01200086E08C007F0F00E0762
:10689700168A500F0B07108A6E8A848A8600F08A40
:1068A70096000E026E010E016ED6EC33F008C0079B
:1068B700F0073AF00E07168A500F0B07108A6E8AF8
:1068C7008600F08A96000E026E030E016ED6EC3338
:1068D700F012003DC041F03EC042F081EF34F03B82
:1068E700C029F03CC02AF0410E2B6E000E2C6E3FE3
:1068F700C02DF040C02EF0D4EC3DF041C0F6FF4271
:10690700C0F7FF0800F5500009D8A48DEF34F08FC9
:10691700EF34F073EF34F0000E3C6E000E3B6E1256
:1069270000000E046E000E036ECBEC32F0086E0012
:106937000E046E010E036ECBEC32F0096E0950089F
:10694700C006F0076A06C007F0066A061000016E67
:106957006F07506F6F6E2906E16F29D8A4B6EF3421
:10696700F0B8EF34F0BCEF34F0000E6F6F000E6E2E
:106977006F1200D3EF34F009C0F6FF0AC0F7FFF833
:106987006A070EF76403D00800F55005D0F6CFE18B
:10699700FFF7CFE2FFE75047EC34F0094A0A2A092C
:1069A700C0F6FF0AC0F7FFF86A070EF76403D008BE
:1069B70000F55005D0F6CFE1FFF7CFE2FFE7500033
:1069C70009D8A4E9EF34F0EBEF34F0BFEF34F0125D
:1069D70000096E19EF35F08C80070E026ED00E019C
:1069E7006ED6EC33F08C9032EF35F08C80000E02CF
:1069F7006EFA0E016ED6EC33F08C90000E026E64C8
:106A07000E016ED6EC33F08C80000E026EFA0E018A
:106A17006ED6EC33F0F6EF34F08C80000E026E6425
:106A27000E016ED6EC33F0F6EF34F00950076E081E
:106A37006A0850000AD8B423EF35F032EF35F00773
:106A470050010AD8B4EFEF34F0030AD8B4F9EF34A1
:106A5700F0010AD8B410EF35F032EF35F012000E1E
:106A67006E0E04D8A43AEF35F03CEF35F043EF351E
:106A7700F00B500F0B80090F6E0F5021EC34F00212
:106A87000E0E18D8A44AEF35F04CEF35F053EF351A
:106A9700F00B500F0BC0090F6E0F5021EC34F003B1
:106AA7000E0E18D8A45AEF35F05CEF35F063EF35CA
:106AB700F00B500F0B94090F6E0F5021EC34F004BC
:106AC7000E0E18D8A46AEF35F06CEF35F073EF357A
:106AD700F00B500F0BD4090F6E0F5021EC34F00C54
:106AE700C009F00DC00AF0BDEC34F012000AEC3218
:106AF700F0D00E45EC32F0000E45EC32F001EC32EE
:106B0700F0D10E45EC32F0010E33EC33F003C0D96F
:106B1700FF04C0DAFFDF6E20EE01F00350D9260430
:106B270050DA22010E33EC33F0DF6E20EE02F00371
:106B370050D9260450DA22010E33EC33F0DF6E20F1
:106B4700EE03F00350D9260450DA22010E33EC335A
:106B5700F0DF6E20EE04F00350D9260450DA22014C
:106B67000E33EC33F0DF6E20EE05F00350D9260428
:106B770050DA22010E33EC33F0DF6E20EE06F0031D
:106B870050D9260450DA22000E33EC33F0DF6E13AF
:106B9700EC32F01200000170A1D4EF35F0D6EF35DA
:106BA700F0E0EF35F013C00AF014C00BF011C00C81
:106BB700F012C00DF090EC33F016BEE5EF35F0E7BC
:106BC700EF35F0EDEF35F015C01AF016C01BF0F1F8
:106BD700EF35F0000E1B6E000E1A6E000E196E00D8
:106BE7000E186E03EF36F0000E026E200E016E11C6
:106BF700C003F012C004F0F9EC37F0184A192A1A4A
:106C070050185C1950800A176E1B50800A1758D805
:106C1700A010EF36F012EF36F0F7EF35F000017005
:106C2700B118EF36F01AEF36F024EF36F013C00A3A
:106C3700F014C00BF011C00CF012C00DF090EC3343
:106C4700F01200000E066E02BE2EEF36F02CEF3665
:106C5700F034EF36F0016C021ED8B0022A010E069E
:106C67006E04BE3BEF36F039EF36F03FEF36F003F8
:106C77006C041ED8B0042A03500410D8B446EF366B
:106C8700F048EF36F06CEF36F0010E056E50EF3638
:106C9700F0D89003360436052A04AE55EF36F05780
:106CA700EF36F04CEF36F00350015C04500258D831
:106CB700A060EF36F062EF36F066EF36F003500172
:106CC7005E0450025AD89004320332052E57EF362D
:106CD700F00650D8B472EF36F074EF36F078EF362E
:106CE700F0016C021ED8B0022A01C001F002C002F6
:106CF700F0120020EE02F05D50D9265E50DA22DF56
:106D0700500001D16F0F0ED11720EE02F05D50D960
:106D1700265E50DA22DF50D26FD2390F0B0A0DF3FD
:106D270050D125D36F20EE01F05D50D9265E50DAA1
:106D370022DF50D16F0F0ED11720EE01F05D50D931
:106D4700265E50DA22DF50D26FD2390F0B0A0DF3CD
:106D570050D125D46F5DC0D9FF5EC0DAFFDF50D1B7
:106D67006F0F0ED1175DC0D9FF5EC0DAFFDF50D2BB
:106D77006FD2390F0B0A0DF350D125D56F5BC04386
:106D8700F05CC044F0B40E456E7F0E466ED3C0472C
:106D9700F0486AD4C049F04A6AD5C04BF04C6AFB48
:106DA700EC33F0120020EE04F05D50D9265E50DA85
:106DB70022DF500001D16F0F0ED11720EE04F05DD6
:106DC70050D9265E50DA22DF50D26FD2390F0B0A24
:106DD7000DF350D125D36F20EE05F05D50D9265E17
:106DE70050DA22DF50D16F0F0ED11720EE05F05D7C
:106DF70050D9265E50DA22DF50D26FD2390F0B0AF4
:106E07000DF350D125D46F20EE06F05D50D9265EE4
:106E170050DA22DF50D16F0F0ED11720EE06F05D4A
:106E270050D9265E50DA22DF50D26FD2390F0B0AC3
:106E37000DF350D125D00FD56F5BC043F05CC04434
:106E4700F0C30E456E7F0E466ED3C047F0486AD436
:106E5700C049F04A6AD5C04BF04C6AFBEC33F012DC
:106E670000000E066E04BE3DEF37F03BEF37F043F0
:106E7700EF37F0036C041ED8B0042A010E066E0229
:106E8700BE4AEF37F048EF37F050EF37F0016C02AA
:106E97001ED8B0022A010E061A000E086E000E0751
:106EA7006E03500410D8B45BEF37F05DEF37F08511
:106EB700EF37F0010E056E65EF37F0D89003360413
:106EC70036052A04AE6AEF37F06CEF37F061EF371B
:106ED700F0D890073608360350015C04500258D8A2
:106EE700A078EF37F07AEF37F07FEF37F0035001F4
:106EF7005E0450025A0780D89004320332052E6C84
:106F0700EF37F00650D8B48BEF37F08DEF37F091AD
:106F1700EF37F0076C081ED8B0082A07C001F00841
:106F2700C002F01200000E0F6E000E0E6E07C0D9E1
:106F3700FF08C0DAFFDECFF6FFDDCFF7FF0800F569
:106F4700502A0AD8A4AAEF37F0ACEF37F0E0EF37B2
:106F5700F007C0D9FF08C0DAFFDE2A000EDD2209DC
:106F6700C0D9FF0AC0DAFFDFCF0BF0020EDE26DF43
:106F7700CF0CF0000EDD220BC0D9FF0CC0DAFFDE0C
:106F8700CF0EF0DDCF0FF0F4EF37F00EC001F00FAA
:106F9700C002F0000E046E0A0E036E74EC32F00DA0
:106FA7005001240E6E000E02200F6E07C0D9FF0895
:106FB700C0DAFFDE2A000EDD2207C0D9FF08C0DADB
:106FC700FFDECFF6FFDDCFF7FF0800F550D00F0D3E
:106FD7006E090E0D64F2EF37F0F4EF37F0C9EF37B3
:106FE700F00EC007F00FC008F0120003500410D8CD
:106FF700B400EF38F002EF38F00BEF38F00350042D
:1070070010D8A409EF38F00BEF38F010EF38F00183
:1070170050F5EC31F05DEF38F020EE0AF00350D96F
:10702700260450DA22DE50DE10D8B41DEF38F01FE8
:10703700EF38F03AEF38F020EE0AF00350D9260483
:1070470050DA2210EE03F00350E1260450E222DE6C
:1070570050E65CE650800A096EDE50800A0958D86F
:10706700B038EF38F03AEF38F05DEF38F020EE0344
:10707700F00350D9260450DA22DECF05F0DDCF0623
:10708700F003C0D9FF04C0DAFFDECF07F0DDCF0879
:10709700F005500724D96E06500820DA6E01C0DFCC
:1070A700FF20EE03F00350D9260450DA22DE2A002F
:1070B7000EDD22120001C008F002C009F003C00A69
:1070C700F004C00BF00506D8A00606052806E10661
:1070D70028D8A471EF38F073EF38F080EF38F0005C
:1070E7000E026E000E016ECCEF38F0084A092A0A2C
:1070F7004A0B2A0506D8A0060608C0F6FF09C0F7FE
:10710700FF0800F5500009D8B48CEF38F08EEF383F
:10711700F0BAEF38F00AC0F6FF0BC0F7FF0800F52A
:10712700500009D8B49AEF38F09CEF38F0BAEF382E
:10713700F005500610D8B4A3EF38F0A5EF38F0BA31
:10714700EF38F008C0F6FF09C0F7FF0800F5CF07D2
:10715700F00AC0F6FF0BC0F7FF0800F5500718D874
:10716700B4B8EF38F0BAEF38F079EF38F008C0F676
:10717700FF09C0F7FF0800F5CF07F00AC0F6FF0BBD
:10718700C0F7FF0800F550075C016E026AD8A0023D
:10719700061200720ED36EE3EC32F0010EECEC3403
:1071A700F0C7EC3CF0020EECEC34F0000E70EC3360
:1071B700F007C06AF008C06BF087EC32F080BCE7DC
:1071C700EF38F0E9EF38F019EF39F0000E026E32C0
:1071D7000E016ED6EC33F080BCF4EF38F0F6EF38E2
:1071E700F019EF39F05F04D8A4FCEF38F0FEEF3860
:1071F700F007EF39F0000E00016F6F000E6E6F623F
:10720700EC32F012EF39F082688C8E070E026ED0E6
:107217000E016ED6EC33F0000E826E8C9E80AC179A
:10722700EF39F019EF39F012EF39F080B41EEF396A
:10723700F020EF39F047EF39F05F04D8A426EF3993
:10724700F028EF39F047EF39F0000E026E320E01E9
:107257006ED6EC33F080B433EF39F035EF39F047C1
:10726700EF39F05F50D8B43BEF39F03EEF39F0011A
:107277000E3FEF39F0000E5F6E000E0001746F00D5
:107287000E826E8C9E8C96000E80B4010E0001D08B
:107297006F5F50D8A452EF39F054EF39F058EF39F7
:1072A700F03DEC3AF05AEF39F00AEC3BF000016898
:1072B70051D86F6951D96F684B692BD95109E132A0
:1072C7000ED85DD8A06AEF39F06CEF39F071EF395D
:1072D700F0000E696F000E686F8C72000E026E0A66
:1072E7000E016ED6EC33F000016C4B6D2BD9EF38E5
:1072F700F000EF00F020EEC6F010EE0FF0060EDB08
:10730700CFE3FFE806FCE20CC01AF00DC01BF01A31
:10731700501B10D8A492EF39F094EF39F098EF3959
:10732700F00F0E1A6E000E1B6E1AC001F01BC00282
:10733700F0FCEC32F001C01EF002C01FF062C01C6E
:10734700F063C01DF01DBEABEF39F0ADEF39F0C2F1
:10735700EF39F01E501C5C1D50800A0E6E1F5080C6
:107367000A0E58D8A0BAEF39F0BCEF39F0BEEF39A2
:10737700F0C2EF39F01CC01EF01DC01FF01EC01C6C
:10738700F01FC01DF060C018F061C019F000017057
:10739700B1D0EF39F0D2EF39F0EFEF39F0E0EF3954
:1073A700F0000E026E200E016E0AC003F00BC0043F
:1073B700F0F9EC37F01E4A1F2A18501E5C1F508048
:1073C7000A0E6E1950800A0E58D8A0EDEF39F0EF6B
:1073D700EF39F0D4EF39F0000E176E000E166E0875
:1073E700EF3AF01AC0D9FF1BC0DAFFDF500E6E0E5E
:1073F70050016E026A0AC003F00BC004F0F9EC37C3
:10740700F01A4A1B2A164A172A1C50165C17508076
:107417000A0E6E1D50800A0E58D8A015EF3AF017C5
:10742700EF3AF0F5EF39F0000170A11DEF3AF01FC8
:10743700EF3AF03CEF3AF02DEF3AF0000E026E20F3
:107447000E016E0AC003F00BC004F0F9EC37F01E12
:107457004A1F2A18501E5C1F50800A0E6E19508052
:107467000A0E58D8A03AEF3AF03CEF3AF021EF3A3B
:10747700F0120080B642EF3AF044EF3AF066EF3A86
:10748700F00001CF05D8A44BEF3AF04DEF3AF06684
:10749700EF3AF0000E026E320E016ED6EC33F0803A
:1074A700B658EF3AF05AEF3AF066EF3AF000017546
:1074B7002B070E756562EF3AF064EF3AF066EF3A24
:1074C700F0000E756F000E80B6010E0001CF6F80C1
:1074D700B870EF3AF072EF3AF095EF3AF0CE05D880
:1074E700A478EF3AF07AEF3AF095EF3AF0000E020F
:1074F7006E320E016ED6EC33F080B885EF3AF08726
:10750700EF3AF095EF3AF000017551D8A48EEF3AB3
:10751700F090EF3AF094EF3AF0070E756F95EF3A67
:10752700F07507000E80B8010E0001CE6F80BA9F7C
:10753700EF3AF0A1EF3AF004EF3BF0CD05D8A4A75E
:10754700EF3AF0A9EF3AF004EF3BF0000E026E328B
:107557000E016ED6EC33F080BAB4EF3AF0B6EF3ADC
:10756700F004EF3BF0000E826E8C9ECDEF3AF08B6D
:1075770080FBEF3AF08B82FBEF3AF08B84FBEF3A1C
:10758700F08B8CFBEF3AF08B8EFBEF3AF08C8EFB97
:10759700EF3AF000017551076E086A0850000AD8E3
:1075A700B4D8EF3AF0FBEF3AF00750000AD8B4BB73
:1075B700EF3AF0010AD8B4BEEF3AF0030AD8B4C1E3
:1075C700EF3AF0010AD8B4C1EF3AF0070AD8B4C1CC
:1075D700EF3AF0010AD8B4C4EF3AF0030AD8B4C7B7
:1075E700EF3AF0010AD8B4CAEF3AF0FBEF3AF007E6
:1075F7000E026ED00E016ED6EC33F0000E826E8C4A
:107607009E000E80BA010E0001CD6F1200000173BB
:1076170051D8B411EF3BF013EF3BF0C6EF3BF0004E
:107627000E746F8C96000E826E8C9EDFEF3BF0001F
:107637000E746F8C9664510A6E65510B6E644B65C0
:107647002BB80E0A5C0B0E0B58D8A02DEF3BF02F72
:10765700EF3BF0DFEF3BF0010E716F000E656F003F
:107667000E646F000E726F010E746F8C866E4B6F17
:107677002B62EC32F0DFEF3BF08B807FEF3BF08B40
:10768700827FEF3BF08B847FEF3BF08B8C7FEF3B70
:10769700F08B8E7FEF3BF08C8E7FEF3BF072510AC1
:1076A7006E0B6A0B50000AD8B45CEF3BF07FEF3BE0
:1076B700F00A50000AD8B440EF3BF0010AD8B443AF
:1076C700EF3BF0030AD8B446EF3BF0010AD8B446C3
:1076D700EF3BF0070AD8B446EF3BF0010AD8B449AC
:1076E700EF3BF0030AD8B44CEF3BF0010AD8B44F94
:1076F700EF3BF07FEF3BF064510A6E65510B6E6410
:107707004B652B0B5009E1C80E0A5CD8A08EEF3BE6
:10771700F090EF3BF0DFEF3BF0000E826E8C9E02A5
:107727000E716F000E656F000E646F722B070E727D
:1077370065A0EF3BF0A2EF3BF0DFEF3BF0000E71EF
:107747006F000E656F000E646F000E746F8C96DF0E
:10775700EF3BF064510A6E65510B6E644B652BF479
:107767000E0A5C010E0B58D8A0BCEF3BF0BEEF3BF6
:10777700F0DFEF3BF0010E716F000E656F000E64D6
:107787006FDFEF3BF071510A6E0B6A0B50000AD89E
:10779700B4D0EF3BF0DFEF3BF00A50000AD8B41B40
:1077A700EF3BF0010AD8B452EF3BF0030AD8B4AD6F
:1077B700EF3BF0DFEF3BF012001FBEE5EF3BF0E8D9
:1077C700EF3BF0010EE9EF3BF0000E286E2850D892
:1077D700B4F0EF3BF0F2EF3BF0F6EF3BF01E6C1F1F
:1077E7001ED8B01F2A000163BFFCEF3BF0FEEF3B42
:1077F700F0FFEF3BF0709363BF06EF3CF004EF3C04
:10780700F00CEF3CF0000E236E010E226E10EF3CE1
:10781700F062C022F063C023F060C024F061C0258D
:10782700F02850D8B41AEF3CF01CEF3CF033EF3C93
:10783700F02406D8A025062850D8A425EF3CF02729
:10784700EF3CF02DEF3CF0000E216E2B0E206E3139
:10785700EF3CF0000E216E2D0E206E20C028F000A8
:107867000E276E1F0E266E000E956F6BEF3CF026EF
:1078770006D8A02706760E2624D96E000E2720DA12
:107887006E1EC001F01FC002F0000E046E0A0E0348
:107897006E25EC36F001C007F002C008F050EC335B
:1078A700F00750300FDF6E2206D8A023062406D833
:1078B700A025061EC001F01FC002F0000E046E0ACC
:1078C7000E036E34EC37F001C01EF002C01FF02724
:1078D700BE76EF3CF0275008E12604D8A076EF3CAF
:1078E700F078EF3CF0A3EF3CF01E501F10D8A47FB8
:1078F700EF3CF081EF3CF03BEF3CF023BE8EEF3CDA
:10790700F0235006E12204D8B08CEF3CF08EEF3C18
:10791700F03BEF3CF025BE99EF3CF0255008E12401
:1079270004D8A099EF3CF09BEF3CF0A3EF3CF000AC
:107937000170B3A1EF3CF0A3EF3CF03BEF3CF02824
:1079470050D8B4A9EF3CF0ABEF3CF0B6EF3CF026D3
:1079570006D8A02706760E2624D96E000E2720DA31
:107967006E28C0DFFF1CC011F01DC012F0760E2676
:1079770024136E000E2720146E24C015F025C016A0
:10798700F0CEEC35F012001CEC32F0070E0B6EEC6B
:107997000E0C6E7F0E0D6E010E33EC35F0000E0BE4
:1079A7006E3B0E0C6E7F0E0D6E020E33EC35F00241
:1079B7000E0B6E730E0C6E7F0E0D6E030E33EC35D1
:1079C700F0030E0B6EA50E0C6E7F0E0D6E040E33BC
:1079D700EC35F00B0E026EB80E016ED6EC33F01CD0
:1079E700EC32F0020E0B6E4F0E0C6E7F0E0D6E0119
:1079F7000E33EC35F0040E0B6ED20E0C6E7F0E0DAF
:107A07006E020E33EC35F0010E0B6E610E0C6E7FBD
:107A17000E0D6E030E33EC35F0030E0B6E950E0C48
:107A27006E7F0E0D6E040E33EC35F00B0E026EB842
:107A37000E016ED6EC33F01CEC32F0020E0B6E85A5
:107A47000E0C6E7F0E0D6E010E33EC35F0BF0E037C
:107A57006E000E046E7AEC35F0B60E5B6E000E5CAF
:107A67006EBF0E5D6E000E5E6E7DEC36F0AB0E5B8C
:107A77006E000E5C6EBF0E5D6E000E5E6ED6EC364F
:107A8700F0000E0B6EB60E0C6E000E0D6E020E336E
:107A9700EC35F0000E0B6EAB0E0C6E000E0D6E0388
:107AA7000E33EC35F0960E436E000E446EDF0E4536
:107AB7006E7F0E466E6EC047F06FC048F0FBEC332A
:107AC700F0000E0B6E960E0C6E000E0D6E040E334C
:107AD700EC35F00B0E026EB80E016ED6EC33F01CCF
:107AE700EC32F0030E0B6E950E0C6E7F0E0D6E01D1
:107AF7000E33EC35F0960E436E000E446EF30E45D2
:107B07006E7F0E466EB60E476E000E486EAB0E4980
:107B17006E000E4A6EFBEC33F0000E0B6E960E0CE9
:107B27006E000E0D6E020E33EC35F05F50D8A49F39
:107B3700EF3DF0A1EF3DF0A8EF3DF09B0E0001D621
:107B47006F7E0ED76FADEF3DF0EB0E0001D66F7E67
:107B57000ED76F000E0B6ED6C00CF0D7C00DF0031A
:107B67000E33EC35F0960E436E000E446EDF0E4575
:107B77006E7F0E466E6EC047F06FC048F0FBEC3369
:107B8700F0000E0B6E960E0C6E000E0D6E040E338B
:107B9700EC35F00B0E026EB80E016ED6EC33F01218
:107BA700002BC0D9FF2CC0DAFFDECFF6FFDDCFF701
:107BB700FF0800F550250AD8A4E4EF3DF0E6EF3DB5
:107BC700F038EF3FF02BC0D9FF2CC0DAFFDE2A00D8
:107BD7000EDD22000E0001616F000E606F60C07045
:107BE700F062696369000E366E000E356E27EF3E50
:107BF700F0000170832BC0D9FF2CC0DAFFDE2A000A
:107C07000EDD2227EF3EF0000E366E010E356E2791
:107C1700EF3EF02BC0D9FF2CC0DAFFDECFF6FFDD39
:107C2700CFF7FF0800F5502F6E306A3050000AD8A2
:107C3700B420EF3EF007EF3EF02F50300AD8B4FCE7
:107C4700EF3DF007EF3EF035503610D8B42EEF3E3B
:107C5700F030EF3EF00DEF3EF02BC007F02CC008E0
:107C6700F02DC009F02EC00AF096EC37F007C0607F
:107C7700F008C061F0000161BF46EF3EF044EF3EFF
:107C8700F04BEF3EF07081606D611FD8B0612B2B18
:107C9700C0D9FF2CC0DAFFDECF39F0DDCF3AF0399B
:107CA700C0F6FF3AC0F7FF0800F550640AD8B45F82
:107CB700EF3EF061EF3EF06FEF3EF039C0F6FF3A6E
:107CC700C0F7FF0800F550690AD8A46DEF3EF06FC2
:107CD700EF3EF09DEF3EF02DC0D9FF2EC0DAFFDF5B
:107CE700CF2FF0020EDE26DFCF30F0000EDD222F81
:107CF700C0D9FF30C0DAFFDECF31F0DDCF32F0017F
:107D07000E39242F6E000E3A20306E2BC0D9FF2C6F
:107D1700C0DAFF2FC0DEFF30C0DDFF29C01CF02A0C
:107D2700C01DF031C01EF032C01FF0E0EC3BF04C3C
:107D3700EF3FF02BC0D9FF2CC0DAFFDECFF6FFDD17
:107D4700CFF7FF0800F550730AD8B4ADEF3EF0AF98
:107D5700EF3EF0CAEF3EF02BC0D9FF2CC0DAFFDEB2
:107D6700CF01F0DDCF02F0FA0E036E7F0E046E0036
:107D77000E066E030E056E5EEC38F001500210D849
:107D8700A4C8EF3EF0CAEF3EF00AEF3FF02BC0D990
:107D9700FF2CC0DAFFDECFF6FFDDCFF7FF0800F5D7
:107DA70050730AD8B4DAEF3EF0DCEF3EF0E2EF3E74
:107DB700F0000E386E030E376EE6EF3EF0000E3819
:107DC7006E010E376E2BC0D9FF2CC0DAFF3750DE9D
:107DD700263850DD2229C00AF02AC00BF02DC0D961
:107DE700FF2EC0DAFFDFCF2FF0020EDE26DFCF3007
:107DF700F0000EDD222FC0D9FF30C0DAFFDECF0C36
:107E0700F0DDCF0DF07EEC39F04CEF3FF02BC0D911
:107E1700FF2CC0DAFFDECFF6FFDDCFF7FF0800F556
:107E270050250AD8A41AEF3FF01CEF3FF02FEF3F81
:107E3700F02BC0D9FF2CC0DAFFDE2A000EDD2200AE
:107E47000E026E250E016E29C003F02AC004F0F958
:107E5700EC37F04CEF3FF02BC0D9FF2CC0DAFFDE38
:107E67002A000EDD224CEF3FF02BC0D9FF2CC0DAE1
:107E7700FFDECFF6FFDDCFF7FF0800F550016E02FA
:107E87006A29C003F02AC004F0F9EC37F02FEF3F5E
:107E9700F01200004D6F646F3A204D616E75616C92
:107EA70020202020202020004D616E75616C202D40
:107EB70020563A256420202020202000433A2530F0
:107EC700346420503A2533642525202020202000C3
:107ED70046696C74726F206465204D616E6761201E
:107EE700202020004D6F646F3A204175746F6D61DB
:107EF7007469636F2020200046414C48412120507F
:107F07007265737320416C74612020004175746F32
:107F1700202D20416775617264616E646F202000B7
:107F27004175746F202D204369636C6F204174691C
:107F3700766F2000456E67656E68617269612045DE
:107F47006C6574726963610057656C696E67746FFD
:107F57006E20436F7272656961005365712E456CBF
:107F67006574722E4C696D70657A610050726F6A24
:107F770065746F20496E7465677261646F0053653D
:107F87006A612042656D2056696E646F21004669FB
:107F97006C74726F206465204D616E676100456D7A
:107FA70020456C6574726963612049490025303248
:107FB700643A253032643A25303264002530326421
:107FC7002F253032642F25303464005241203A2067
:107FD70031303633363737004369636C6F733A2075
:107FE7002530346400554E495542450025732020FD
:087FF7002573006C6C7300009F
:020000040030CA
:0E0000000009191EFF0181FF0FC00FE00F4025
:00000001FF
