:040000003FEF33F0AB
:10645A0012000E0EC16EBE0EC06E1200000E0001BA
:06646A00736F8C94120018
:10647100286E756C6C290001010101C582C5B24409
:10648100EF32F046EF32F03FEF32F01200C580C537
:10649100B04DEF32F04FEF32F048EF32F01200C55D
:1064A10084C5B456EF32F058EF32F051EF32F012AA
:1064B10000010E29EC34F0000E026E030E016EDEB7
:1064C100EC33F01200C59AC588C5B86AEF32F06C9A
:1064D100EF32F065EF32F01200C58AC588C5B87495
:1064E100EF32F076EF32F06FEF32F01200938293D9
:1064F10080800EC76E280EC66E000EC56E040EC8D3
:106501006E1200016E01C0C9FFC7B08AEF32F08C74
:10651100EF32F085EF32F0BAEC33F0120077EC3263
:10652100F047EC32F0D00E82EC32F0070E82EC3202
:10653100F0000E82EC32F050EC32F01200000E0846
:106541006E000E076E00016F51096EC4EC32F0004F
:106551000E086E010E076E6EC009F0C4EC32F01227
:106561000001500302F3CF05F0F4CF06F00150040F
:1065710002F350062602500302F350062605C0011D
:10658100F006C002F0120047EC32F0A00E82EC32AD
:10659100F0085082EC32F0075082EC32F009508260
:1065A100EC32F050EC32F0000E026E0A0E016EDE9B
:1065B100EC33F01200000E936E000E026E0F0E010E
:1065C1006EDEEC33F0020E29EC34F0280E29EC34A7
:1065D100F0010E29EC34F00C0E29EC34F0060E29F2
:1065E100EC34F0120047EC32F0A00E82EC32F004F1
:1065F1005082EC32F0035082EC32F03EEC32F0A1EA
:106601000E82EC32F0000E5BEC33F0056E50EC3292
:10661100F005501200000E956E000E946E000E8271
:106621006E000E836E928492869288928A928C92E8
:1066310080DBEC32F08FEC32F02EEC32F077EC3282
:10664100F09CEC34F0120001C003F002C004F02C05
:10665100EF33F0014A022A01C0D9FF02C0DAFFDF9D
:1066610050D8A436EF33F038EF33F02AEF33F0038C
:1066710050015C016E04500258026E1200710EF658
:106681006E640EF76E000EF86E00EEC6F010EE0BA3
:10669100F00900F5CFEEFFE550E150FAE100EE60C0
:1066A100F0660EEE6AE806FDE15F6A000EF86E0024
:1066B10001D5EF38F0016EC586C7A062EF33F064F3
:1066C100EF33F05DEF33F0C9CF02F0BAEC33F001F4
:1066D10004D8A46EEF33F070EF33F074EF33F0634E
:1066E100EC32F076EF33F06DEC32F002501200082C
:1066F100BE85EF33F0085006E10704D8B083EF33CD
:10670100F085EF33F093EF33F007C009F008C00ACA
:10671100F0091E0A1E094A0A2A09C007F00AC00820
:10672100F097EF33F007C007F008C008F01200003F
:106731000E106E000E0F6EA9EF33F00EC001F002C5
:106741006A0CC003F00DC004F001EC38F00F4A10E0
:106751002A0F500A24D96E10500B20DA6EDF500E2A
:106761006E0E50D8A4B7EF33F0B9EF33F09EEF338C
:10677100F01200C5B0BFEF33F0C1EF33F0BAEF3321
:10678100F0C5B2C6EF33F0C8EF33F0BAEF33F0C55E
:10679100B4CDEF33F0CFEF33F0BAEF33F0C5B6D469
:1067A100EF33F0D6EF33F0BAEF33F0C7B4DBEF33AA
:1067B100F0DDEF33F0BAEF33F01200000E046E009B
:1067C1000E036EF7EF33F0000E066E000E056E0538
:1067D1004A062A065009E1A50E055CD8A0F3EF335D
:1067E100F0F5EF33F0E8EF33F0034A042A015003E8
:1067F1005C02500458D8A000EF34F002EF34F0E40A
:10680100EF33F01200470E4D6E000E4E6E43C04F37
:10681100F044C050F0000E536E000E526E000E5A3E
:106821006E000E596E4F0E3B6E000E3C6E45C03D24
:10683100F046C03EF04D0E3F6E000E406E75EC34DA
:10684100F052504324D96E53504420DA6EDF6A125D
:1068510000086E08C007F0F00E07168A500F0B07EC
:10686100108A6E8A948A8600F08A96000E026E0162
:106871000E016EDEEC33F008C007F0073AF00E07A8
:10688100168A500F0B07108A6E8A8600F08A9600CE
:106891000E026E030E016EDEEC33F01200086E087C
:1068A100C007F0F00E07168A500F0B07108A6E8A88
:1068B100848A8600F08A96000E026E010E016EDE59
:1068C100EC33F008C007F0073AF00E07168A500FB4
:1068D1000B07108A6E8A8600F08A96000E026E03FC
:1068E1000E016EDEEC33F012003DC041F03EC042BD
:1068F100F089EF34F03BC029F03CC02AF0410E2B67
:106901006E000E2C6E3FC02DF040C02EF0D4EC3D39
:10691100F041C0F6FF42C0F7FF0800F5500009D86A
:10692100A495EF34F097EF34F07BEF34F0000E3C98
:106931006E000E3B6E1200000E046E000E036EF32D
:10694100EC32F0086E000E046E010E036EF3EC32B1
:10695100F0096E095008C006F0076A06C007F00684
:106961006A061000016E6F07506F6F6E2906E16FA6
:1069710029D8A4BEEF34F0C0EF34F0C4EF34F000F6
:106981000E6F6F000E6E6F1200DBEF34F009C0F670
:10699100FF0AC0F7FFF86A070EF76403D00800F595
:1069A1005005D0F6CFE1FFF7CFE2FFE7504FEC34CF
:1069B100F0094A0A2A09C0F6FF0AC0F7FFF86A0778
:1069C1000EF76403D00800F55005D0F6CFE1FFF7CC
:1069D100CFE2FFE7500009D8A4F1EF34F0F3EF3430
:1069E100F0C7EF34F01200096E21EF35F08C80070B
:1069F1000E026ED00E016EDEEC33F08C903AEF3564
:106A0100F08C80000E026EFA0E016EDEEC33F08C1B
:106A110090000E026E640E016EDEEC33F08C80008D
:106A21000E026EFA0E016EDEEC33F0FEEF34F08CE6
:106A310080000E026E640E016EDEEC33F0FEEF3468
:106A4100F00950076E086A0850000AD8B42BEF35D8
:106A5100F03AEF35F00750010AD8B4F7EF34F003FC
:106A61000AD8B401EF35F0010AD8B418EF35F03A7D
:106A7100EF35F012000E6E0E04D8A442EF35F0444B
:106A8100EF35F04BEF35F00B500F0B80090F6E0F08
:106A91005029EC34F0020E0E18D8A452EF35F05400
:106AA100EF35F05BEF35F00B500F0BC0090F6E0F98
:106AB1005029EC34F0030E0E18D8A462EF35F064BF
:106AC100EF35F06BEF35F00B500F0B94090F6E0F94
:106AD1005029EC34F0040E0E18D8A472EF35F0747E
:106AE100EF35F07BEF35F00B500F0BD4090F6E0F24
:106AF1005029EC34F00CC009F00DC00AF0C5EC349B
:106B0100F0120047EC32F0D00E82EC32F0000E822F
:106B1100EC32F03EEC32F0D10E82EC32F0010E5B41
:106B2100EC33F003C0D9FF04C0DAFFDF6E20EE01C1
:106B3100F00350D9260450DA22010E5BEC33F0DF6A
:106B41006E20EE02F00350D9260450DA22010E5BCA
:106B5100EC33F0DF6E20EE03F00350D9260450DA57
:106B610022010E5BEC33F0DF6E20EE04F00350D90E
:106B7100260450DA22010E5BEC33F0DF6E20EE05C5
:106B8100F00350D9260450DA22010E5BEC33F0DF1A
:106B91006E20EE06F00350D9260450DA22000E5B77
:106BA100EC33F0DF6E50EC32F01200000170A1DC2A
:106BB100EF35F0DEEF35F0E8EF35F013C00AF014F1
:106BC100C00BF011C00CF012C00DF098EC33F016B0
:106BD100BEEDEF35F0EFEF35F0F5EF35F015C01AFA
:106BE100F016C01BF0F9EF35F0000E1B6E000E1A07
:106BF1006E000E196E000E186E0BEF36F0000E02CD
:106C01006E200E016E11C003F012C004F001EC38C9
:106C1100F0184A192A1A50185C1950800A176E1B6D
:106C210050800A1758D8A018EF36F01AEF36F0FF47
:106C3100EF35F0000170B120EF36F022EF36F02C85
:106C4100EF36F013C00AF014C00BF011C00CF012B3
:106C5100C00DF098EC33F01200000E066E02BE3645
:106C6100EF36F034EF36F03CEF36F0016C021ED80F
:106C7100B0022A010E066E04BE43EF36F041EF3634
:106C8100F047EF36F0036C041ED8B0042A03500419
:106C910010D8B44EEF36F050EF36F074EF36F00105
:106CA1000E056E58EF36F0D89003360436052A04E7
:106CB100AE5DEF36F05FEF36F054EF36F003500182
:106CC1005C04500258D8A068EF36F06AEF36F06ED7
:106CD100EF36F00350015E0450025AD8900432039B
:106CE10032052E5FEF36F00650D8B47AEF36F07CDD
:106CF100EF36F080EF36F0016C021ED8B0022A01A7
:106D0100C001F002C002F0120020EE02F05D50D985
:106D1100265E50DA22DF500001D16F0F0ED117200D
:106D2100EE02F05D50D9265E50DA22DF50D26FD2EA
:106D3100390F0B0A0DF350D125D36F20EE01F05D11
:106D410050D9265E50DA22DF50D16F0F0ED11720B5
:106D5100EE01F05D50D9265E50DA22DF50D26FD2BB
:106D6100390F0B0A0DF350D125D46F5DC0D9FF5EE9
:106D7100C0DAFFDF50D16F0F0ED1175DC0D9FF5EB2
:106D8100C0DAFFDF50D26FD2390F0B0A0DF350D1A9
:106D910025D56F5BC043F05CC044F0B40E456E7FF7
:106DA1000E466ED3C047F0486AD4C049F04A6AD54E
:106DB100C04BF04C6A03EC34F0120020EE04F05D9D
:106DC10050D9265E50DA22DF500001D16F0F0ED16B
:106DD1001720EE04F05D50D9265E50DA22DF50D242
:106DE1006FD2390F0B0A0DF350D125D36F20EE0569
:106DF100F05D50D9265E50DA22DF50D16F0F0ED1EF
:106E01001720EE05F05D50D9265E50DA22DF50D210
:106E11006FD2390F0B0A0DF350D125D46F20EE0636
:106E2100F05D50D9265E50DA22DF50D16F0F0ED1BE
:106E31001720EE06F05D50D9265E50DA22DF50D2DF
:106E41006FD2390F0B0A0DF350D125D00FD56F5BDF
:106E5100C043F05CC044F0C30E456E7F0E466ED356
:106E6100C047F0486AD4C049F04A6AD5C04BF04CDB
:106E71006A03EC34F01200000E066E04BE45EF37D3
:106E8100F043EF37F04BEF37F0036C041ED8B0043A
:106E91002A010E066E02BE52EF37F050EF37F0585E
:106EA100EF37F0016C021ED8B0022A010E061A005B
:106EB1000E086E000E076E03500410D8B463EF374E
:106EC100F065EF37F08DEF37F0010E056E6DEF379E
:106ED100F0D89003360436052A04AE72EF37F07409
:106EE100EF37F069EF37F0D89007360836035001D5
:106EF1005C04500258D8A080EF37F082EF37F0875A
:106F0100EF37F00350015E0450025A0780D8900415
:106F1100320332052E74EF37F00650D8B493EF37B1
:106F2100F095EF37F099EF37F0076C081ED8B008ED
:106F31002A07C001F008C002F01200000E0F6E0017
:106F41000E0E6E07C0D9FF08C0DAFFDECFF6FFDDF7
:106F5100CFF7FF0800F5502A0AD8A4B2EF37F0B4F2
:106F6100EF37F0E8EF37F007C0D9FF08C0DAFFDEEE
:106F71002A000EDD2209C0D9FF0AC0DAFFDFCF0BDC
:106F8100F0020EDE26DFCF0CF0000EDD220BC0D9A1
:106F9100FF0CC0DAFFDECF0EF0DDCF0FF0FCEF37D4
:106FA100F00EC001F00FC002F0000E046E0A0E03D5
:106FB1006EB1EC32F00D5001240E6E000E02200F66
:106FC1006E07C0D9FF08C0DAFFDE2A000EDD2207F6
:106FD100C0D9FF08C0DAFFDECFF6FFDDCFF7FF082B
:106FE10000F550D00F0D6E090E0D64FAEF37F0FC6D
:106FF100EF37F0D1EF37F00EC007F00FC008F012F5
:107001000003500410D8B408EF38F00AEF38F01339
:10701100EF38F003500410D8A411EF38F013EF3813
:10702100F018EF38F001502DEC32F065EF38F02018
:10703100EE0AF00350D9260450DA22DE50DE10D8D1
:10704100B425EF38F027EF38F042EF38F020EE0AA0
:10705100F00350D9260450DA2210EE03F00350E178
:10706100260450E222DE50E65CE650800A096EDE1C
:1070710050800A0958D8B040EF38F042EF38F06537
:10708100EF38F020EE03F00350D9260450DA22DE67
:10709100CF05F0DDCF06F003C0D9FF04C0DAFFDE73
:1070A100CF07F0DDCF08F005500724D96E06500850
:1070B10020DA6E01C0DFFF20EE03F00350D9260471
:1070C10050DA22DE2A000EDD22120001C008F00291
:1070D100C009F003C00AF004C00BF00506D8A006F1
:1070E10006052806E10628D8A479EF38F07BEF38A9
:1070F100F088EF38F0000E026E000E016ED4EF380A
:10710100F0084A092A0A4A0B2A0506D8A0060608E9
:10711100C0F6FF09C0F7FF0800F5500009D8B49484
:10712100EF38F096EF38F0C2EF38F00AC0F6FF0BF7
:10713100C0F7FF0800F5500009D8B4A2EF38F0A459
:10714100EF38F0C2EF38F005500610D8B4ABEF3885
:10715100F0ADEF38F0C2EF38F008C0F6FF09C0F724
:10716100FF0800F5CF07F00AC0F6FF0BC0F7FF08D4
:1071710000F5500718D8B4C0EF38F0C2EF38F081ED
:10718100EF38F008C0F6FF09C0F7FF0800F5CF0798
:10719100F00AC0F6FF0BC0F7FF0800F550075C01CD
:1071A1006E026AD8A002061200720ED36E0BEC3387
:1071B100F0010EF4EC34F0C7EC3CF0020EF4EC34C8
:1071C100F033EC32F080BCE8EF38F0EAEF38F0163B
:1071D100EF39F0000E026E320E016EDEEC33F080FC
:1071E100BCF5EF38F0F7EF38F016EF39F05F04D85F
:1071F100A4FDEF38F0FFEF38F00BEF39F0000E008F
:10720100016F6F000E6E6F9FEC32F0020EF4EC34E2
:10721100F016EF39F082688C8E070E026ED00E01E7
:107221006EDEEC33F0000E826E8C9E80B41BEF3963
:10723100F01DEF39F047EF39F05F04D8A423EF399F
:10724100F025EF39F047EF39F0000E026E320E01F2
:107251006EDEEC33F080B430EF39F032EF39F047C5
:10726100EF39F05F50D8B438EF39F03BEF39F00126
:107271000E3CEF39F0000E5F6E000E0001746F00DE
:107281000E826E8C9E8C96010EF4EC34F0000E8012
:10729100B4010E0001D06F5F50D8A452EF39F05401
:1072A100EF39F058EF39F03DEC3AF05AEF39F00A86
:1072B100EC3BF000016851D86F6951D96F684B6997
:1072C1002BD95109E1320ED85DD8A06AEF39F06CA3
:1072D100EF39F071EF39F0000E696F000E686F8CB5
:1072E10072000E026E0A0E016EDEEC33F000016CCC
:1072F1004B6D2BE1EF38F000EF00F020EEC6F010FF
:10730100EE0FF0060EDBCFE3FFE806FCE20CC01A3D
:10731100F00DC01BF01A501B10D8A492EF39F09455
:10732100EF39F098EF39F00F0E1A6E000E1B6E1A3E
:10733100C001F01BC002F024EC33F001C01EF002CA
:10734100C01FF062C01CF063C01DF01DBEABEF3961
:10735100F0ADEF39F0C2EF39F01E501C5C1D5080CA
:107361000A0E6E1F50800A0E58D8A0BAEF39F0BC31
:10737100EF39F0BEEF39F0C2EF39F01CC01EF01D3D
:10738100C01FF01EC01CF01FC01DF060C018F061CE
:10739100C019F0000170B1D0EF39F0D2EF39F0EF40
:1073A100EF39F0E0EF39F0000E026E200E016E0AA7
:1073B100C003F00BC004F001EC38F01E4A1F2A187C
:1073C100501E5C1F50800A0E6E1950800A0E58D84C
:1073D100A0EDEF39F0EFEF39F0D4EF39F0000E17EF
:1073E1006E000E166E08EF3AF01AC0D9FF1BC0DA14
:1073F100FFDF500E6E0E50016E026A0AC003F00BE1
:10740100C004F001EC38F01A4A1B2A164A172A1C4C
:1074110050165C1750800A0E6E1D50800A0E58D807
:10742100A015EF3AF017EF3AF0F5EF39F0000170DF
:10743100A11DEF3AF01FEF3AF03CEF3AF02DEF3A91
:10744100F0000E026E200E016E0AC003F00BC004A4
:10745100F001EC38F01E4A1F2A18501E5C1F5080A4
:107461000A0E6E1950800A0E58D8A03AEF3AF03C35
:10747100EF3AF021EF3AF0120080B642EF3AF044D1
:10748100EF3AF066EF3AF00001CF05D8A44BEF3A9E
:10749100F04DEF3AF066EF3AF0000E026E320E0157
:1074A1006EDEEC33F080B658EF3AF05AEF3AF06600
:1074B100EF3AF00001752B070E756562EF3AF06443
:1074C100EF3AF066EF3AF0000E756F000E80B601EC
:1074D1000E0001CF6F80B870EF3AF072EF3AF0957D
:1074E100EF3AF0CE05D8A478EF3AF07AEF3AF0957A
:1074F100EF3AF0000E026E320E016EDEEC33F080D8
:10750100B885EF3AF087EF3AF095EF3AF000017560
:1075110051D8A48EEF3AF090EF3AF094EF3AF00799
:107521000E756F95EF3AF07507000E80B8010E00E9
:1075310001CE6F80BA9FEF3AF0A1EF3AF004EF3B32
:10754100F0CD05D8A4A7EF3AF0A9EF3AF004EF3B4C
:10755100F0000E026E320E016EDEEC33F080BAB432
:10756100EF3AF0B6EF3AF004EF3BF0000E826E8C8A
:107571009ECDEF3AF08B80FBEF3AF08B82FBEF3A36
:10758100F08B84FBEF3AF08B8CFBEF3AF08B8EFBA8
:10759100EF3AF08C8EFBEF3AF000017551076E085F
:1075A1006A0850000AD8B4D8EF3AF0FBEF3AF00776
:1075B10050000AD8B4BBEF3AF0010AD8B4BEEF3A92
:1075C100F0030AD8B4C1EF3AF0010AD8B4C1EF3AD6
:1075D100F0070AD8B4C1EF3AF0010AD8B4C4EF3ABF
:1075E100F0030AD8B4C7EF3AF0010AD8B4CAEF3AA7
:1075F100F0FBEF3AF0070E026ED00E016EDEEC33B7
:10760100F0000E826E8C9E000E80BA010E0001CD3C
:107611006F120000017351D8B411EF3BF013EF3B2F
:10762100F0C6EF3BF0000E746F8C96000E826E8CEC
:107631009EDFEF3BF0000E746F8C9664510A6E650D
:10764100510B6E644B652BB80E0A5C0B0E0B58D8B0
:10765100A02DEF3BF02FEF3BF0DFEF3BF0010E7180
:107661006F000E656F000E646F000E726F010E7475
:107671006F8C866E4B6F2B9FEC32F0DFEF3BF08B04
:10768100807FEF3BF08B827FEF3BF08B847FEF3B82
:10769100F08B8C7FEF3BF08B8E7FEF3BF08C8E7FFE
:1076A100EF3BF072510A6E0B6A0B50000AD8B45CC2
:1076B100EF3BF07FEF3BF00A50000AD8B440EF3BBC
:1076C100F0010AD8B443EF3BF0030AD8B446EF3BCC
:1076D100F0010AD8B446EF3BF0070AD8B446EF3BB5
:1076E100F0010AD8B449EF3BF0030AD8B44CEF3BA0
:1076F100F0010AD8B44FEF3BF07FEF3BF064510A41
:107701006E65510B6E644B652B0B5009E1C80E0A77
:107711005CD8A08EEF3BF090EF3BF0DFEF3BF00049
:107721000E826E8C9E020E716F000E656F000E64EC
:107731006F722B070E7265A0EF3BF0A2EF3BF0DFFB
:10774100EF3BF0000E716F000E656F000E646F006D
:107751000E746F8C96DFEF3BF064510A6E65510B2E
:107761006E644B652BF40E0A5C010E0B58D8A0BC5D
:10777100EF3BF0BEEF3BF0DFEF3BF0010E716F002E
:107781000E656F000E646FDFEF3BF071510A6E0BF7
:107791006A0B50000AD8B4D0EF3BF0DFEF3BF00AA0
:1077A10050000AD8B41BEF3BF0010AD8B452EF3BAA
:1077B100F0030AD8B4ADEF3BF0DFEF3BF012001F4E
:1077C100BEE5EF3BF0E8EF3BF0010EE9EF3BF000E7
:1077D1000E286E2850D8B4F0EF3BF0F2EF3BF0F6F4
:1077E100EF3BF01E6C1F1ED8B01F2A000163BFFCC7
:1077F100EF3BF0FEEF3BF0FFEF3BF0709363BF0612
:10780100EF3CF004EF3CF00CEF3CF0000E236E0176
:107811000E226E10EF3CF062C022F063C023F060D4
:10782100C024F061C025F02850D8B41AEF3CF01CF8
:10783100EF3CF033EF3CF02406D8A025062850D8C1
:10784100A425EF3CF027EF3CF02DEF3CF0000E219A
:107851006E2B0E206E31EF3CF0000E216E2D0E20AE
:107861006E20C028F0000E276E1F0E266E000E95AA
:107871006F6BEF3CF02606D8A02706760E2624D99A
:107881006E000E2720DA6E1EC001F01FC002F0004C
:107891000E046E0A0E036E2DEC36F001C007F002E5
:1078A100C008F078EC33F00750300FDF6E2206D8B5
:1078B100A023062406D8A025061EC001F01FC00281
:1078C100F0000E046E0A0E036E3CEC37F001C01E90
:1078D100F002C01FF027BE76EF3CF0275008E126EA
:1078E10004D8A076EF3CF078EF3CF0A3EF3CF01E1B
:1078F100501F10D8A47FEF3CF081EF3CF03BEF3CF0
:10790100F023BE8EEF3CF0235006E12204D8B08C68
:10791100EF3CF08EEF3CF03BEF3CF025BE99EF3CA5
:10792100F0255008E12404D8A099EF3CF09BEF3CEE
:10793100F0A3EF3CF0000170B3A1EF3CF0A3EF3CEA
:10794100F03BEF3CF02850D8B4A9EF3CF0ABEF3C52
:10795100F0B6EF3CF02606D8A02706760E2624D9ED
:107961006E000E2720DA6E28C0DFFF1CC011F01D4B
:10797100C012F0760E2624136E000E2720146E24FA
:10798100C015F025C016F0D6EC35F0120059EC32D6
:10799100F0070E0B6EEC0E0C6E7F0E0D6E010E3BA2
:1079A100EC35F0000E0B6E3B0E0C6E7F0E0D6E0271
:1079B1000E3BEC35F0020E0B6E730E0C6E7F0E0D4E
:1079C1006E030E3BEC35F0030E0B6EA50E0C6E7FB5
:1079D1000E0D6E040E3BEC35F00B0E026EB80E016F
:1079E1006EDEEC33F059EC32F0020E0B6E4F0E0CE2
:1079F1006E7F0E0D6E010E3BEC35F0040E0B6ED258
:107A01000E0C6E7F0E0D6E020E3BEC35F0010E0B6F
:107A11006E610E0C6E7F0E0D6E030E3BEC35F003A6
:107A21000E0B6E950E0C6E7F0E0D6E040E3BEC353B
:107A3100F00B0E026EB80E016EDEEC33F059EC3233
:107A4100F0020E0B6E850E0C6E7F0E0D6E010E3B5D
:107A5100EC35F0BF0E036E000E046E82EC35F0B60D
:107A61000E5B6E000E5C6EBF0E5D6E000E5E6E856F
:107A7100EC36F0AB0E5B6E000E5C6EBF0E5D6E0001
:107A81000E5E6EDEEC36F0000E0B6EB60E0C6E0066
:107A91000E0D6E020E3BEC35F0000E0B6EAB0E0CB4
:107AA1006E000E0D6E030E3BEC35F0960E436E002C
:107AB1000E446EDF0E456E7F0E466E6EC047F06F50
:107AC100C048F003EC34F0000E0B6E960E0C6E0005
:107AD1000E0D6E040E3BEC35F00B0E026EB80E016E
:107AE1006EDEEC33F059EC32F0030E0B6E950E0C9A
:107AF1006E7F0E0D6E010E3BEC35F0960E436E005F
:107B01000E446EF30E456E7F0E466EB60E476E0046
:107B11000E486EAB0E496E000E4A6E03EC34F00057
:107B21000E0B6E960E0C6E000E0D6E020E3BEC35BA
:107B3100F05F50D8A49FEF3DF0A1EF3DF0A8EF3DDD
:107B4100F09B0E0001D66F7E0ED76FADEF3DF0EBCF
:107B51000E0001D66F7E0ED76F000E0B6ED6C00CD5
:107B6100F0D7C00DF0030E3BEC35F0960E436E00DE
:107B71000E446EDF0E456E7F0E466E6EC047F06F8F
:107B8100C048F003EC34F0000E0B6E960E0C6E0044
:107B91000E0D6E040E3BEC35F00B0E026EB80E01AD
:107BA1006EDEEC33F012002BC0D9FF2CC0DAFFDE01
:107BB100CFF6FFDDCFF7FF0800F550250AD8A4E482
:107BC100EF3DF0E6EF3DF038EF3FF02BC0D9FF2C51
:107BD100C0DAFFDE2A000EDD22000E0001616F0017
:107BE1000E606F60C070F062696369000E366E00EE
:107BF1000E356E27EF3EF0000170832BC0D9FF2CAC
:107C0100C0DAFFDE2A000EDD2227EF3EF0000E363D
:107C11006E010E356E27EF3EF02BC0D9FF2CC0DA76
:107C2100FFDECFF6FFDDCFF7FF0800F5502F6E30F6
:107C31006A3050000AD8B420EF3EF007EF3EF02F33
:107C410050300AD8B4FCEF3DF007EF3EF035503626
:107C510010D8B42EEF3EF030EF3EF00DEF3EF02B9A
:107C6100C007F02CC008F02DC009F02EC00AF09E0C
:107C7100EC37F007C060F008C061F0000161BF4659
:107C8100EF3EF044EF3EF04BEF3EF07081606D61EE
:107C91001FD8B0612B2BC0D9FF2CC0DAFFDECF3942
:107CA100F0DDCF3AF039C0F6FF3AC0F7FF0800F532
:107CB10050640AD8B45FEF3EF061EF3EF06FEF3EE3
:107CC100F039C0F6FF3AC0F7FF0800F550690AD84D
:107CD100A46DEF3EF06FEF3EF09DEF3EF02DC0D969
:107CE100FF2EC0DAFFDFCF2FF0020EDE26DFCF300E
:107CF100F0000EDD222FC0D9FF30C0DAFFDECF3118
:107D0100F0DDCF32F0010E39242F6E000E3A203013
:107D11006E2BC0D9FF2CC0DAFF2FC0DEFF30C0DDD3
:107D2100FF29C01CF02AC01DF031C01EF032C01F57
:107D3100F0E0EC3BF04CEF3FF02BC0D9FF2CC0DA68
:107D4100FFDECFF6FFDDCFF7FF0800F550730AD84D
:107D5100B4ADEF3EF0AFEF3EF0CAEF3EF02BC0D92D
:107D6100FF2CC0DAFFDECF01F0DDCF02F0FA0E0307
:107D71006E7F0E046E000E066E030E056E66EC3805
:107D8100F001500210D8A4C8EF3EF0CAEF3EF00A4D
:107D9100EF3FF02BC0D9FF2CC0DAFFDECFF6FFDDBD
:107DA100CFF7FF0800F550730AD8B4DAEF3EF0DCE4
:107DB100EF3EF0E2EF3EF0000E386E030E376EE656
:107DC100EF3EF0000E386E010E376E2BC0D9FF2C3E
:107DD100C0DAFF3750DE263850DD2229C00AF02AEA
:107DE100C00BF02DC0D9FF2EC0DAFFDFCF2FF0027C
:107DF1000EDE26DFCF30F0000EDD222FC0D9FF309E
:107E0100C0DAFFDECF0CF0DDCF0DF07EEC39F04CA7
:107E1100EF3FF02BC0D9FF2CC0DAFFDECFF6FFDD3C
:107E2100CFF7FF0800F550250AD8A41AEF3FF01C40
:107E3100EF3FF02FEF3FF02BC0D9FF2CC0DAFFDE70
:107E41002A000EDD22000E026E250E016E29C003EE
:107E5100F02AC004F001EC38F04CEF3FF02BC0D910
:107E6100FF2CC0DAFFDE2A000EDD224CEF3FF02BA3
:107E7100C0D9FF2CC0DAFFDECFF6FFDDCFF7FF0858
:107E810000F550016E026A29C003F02AC004F00116
:107E9100EC38F02FEF3FF01200004D6F646F3A2085
:107EA1004D616E75616C20202020202020004D61E5
:107EB1006E75616C202D20563A25642020202020EB
:107EC1002000433A2530346420503A253364252577
:107ED10020202020200046696C74726F2064652088
:107EE1004D616E676120202020004D6F646F3A2044
:107EF1004175746F6D617469636F20202000464184
:107F01004C48412120507265737320416C7461208B
:107F110020004175746F202D204167756172646185
:107F21006E646F2020004175746F202D20436963BA
:107F31006C6F20417469766F2000456E67656E68CD
:107F41006172696120456C6574726963610057658E
:107F51006C696E67746F6E20436F72726569610040
:107F61005365712E456C6574722E4C696D70657A1E
:107F7100610050726F6A65746F20496E7465677233
:107F810061646F0053656A612042656D2056696EB8
:107F9100646F210046696C74726F206465204D61C5
:107FA1006E676100456D20456C657472696361207F
:107FB100494900253032643A253032643A2530325D
:107FC1006400253032642F253032642F253034642B
:107FD100005241203A203130363336373700436979
:107FE100636C6F733A202530346400554E49554215
:0E7FF1004500257320202573006C6C73000082
:020000040030CA
:0E0000000009191EFF0181FF0FC00FE00F4025
:00000001FF
