:040000002EEF37F0B8
:026A7C00120006
:106A7F00050630313233343536C580C5B04AEF356F
:106A8F00F04CEF35F045EF35F01200C584C5B45327
:106A9F00EF35F055EF35F04EEF35F01200010E6C7B
:106AAF00EC36F0000E026E030E016E47EC36F0125C
:106ABF0000C59AC588C5B867EF35F069EF35F06244
:106ACF00EF35F01200C58AC588C5B871EF35F07380
:106ADF00EF35F06CEF35F0120093829380800EC784
:106AEF006E280EC66E000EC56E040EC86E12000123
:106AFF006E01C0C9FFC7B087EF35F089EF35F0825F
:106B0F00EF35F023EC36F01200000E936E000E02FC
:106B1F006E0F0E016E47EC36F0020E6CEC36F0285D
:106B2F000E6CEC36F0010E6CEC36F00C0E6CEC3695
:106B3F00F0060E6CEC36F01200016EC586C7A0ABE6
:106B4F00EF35F0ADEF35F0A6EF35F0C9CF02F023FA
:106B5F00EC36F00104D8A4B7EF35F0B9EF35F0BD3E
:106B6F00EF35F060EC35F0BFEF35F06AEC35F00241
:106B7F00501200046E44EC35F004507FEC35F000F9
:106B8F000EA4EC35F0036E03500001706F716B00B3
:106B9F000EA4EC35F0036E035000016E6F6F6B01A6
:106BAF000EA4EC35F0036E03505C6E5D6A120000AC
:106BBF000E0A6E000E096EF5EF35F08C80010E0295
:106BCF006EF40E016E47EC36F08C90010E026EF4EF
:106BDF000E016E47EC36F0094A0A2A0750095C0885
:106BEF00500A58D8A0FEEF35F000EF36F0E5EF353C
:106BFF00F01200000E106E000E0F6E12EF36F00E38
:106C0F00C001F0026A0CC003F00DC004F05AEC3959
:106C1F00F00F4A102A0F500A24D96E10500B20DAA9
:106C2F006EDF500E6E0E50D8A420EF36F022EF36E6
:106C3F00F007EF36F01200C5B028EF36F02AEF3626
:106C4F00F023EF36F0C5B22FEF36F031EF36F023E9
:106C5F00EF36F0C5B436EF36F038EF36F023EF36B7
:106C6F00F0C5B63DEF36F03FEF36F023EF36F0C705
:106C7F00B444EF36F046EF36F023EF36F012000053
:106C8F000E046E000E036E60EF36F0000E066E00FF
:106C9F000E056E054A062A065009E1A50E055CD8B9
:106CAF00A05CEF36F05EEF36F051EF36F0034A049A
:106CBF002A0150035C02500458D8A069EF36F06BDC
:106CCF00EF36F04DEF36F01200086E08C007F0F007
:106CDF000E07168A500F0B07108A6E8A948A860049
:106CEF00F08A96000E026E010E016E47EC36F00828
:106CFF00C007F0073AF00E07168A500F0B07108ADD
:106D0F006E8A8600F08A96000E026E030E016E47A1
:106D1F00EC36F01200086E08C007F0F00E07168A66
:106D2F00500F0B07108A6E8A848A8600F08A9600AD
:106D3F000E026E010E016E47EC36F008C007F00729
:106D4F003AF00E07168A500F0B07108A6E8A8600CC
:106D5F00F08A96000E026E030E016E47EC36F012AB
:106D6F0000460E486E000E496E42C04AF043C04BBB
:106D7F00F0000E4E6E000E4D6E000E556E000E544E
:106D8F006E4A0E3A6E000E3B6E44C03CF045C03D5D
:106D9F00F0480E3E6E000E3F6EDEEC36F04D504268
:106DAF0024D96E4E504320DA6EDF6A12003CC04089
:106DBF00F03DC041F0F2EF36F03AC02CF03BC02D61
:106DCF00F0400E2E6E000E2F6E3EC030F03FC031E1
:106DDF00F071EC3BF040C0F6FF41C0F7FF0800F543
:106DEF00500009D8A4FEEF36F000EF37F0E4EF368D
:106DFF00F0000E3B6E000E3A6E1200046E44EC353E
:106E0F00F004507FEC35F0000EA4EC35F0036E0368
:106E1F005000016C6F6D6B000EA4EC35F0036E0328
:106E2F005000016A6F6B6B000EA4EC35F0036E031C
:106E3F00500001686F696B010EA4EC35F0036E030F
:106E4F00500001666F676B4DEC35F01200810EF646
:106E5F006E6A0EF76E000EF86E00EEDCF010EE07A5
:106E6F00F00900F5CFEEFFE550E150FAE17F0EF6A5
:106E7F006E6A0EF76E000EF86E0900F5CF5EF00920
:106E8F0000F5CF5FF000EE60F07C0EEE6AE806FDD5
:106E9F00E15D6A5C6A000EF86E0001F7EF38F06D85
:106EAF00EF37F009C0F6FF0AC0F7FFF86A070EF7D1
:106EBF006403D00800F55005D0F6CFE1FFF7CFE21D
:106ECF00FFE75092EC36F0094A0A2A09C0F6FF0A8A
:106EDF00C0F7FFF86A070EF76403D00800F55005F6
:106EEF00D0F6CFE1FFF7CFE2FFE7500009D8A48338
:106EFF00EF37F085EF37F059EF37F0120016BE8BF2
:106F0F00EF37F08DEF37F093EF37F015C01AF0161B
:106F1F00C01BF097EF37F0000E1B6E000E1A6E00BD
:106F2F000E196E000E186EA9EF37F0000E026E20CC
:106F3F000E016E11C003F012C004F05AEC39F018B4
:106F4F004A192A1A50185C1950800A176E1B508064
:106F5F000A1758D8A0B6EF37F0B8EF37F09DEF37D4
:106F6F00F013C00AF014C00BF011C00CF012C00DDA
:106F7F00F001EC36F0120014C001F015C002F05C05
:106F8F00EC3DF014C001F015C002F094EC38F01491
:106F9F00C010F015C011F0D7EC3AF020EE02F0144B
:106FAF0050D9261550DA22DE2A000EDD2220EE06F9
:106FBF00F01450D9261550DA22DE2A000EDD2220D9
:106FCF00EE06F01450D9261550DA22010EDB5009C7
:106FDF00E1320EDE5CD8A0F7EF37F0F9EF37F002B1
:106FEF00EF38F020EE06F01450D9261550DA22DED5
:106FFF006ADD6A8C7212000E6E0E04D8A40AEF3886
:10700F00F00CEF38F013EF38F00B500F0B80090F27
:10701F006E0F506CEC36F0020E0E18D8A41AEF3823
:10702F00F01CEF38F023EF38F00B500F0BC0090FA7
:10703F006E0F506CEC36F0030E0E18D8A42AEF38F2
:10704F00F02CEF38F033EF38F00B500F0B94090F93
:10705F006E0F506CEC36F0040E0E18D8A43AEF38C1
:10706F00F03CEF38F043EF38F00B500F0BD4090F13
:10707F006E0F506CEC36F00CC009F00DC00AF057D3
:10708F00EC37F0120001C0D9FF02C0DAFF010EDFAA
:10709F006E20EE01F00150D9260250DA22010EDFE8
:1070AF006E20EE02F00150D9260250DA22DE6ADDA0
:1070BF006A20EE04F00150D9260250DA22DE6ADD92
:1070CF006A20EE06F00150D9260250DA22DE6ADD80
:1070DF006A20EE08F00150D9260250DA22DE6ADD6E
:1070EF006A20EE0AF00150D9260250DA22010EDF93
:1070FF006E20EE0BF00150D9260250DA22010EDF7E
:10710F006E20EE0CF00150D9260250DA22010EDF6C
:10711F006E8C968C948C921200C5EF38F08C96F68C
:10712F00EF38F08C9620EE02F00150D9260250DA9B
:10713F0022010EDB5009E1640EDE5CD8A0AAEF3805
:10714F00F0ACEF38F0F6EF38F020EE02F00150D946
:10715F00260250DA22DE6ADD6A20EE04F00150D9F1
:10716F00260250DA22DE2A000EDD22F6EF38F08CEE
:10717F0086F6EF38F08C84F6EF38F001C0D9FF02B5
:10718F00C0DAFFDF50036E046A0450000AD8B4D38C
:10719F00EF38F0F6EF38F00350000AD8B4F6EF38B6
:1071AF00F0010AD8B496EF38F0030AD8B496EF3846
:1071BF00F0010AD8B499EF38F0070AD8B496EF382F
:1071CF00F0010AD8B4F6EF38F0030AD8B4BFEF389D
:1071DF00F0010AD8B4C2EF38F0F6EF38F0120072AF
:1071EF000ED36E8CEC35F074EC35F0000E956E000E
:1071FF000E946E000E826E930E016E000E026E4A9A
:10720F00EC38F0000E086E020E076EDFEC35F00062
:10721F000E596E010E586EBFEC39F00B0E026EB8A0
:10722F000E016E47EC36F0000E596E020E586EBF0F
:10723F00EC39F00B0E026EB80E016E47EC36F00013
:10724F000E596E030E586EBFEC39F00B0E026EB86E
:10725F000E016E47EC36F0000E596E040E586EBFDD
:10726F00EC39F0000E086E010E076EDFEC35F00BF7
:10727F000E026EB80E016E47EC36F0000EC1EC3503
:10728F00F04DEC35F0930E146E000E156EC3EC3707
:10729F00F0000E026E0A0E016E47EC36F045EF3924
:1072AF00F000EF00F003500410D8B461EF39F06331
:1072BF00EF39F06CEF39F003500410D8A46AEF39AE
:1072CF00F06CEF39F071EF39F001503EEC35F0BE54
:1072DF00EF39F020EE0AF00350D9260450DA22DEFF
:1072EF0050DE10D8B47EEF39F080EF39F09BEF39D4
:1072FF00F020EE0AF00350D9260450DA2210EE03E4
:10730F00F00350E1260450E222DE50E65CE65080A6
:10731F000A096EDE50800A0958D8B099EF39F09BF0
:10732F00EF39F0BEEF39F020EE03F00350D9260409
:10733F0050DA22DECF05F0DDCF06F003C0D9FF040F
:10734F00C0DAFFDECF07F0DDCF08F005500724D9F4
:10735F006E06500820DA6E01C0DFFF20EE03F00347
:10736F0050D9260450DA22DE2A000EDD22120056F2
:10737F00EC35F029EF3AF0070E0B6ED20E0C6E7F44
:10738F000E0D6E010E03EC38F0000E0B6E2D0E0C71
:10739F006E7F0E0D6E020E03EC38F0020E0B6E6553
:1073AF000E0C6E7F0E0D6E030E03EC38F0030E0BFA
:1073BF006E970E0C6E7F0E0D6E040E03EC38F047B9
:1073CF00EF3AF0020E0B6E410E0C6E7F0E0D6E013A
:1073DF000E03EC38F0040E0B6EA60E0C6E7F0E0D26
:1073EF006E020E03EC38F0010E0B6E530E0C6E7F17
:1073FF000E0D6E030E03EC38F0030E0B6E870E0CA2
:10740F006E7F0E0D6E040E03EC38F047EF3AF0026C
:10741F000E0B6E770E0C6E7F0E0D6E040E03EC3896
:10742F00F00DEC3CF047EF3AF00DEC3CF0020E0B98
:10743F006EB30E0C6E7F0E0D6E040E03EC38F0471C
:10744F00EF3AF058C05AF059C05BF05B50000AD8C1
:10745F00B434EF3AF047EF3AF05A50010AD8B4C3B8
:10746F00EF39F0030AD8B4E9EF39F0010AD8B40FB5
:10747F00EF3AF0070AD8B41CEF3AF047EF3AF012A0
:10748F0000000163BF50EF3AF04EEF3AF056EF3A7B
:10749F00F0000E286E010E276E5AEF3AF062C027E9
:1074AF00F063C028F060C023F061C024F0000E2A02
:1074BF006E1F0E296E000E926FA2EF3AF02906D8BA
:1074CF00A02A061E500F0B2B6E090E2B6472EF3A7B
:1074DF00F074EF3AF07CEF3AF0570E2B24256E261E
:1074EF006A000E262282EF3AF0300E2B24256E26EC
:1074FF006A000E262225C02BF0730E2924D96E00A8
:10750F000E2A20DA6E2BC0DFFF2706D8A02806230D
:10751F0006D8A024061EC020F01FC021F0040E22A2
:10752F006ED89021322032222E98EF3AF020C01ED2
:10753F00F021C01FF02ABEAEEF3AF02A5009E10247
:10754F000E295CD8A0AEEF3AF0B0EF3AF0C6EF3AA2
:10755F00F01E501F10D8A4B7EF3AF0B9EF3AF0660B
:10756F00EF3AF028BEC6EF3AF0285006E12704D8CC
:10757F00B0C4EF3AF0C6EF3AF066EF3AF01CC01124
:10758F00F01DC012F0730E2924136E000E2A201462
:10759F006E23C015F024C016F086EC37F0120000F1
:1075AF0001644B652B655109E10A0E645DD8A0E3B8
:1075BF00EF3AF0E5EF3AF070EF3BF0000E656F0039
:1075CF000E646F43EF3BF0010E0B6E170E0C6E7FC8
:1075DF000E0D6E020E03EC38F070EF3BF0010E0B48
:1075EF006E930E0C6E7E0E0D6E020E03EC38F07065
:1075FF00EF3BF0010E0B6EBF0E0C6E7E0E0D6E028A
:10760F000E03EC38F070EF3BF0010E0B6EEB0E0C2F
:10761F006E7E0E0D6E020E03EC38F070EF3BF00134
:10762F000E0B6EA90E0C6E7E0E0D6E020E03EC3855
:10763F00F070EF3BF0010E0B6ED50E0C6E7E0E0D43
:10764F006E020E03EC38F070EF3BF0010E0B6E7D07
:10765F000E0C6E7E0E0D6E020E03EC38F070EF3BCB
:10766F00F0010E0B6E010E0C6E7F0E0D6E020E03EF
:10767F00EC38F070EF3BF010C0D9FF11C0DAFFDF2C
:10768F0050126E136A1350000AD8B451EF3BF03802
:10769F00EF3BF01250010AD8B4EBEF3AF0030AD8DF
:1076AF00B4F6EF3AF0010AD8B401EF3BF0070AD86D
:1076BF00B40CEF3BF0010AD8B417EF3BF0030AD834
:1076CF00B422EF3BF0010AD8B42DEF3BF038EF3B7B
:1076DF00F012002EC0D9FF2FC0DAFFDECFF6FFDD8C
:1076EF00CFF7FF0800F550250AD8A481EF3BF083B0
:1076FF00EF3BF0F8EF3BF02EC0D9FF2FC0DAFFDEE3
:10770F002A000EDD22000E0001616F000E606F6017
:10771F00C072F0626963692EC0D9FF2FC0DAFFDE35
:10772F00CF38F0DDCF39F038C0F6FF39C0F7FF089A
:10773F0000F550780AD8A4A7EF3BF0A9EF3BF0EF84
:10774F00EF3BF030C0D9FF31C0DAFFDFCF32F002AC
:10775F000EDE26DFCF33F0000EDD2232C0D9FF332D
:10776F00C0DAFFDECF34F0DDCF35F0010E38243232
:10777F006E000E3920336E2EC0D9FF2FC0DAFF32C4
:10778F00C0DEFF33C0DDFFD9EF3BF02CC01CF02D66
:10779F00C01DF034C01EF035C01FF048EC3AF00C9D
:1077AF00EF3CF038C0F6FF39C0F7FF0800F5503254
:1077BF006E336A3350000AD8B4E8EF3BF0EFEF3B7B
:1077CF00F03250780AD8B4CDEF3BF0EFEF3BF02E0C
:1077DF00C0D9FF2FC0DAFFDE2A000EDD220CEF3CEE
:1077EF00F02EC0D9FF2FC0DAFFDECFF6FFDDCFF7C7
:1077FF00FF0800F550016E026A2CC003F02DC00483
:10780F00F05AEC39F0EFEF3BF012005CAC12EF3CAA
:10781F00F014EF3CF074EF3CF05CAA19EF3CF01B56
:10782F00EF3CF026EF3CF0110E0B6EFC0E0C6E7F52
:10783F000E0D6E010E03EC38F02FEF3CF0110E0B16
:10784F006EF90E0C6E7F0E0D6E010E03EC38F01FED
:10785F000E5C145C6E5D6AD20E426E000E436ED9E2
:10786F000E446E7F0E456E70C046F071C047F0B883
:10787F00EC36F0C80E426E000E436ECE0E446E7F95
:10788F000E456E6EC046F06FC047F0B8EC36F0BED6
:10789F000E426E000E436EC90E446E7F0E456E5C37
:1078AF00C046F05DC047F0B8EC36F0000E0B6EBE70
:1078BF000E0C6E000E0D6E010E03EC38F0C80E09A3
:1078CF006E000E0A6E57EC37F0D20E096E000E0ADC
:1078DF006E57EC37F0ADEF3CF03F0E5C145C6E5D15
:1078EF006AD20E426E000E436ED90E446E7F0E4565
:1078FF006E70C046F071C047F0B8EC36F0C80E425B
:10790F006E000E436ECE0E446E7F0E456E6EC046F9
:10791F00F06FC047F0B8EC36F0BE0E426E000E436B
:10792F006EC90E446E7F0E456E5CC046F05DC0475B
:10793F00F0B8EC36F0000E0B6EBE0E0C6E000E0D96
:10794F006E010E03EC38F066EF3CF0030E05EC37DA
:10795F00F04DEC35F0B40E426E000E436EC00E4487
:10796F006E7F0E456E6AC046F06BC047F0B8EC36BE
:10797F00F0AA0E426E000E436EC50E446E7F0E458A
:10798F006E68C046F069C047F0B8EC36F0A00E4202
:10799F006E000E436ED90E446E7F0E456E66C04666
:1079AF00F067C047F0B8EC36F0000E0B6EB40E0C5B
:1079BF006E000E0D6E020E03EC38F0AA0E096E006B
:1079CF000E0A6E57EC37F0A00E096E000E0A6E57B6
:1079DF00EC37F02BEF3DF0F10E096E7F0E0A6E576C
:1079EF00EC37F05BEF3DF0E90E096E7F0E0A6E5734
:1079FF00EC37F05BEF3DF0E50E096E7F0E0A6E5728
:107A0F00EC37F05BEF3DF0DD0E096E7F0E0A6E571F
:107A1F00EC37F05BEF3DF0ED0E096E7F0E0A6E57FF
:107A2F00EC37F05BEF3DF0F50E096E7F0E0A6E57E7
:107A3F00EC37F05BEF3DF0E10E096E7F0E0A6E57EB
:107A4F00EC37F05BEF3DF0DC0E00016C25D96E00DA
:107A5F000E6D21DA6EDF50566E576A5750000AD8F6
:107A6F00B43CEF3DF05BEF3DF05650300AD8B4F325
:107A7F00EF3CF0010AD8B4FBEF3CF0030AD8B40393
:107A8F00EF3DF0010AD8B40BEF3DF0070AD8B4135D
:107A9F00EF3DF0010AD8B41BEF3DF0030AD8B42331
:107AAF00EF3DF05BEF3DF01200000E82B4010E0AC5
:107ABF006E000E066E20EE0CF00150D9260250DA41
:107ACF0022DE04D8A46EEF3DF070EF3DF07AEF3D6B
:107ADF00F00A50D8A476EF3DF078EF3DF07AEF3D05
:107AEF00F0010E066E20EE0CF00150D9260250DA8E
:107AFF00220AC0DFFF000E076E20EE0AF00150D9F8
:107B0F00260250DA22DE04D8A490EF3DF092EF3D2A
:107B1F00F09BEF3DF082B097EF3DF099EF3DF09B7A
:107B2F00EF3DF0010E076E07C005F020EE0AF001E1
:107B3F0050D9260250DA2282B0A8EF3DF0ABEF3DCC
:107B4F00F0010EACEF3DF0000EDF6E000E086E2060
:107B5F00EE0BF00150D9260250DA22DE04D8A4BB76
:107B6F00EF3DF0BDEF3DF0C6EF3DF082B2C2EF3D0D
:107B7F00F0C4EF3DF0C6EF3DF0010E086E08C009EE
:107B8F00F020EE0BF00150D9260250DA2282B2D348
:107B9F00EF3DF0D6EF3DF0010ED7EF3DF0000EDFD9
:107BAF006EE9EF3EF020EE02F00150D9260250DAD6
:107BBF00222D0EDE5C010EDE58D8A0E9EF3DF0EB72
:107BCF00EF3DF016EF3FF020EE01F00150D9260205
:107BDF0050DA22020EDF6E16EF3FF00A50D8A4FBE8
:107BEF00EF3DF0FDEF3DF007EF3EF020EE01F0012D
:107BFF0050D9260250DA22060EDF6E16EF3FF0053F
:107C0F0050D8B40DEF3EF00FEF3EF016EF3FF020DF
:107C1F00EE01F00150D9260250DA22030EDF6E205A
:107C2F00EE04F00150D9260250DA22DE6ADD6A1620
:107C3F00EF3FF00A50D8A427EF3EF029EF3EF03384
:107C4F00EF3EF020EE01F00150D9260250DA220566
:107C5F000EDF6E16EF3FF020EE04F00150D9260232
:107C6F0050DA22010EDB5009E11E0EDE5CD8A04374
:107C7F00EF3EF045EF3EF04FEF3EF020EE01F0010A
:107C8F0050D9260250DA22040EDF6E16EF3FF009AC
:107C9F0050D8B455EF3EF057EF3EF016EF3FF020BF
:107CAF00EE01F00150D9260250DA22050EDF6E16D2
:107CBF00EF3FF00A50D8A467EF3EF069EF3EF07344
:107CCF00EF3EF020EE01F00150D9260250DA2205E6
:107CDF000EDF6E16EF3FF00950D8B479EF3EF07B10
:107CEF00EF3EF016EF3FF020EE01F00150D92602E3
:107CFF0050DA22050EDF6E16EF3FF020EE02F00194
:107D0F0050D9260250DA22010EDB5009E1330EDE84
:107D1F005CD8A095EF3EF097EF3EF016EF3FF00ADC
:107D2F0050D8A49DEF3EF09FEF3EF0A9EF3EF0201C
:107D3F00EE01F00150D9260250DA22060EDF6E1640
:107D4F00EF3FF020EE01F00150D9260250DA220267
:107D5F000EDF6E16EF3FF00A04D8A4B9EF3EF0BB6A
:107D6F00EF3EF016EF3FF020EE01F00150D9260262
:107D7F0050DA22020EDF6E16EF3FF020EE02F00116
:107D8F0050D9260250DA22E90EDE5C030EDE58D8F7
:107D9F00A0D4EF3EF0D6EF3EF016EF3FF020EE010D
:107DAF00F00150D9260250DA22020EDF6E16EF3F95
:107DBF00F020EE01F00150D9260250DA22DF6A16C8
:107DCF00EF3FF001C0D9FF02C0DAFFDF50036E04AE
:107DDF006A0450000AD8B4F7EF3EF0E0EF3EF0032C
:107DEF0050010AD8B4DAEF3DF0030AD8B4F5EF3DED
:107DFF00F0010AD8B421EF3EF0070AD8B461EF3E84
:107E0F00F0010AD8B485EF3EF0030AD8B4B3EF3EC1
:107E1F00F0010AD8B4C5EF3EF0E0EF3EF020EE01DE
:107E2F00F00150D9260250DA2201C0E1FF02C0E270
:107E3F00FFDE50E618D8B427EF3FF029EF3FF03DB3
:107E4F00EF3FF020EE01F00150D9260250DA220167
:107E5F00C0E1FF02C0E2FFDFCFE7FF20EE02F0013B
:107E6F0050D9260250DA22DE6ADD6A1200005374FE
:107E7F00617475733A2046616C6861202020202060
:107E8F00202020005374617475733A2050726F6E06
:107E9F00746F20202020202020005374617475738C
:107EAF003A20506172616E646F20202020202000E4
:107EBF005374617475733A2050617274696E646F94
:107ECF002020202020005374617475733A20426C77
:107EDF006F71756561646F20202020005374617489
:107EEF0075733A2046756E63696F6E616E646F20AD
:107EFF0020005374617475733A20446573636F6E19
:107F0F0068656369646F20005374617475733A20F8
:107F1F00496E696369616C697A616E646F00456E61
:107F2F0067656E686172696120456C65747269631B
:107F3F00610057656C696E67746F6E20436F727264
:107F4F00656961005365712E456C6574722E4C69BD
:107F5F006D70657A610050726F6A65746F20496E3B
:107F6F007465677261646F0053656A612042656D65
:107F7F002056696E646F210046696C74726F2064BD
:107F8F0065204D616E676100456D20456C657472AB
:107F9F00696361204949005241203A20313036331C
:107FAF003637370046696C74726F204D616E6761AA
:107FBF0000446174612025782D00486F72613A2565
:107FCF00783A00554E4955424500257820005175A5
:107FDF00610053616200546563005365670051751A
:107FEF006900446F6D0053657800414D00504D009E
:017FFF000081
:020000040030CA
:0E0000000009191EFF0181FF0FC00FE00F4025
:00000001FF
