:040000006CEF39F078
:1072C400010EF1EC39F0000E026E030E016ECCECEF
:1072D40039F0120000EE18F00F0EEE6AE806FDE138
:1072E400000EF86E000111EF3BF0000E936E000EDD
:1072F400026E0F0E016ECCEC39F0020EF1EC39F097
:10730400280EF1EC39F0010EF1EC39F00C0EF1EC31
:1073140039F0060EF1EC39F012009BEF39F009C098
:10732400F6FF0AC0F7FF0800F55017EC3AF0094AD7
:107334000A2A09C0F6FF0AC0F7FF0800F550000941
:10734400D8A4A7EF39F0A9EF39F091EF39F0120082
:10735400000E0A6E000E096EC0EF39F08C80010E2B
:10736400026EF40E016ECCEC39F08C90010E026EBC
:10737400F40E016ECCEC39F0094A0A2A0750095C74
:1073840008500A58D8A0C9EF39F0CBEF39F0B0EF64
:1073940039F01200000E046E000E036EE5EF39F0B2
:1073A400000E066E000E056E054A062A065009E117
:1073B400A50E055CD8A0E1EF39F0E3EF39F0D6EF84
:1073C40039F0034A042A0150035C02500458D8A03F
:1073D400EEEF39F0F0EF39F0D2EF39F01200086E29
:1073E40008C007F0F00E07168A500F0B07108A6EBC
:1073F4008A908A8200F08A92000E026E010E016E5B
:10740400CCEC39F008C007F0073AF00E07168A50A2
:107414000F0B07108A6E8A8200F08A92000E026EA9
:10742400030E016ECCEC39F01200086E08C007F0B0
:10743400F00E07168A500F0B07108A6E8A808A8214
:1074440000F08A92000E026E010E016ECCEC39F04F
:1074540008C007F0073AF00E07168A500F0B071002
:107464008A6E8A8200F08A92000E026E030E016E0A
:10747400CCEC39F0120014C001F015C002F03DEC60
:107484003DF014C001F015C002F06FEC3BF014C0E5
:1074940010F015C011F0E9EC3BF020EE02F01450AE
:1074A400D9261550DA22DE2A000EDD2220EE06F05F
:1074B4001450D9261550DA22DE2A000EDD2220EEE1
:1074C40006F01450D9261550DA22010EDB5009E1DA
:1074D400320EDE5CD8A071EF3AF073EF3AF07CEF35
:1074E4003AF020EE06F01450D9261550DA22DE6A5E
:1074F400DD6A8C7212000E6E0E04D8A484EF3AF08A
:1075040086EF3AF08DEF3AF00B500F0B80090F6EB7
:107514000F50F1EC39F0020E0E18D8A494EF3AF0A3
:1075240096EF3AF09DEF3AF00B500F0BC0090F6E37
:107534000F50F1EC39F0030E0E18D8A4A4EF3AF072
:10754400A6EF3AF0ADEF3AF00B500F0B94090F6E23
:107554000F50F1EC39F0040E0E18D8A4B4EF3AF041
:10756400B6EF3AF0BDEF3AF00B500F0BD4090F6EA3
:107574000F50F1EC39F00CC009F00DC00AF08FEC9B
:1075840039F0120001C0D9FF02C0DAFF010EDF6E2C
:1075940020EE01F00150D9260250DA22010EDF6EEE
:1075A40020EE02F00150D9260250DA22DE6ADD6AAA
:1075B40020EE04F00150D9260250DA22DE6ADD6A98
:1075C40020EE06F00150D9260250DA22DE6ADD6A86
:1075D40020EE08F00150D9260250DA22DE6ADD6A74
:1075E40020EE0AF00150D9260250DA22010EDF6E95
:1075F40020EE0BF00150D9260250DA22010EDF6E84
:1076040020EE0CF00150D9260250DA22010EDF6E72
:107614008C988C9A8C9C8C968C948C921200720E02
:10762400D36E77EC39F0000E956E9468000E826E7E
:107634008C988C9A8C9C1A0E016E000E026EC4EC0F
:107644003AF0000E086E020E076EAAEC39F0000E36
:10765400116E010E106E82EC3CF00B0E026EB80E31
:10766400016ECCEC39F0000E116E020E106E82EC3D
:107674003CF00B0E026EB80E016ECCEC39F0000E2D
:10768400116E030E106E82EC3CF00B0E026EB80EFF
:10769400016ECCEC39F0000E116E040E106E82EC0B
:1076A4003CF0000E086E010E076EAAEC39F00B0ECA
:1076B400026EB80E016ECCEC39F01A0E146E000E88
:1076C400156E3DEC3AF0000E026E0A0E016ECCEC23
:1076D40039F05FEF3BF000EF00F0B7EF3BF08C9830
:1076E4008C9A8C9C8C96E8EF3BF08C888C8C8C9AD2
:1076F4008C9620EE02F00150D9260250DA22010EB7
:10770400DB5009E1640EDE5CD8A08BEF3BF08DEF1B
:107714003BF0E8EF3BF020EE02F00150D926025096
:10772400DA22DE6ADD6A20EE04F00150D926025026
:10773400DA22DE2A000EDD22E8EF3BF08C888C8A08
:107744008C9C8C96E8EF3BF08C988C9A8C9CE8EFA0
:107754003BF08C988C9A8C9C8C86E8EF3BF08C9850
:107764008C9A8C9C8C84E8EF3BF001C0D9FF02C05A
:10777400DAFFDF50036E046A0450000AD8B4C5EF80
:107784003BF0E8EF3BF00350000AD8B4E8EF3BF0DD
:10779400010AD8B471EF3BF0030AD8B471EF3BF09F
:1077A400010AD8B477EF3BF0070AD8B4A0EF3BF056
:1077B400010AD8B4A6EF3BF0030AD8B4ABEF3BF010
:1077C400010AD8B4B1EF3BF0E8EF3BF01200184ADD
:1077D400192A195009E10A0E185CD8A0F4EF3BF0FD
:1077E400F6EF3BF081EF3CF0000E196E000E186EC0
:1077F40054EF3CF0010E0B6ED90E0C6E7E0E0D6E26
:10780400020E7DEC3AF081EF3CF0010E0B6E550E4A
:107814000C6E7E0E0D6E020E7DEC3AF081EF3CF0A4
:10782400010E0B6E810E0C6E7E0E0D6E020E7DEC43
:107834003AF081EF3CF0010E0B6EAD0E0C6E7E0E35
:107844000D6E020E7DEC3AF081EF3CF0010E0B6EF2
:107854006B0E0C6E7E0E0D6E020E7DEC3AF081EF17
:107864003CF0010E0B6E970E0C6E7E0E0D6E020E2A
:107874007DEC3AF081EF3CF0010E0B6E3F0E0C6E86
:107884007E0E0D6E020E7DEC3AF081EF3CF0010E9F
:107894000B6EC30E0C6E7E0E0D6E020E7DEC3AF076
:1078A40081EF3CF010C0D9FF11C0DAFFDF50126E37
:1078B400136A1350000AD8B462EF3CF049EF3CF06D
:1078C4001250010AD8B4FCEF3BF0030AD8B407EF16
:1078D4003CF0010AD8B412EF3CF0070AD8B41DEF0B
:1078E4003CF0010AD8B428EF3CF0030AD8B433EFD3
:1078F4003CF0010AD8B43EEF3CF049EF3CF01200F2
:1079040062EC39F01EEF3DF0070E0B6E040E0C6EA8
:107914007F0E0D6E010E7DEC3AF0000E0B6EAC0E78
:107924000C6E7F0E0D6E020E7DEC3AF0020E0B6EA5
:10793400970E0C6E7F0E0D6E030E7DEC3AF0030E67
:107944000B6E430E0C6E7F0E0D6E040E7DEC3AF042
:107954003CEF3DF0020E0B6E6D0E0C6E7F0E0D6E45
:10796400010E7DEC3AF0040E0B6E190E0C6E7F0EB8
:107974000D6E020E7DEC3AF0010E0B6E820E0C6E53
:107984007F0E0D6E030E7DEC3AF0030E0B6E580E57
:107994000C6E7F0E0D6E040E7DEC3AF03CEF3DF064
:1079A400010E0B6E2E0E0C6E7F0E0D6E010E7DEC15
:1079B4003AF0010E0B6EEF0E0C6E7E0E0D6E020E83
:1079C4007DEC3AF0010E0B6EEF0E0C6E7E0E0D6E1A
:1079D400030E7DEC3AF0010E0B6EEF0E0C6E7E0E74
:1079E4000D6E040E7DEC3AF03CEF3DF0010E0B6E93
:1079F400C10E0C6E7F0E0D6E010E7DEC3AF0010E81
:107A04000B6EF70E0C6E7F0E0D6E020E7DEC3AF0CF
:107A1400010E0B6EE60E0C6E7F0E0D6E030E7DECEA
:107A24003AF0010E0B6ED50E0C6E7F0E0D6E040E29
:107A34007DEC3AF03CEF3DF010C012F011C013F0B1
:107A44001350000AD8B429EF3DF03CEF3DF012503A
:107A5400010AD8B486EF3CF0030AD8B4ACEF3CF08A
:107A6400010AD8B4D2EF3CF0070AD8B4F8EF3CF0DE
:107A74003CEF3DF01200000E82B4010E0A6E000EBF
:107A8400066E20EE0CF00150D9260250DA22DE04F4
:107A9400D8A44FEF3DF051EF3DF05BEF3DF00A50BD
:107AA400D8A457EF3DF059EF3DF05BEF3DF0010EE8
:107AB400066E20EE0CF00150D9260250DA220AC0DC
:107AC400DFFF000E076E20EE0AF00150D9260250A7
:107AD400DA22DE04D8A471EF3DF073EF3DF07CEFC1
:107AE4003DF082B078EF3DF07AEF3DF07CEF3DF071
:107AF400010E076E07C005F020EE0AF00150D926EA
:107B04000250DA2282B089EF3DF08CEF3DF0010E95
:107B14008DEF3DF0000EDF6E000E086E20EE0BF0D0
:107B24000150D9260250DA22DE04D8A49CEF3DF09D
:107B34009EEF3DF0A7EF3DF082B2A3EF3DF0A5EF3D
:107B44003DF0A7EF3DF0010E086E08C009F020EEED
:107B54000BF00150D9260250DA2282B2B4EF3DF084
:107B6400B7EF3DF0010EB8EF3DF0000EDF6ECAEF47
:107B74003EF020EE02F00150D9260250DA222D0EFA
:107B8400DE5C010EDE58D8A0CAEF3DF0CCEF3DF02C
:107B9400F7EF3EF020EE01F00150D9260250DA2230
:107BA400020EDF6EF7EF3EF00A50D8A4DCEF3DF092
:107BB400DEEF3DF0E8EF3DF020EE01F00150D92674
:107BC4000250DA22060EDF6EF7EF3EF00550D8B40D
:107BD400EEEF3DF0F0EF3DF0F7EF3EF020EE01F078
:107BE4000150D9260250DA22030EDF6E20EE04F093
:107BF4000150D9260250DA22DE6ADD6AF7EF3EF040
:107C04000A50D8A408EF3EF00AEF3EF014EF3EF01D
:107C140020EE01F00150D9260250DA22050EDF6E63
:107C2400F7EF3EF020EE04F00150D9260250DA229C
:107C3400010EDB5009E11E0EDE5CD8A024EF3EF0FD
:107C440026EF3EF030EF3EF020EE01F00150D92651
:107C54000250DA22040EDF6EF7EF3EF00950D8B47A
:107C640036EF3EF038EF3EF0F7EF3EF020EE01F055
:107C74000150D9260250DA22050EDF6EF7EF3EF0EE
:107C84000A50D8A448EF3EF04AEF3EF054EF3EF0DD
:107C940020EE01F00150D9260250DA22050EDF6EE3
:107CA400F7EF3EF00950D8B45AEF3EF05CEF3EF0E7
:107CB400F7EF3EF020EE01F00150D9260250DA220F
:107CC400050EDF6EF7EF3EF020EE02F00150D926EC
:107CD4000250DA22010EDB5009E1330EDE5CD8A03B
:107CE40076EF3EF078EF3EF0F7EF3EF00A50D8A47E
:107CF4007EEF3EF080EF3EF08AEF3EF020EE01F0A2
:107D04000150D9260250DA22060EDF6EF7EF3EF05C
:107D140020EE01F00150D9260250DA22020EDF6E65
:107D2400F7EF3EF00A04D8A49AEF3EF09CEF3EF041
:107D3400F7EF3EF020EE01F00150D9260250DA228E
:107D4400020EDF6EF7EF3EF020EE02F00150D9266E
:107D54000250DA22E90EDE5C030EDE58D8A0B5EF3D
:107D64003EF0B7EF3EF0F7EF3EF020EE01F00150A9
:107D7400D9260250DA22020EDF6EF7EF3EF020EE33
:107D840001F00150D9260250DA22DF6AF7EF3EF003
:107D940001C0D9FF02C0DAFFDF50036E046A045049
:107DA400000AD8B4D8EF3EF0C1EF3EF00350010A08
:107DB400D8B4BBEF3DF0030AD8B4D6EF3DF0010AC6
:107DC400D8B402EF3EF0070AD8B442EF3EF0010AFD
:107DD400D8B466EF3EF0030AD8B494EF3EF0010A3B
:107DE400D8B4A6EF3EF0C1EF3EF020EE01F0015012
:107DF400D9260250DA2201C0E1FF02C0E2FFDE50C0
:107E0400E618D8B408EF3FF00AEF3FF01EEF3FF05A
:107E140020EE01F00150D9260250DA2201C0E1FF20
:107E240002C0E2FFDFCFE7FF20EE02F00150D926C7
:107E34000250DA22DE6ADD6A12000053746174753E
:107E4400733A2046616C6861202020202020202085
:107E5400005374617475733A2050726F6E746F209E
:107E6400202020202020005374617475733A205020
:107E74006172616E646F20202020202000537461A1
:107E84007475733A2050617274696E646F20202097
:107E94002020005374617475733A20426C6F7175BD
:107EA4006561646F20202020005374617475733AF7
:107EB4002046756E63696F6E616E646F2020005397
:107EC40074617475733A20446573636F6E68656397
:107ED40069646F20005374617475733A20496E6944
:107EE4006369616C697A616E646F002020202020D0
:107EF400202020202020202020202020202020009E
:107F040020202020202020554E4955424520202065
:107F140020202020002020205241203A20313036D9
:107F240033363737202020202000202053656A6113
:107F34002042656D2056696E646F21202020002048
:107F44002020456D20456C65747269636120494940
:107F540020202000202046696C74726F2064652004
:107F64004D616E6761202020002057656C696E6743
:107F7400746F6E20436F7272656961202000205314
:107F840065712E456C6574722E4C696D70657A61ED
:107F94002020002050726F6A65746F20496E7465EA
:107FA400677261646F202000456E67656E68617258
:107FB400696120456C657472696361200052656C67
:107FC4006520457374722D547269616E67756C6FA8
:107FD4000054656D702E204D6163616C3A23232C2F
:107FE400230054656D702E204D6F746F723A2323F5
:0C7FF4002C23005374617475733A000074
:020000040030CA
:0E0000000009191EFF8181FF0FC00FE00F40A5
:00000001FF
