:0400000038EF35F0B0
:1068800012000E0EC16EBE0EC06E1200286E756C28
:106890006C2900010101C582C5B251EF34F053EFFC
:1068A00034F04CEF34F01200C580C5B05AEF34F02C
:1068B0005CEF34F055EF34F01200C584C5B463EFDB
:1068C00034F065EF34F05EEF34F01200010E42EC6C
:1068D00036F0000E026E030E016EF7EC35F012007A
:1068E000C59AC588C5B877EF34F079EF34F072EF08
:1068F00034F01200C58AC588C5B881EF34F083EF43
:1069000034F07CEF34F0120093829380800EC76ED7
:10691000280EC66E000EC56E040EC86E1200016E03
:1069200001C0C9FFC7B097EF34F099EF34F092EF90
:1069300034F0D3EC35F0120084EC34F054EC34F045
:10694000D00E8FEC34F0070E8FEC34F0000E8FEC8D
:1069500034F05DEC34F0120001500302F3CF05F087
:10696000F4CF06F001500402F35006260250030251
:10697000F350062605C001F006C002F01200340EE6
:1069800000016A5D030E6B59D8A0C9EF34F0CBEF5C
:1069900034F0D0EF34F0010E726F8C84D3EF34F00A
:1069A000000E726F8C941200000E936E000E026E39
:1069B0000F0E016EF7EC35F0020E42EC36F0280EA9
:1069C00042EC36F0010E42EC36F00C0E42EC36F0A2
:1069D000060E42EC36F0120054EC34F0A00E8FECB0
:1069E00034F004508FEC34F003508FEC34F04BEC67
:1069F00034F0A10E8FEC34F0000E54EC35F0056E3F
:106A00005DEC34F005501200000E956E000E946E91
:106A1000000E826E000E836E928492869288928A15
:106A2000928C9280D4EC34F09CEC34F041EC34F055
:106A300084EC34F0B5EC36F0120001C003F002C073
:106A400004F025EF35F0014A022A01C0D9FF02C047
:106A5000DAFFDF50D8A42FEF35F031EF35F023EF18
:106A600035F00350015C016E04500258026E1200B2
:106A70008C0EF66E680EF76E000EF86E00EEC6F025
:106A800010EE0AF00900F5CFEEFFE550E150FAE113
:106A900000EE60F0660EEE6AE806FDE15F6A000E49
:106AA000F86E00019BEF37F0016EC586C7A05BEF63
:106AB00035F05DEF35F056EF35F0C9CF02F0D3EC8D
:106AC00035F00104D8A467EF35F069EF35F06DEFCC
:106AD00035F070EC34F06FEF35F07AEC34F00250B2
:106AE000120008BE7EEF35F0085006E10704D8B06A
:106AF0007CEF35F07EEF35F08CEF35F007C009F014
:106B000008C00AF0091E0A1E094A0A2A09C007F02D
:106B10000AC008F090EF35F007C007F008C008F091
:106B200012000B6E0B44E846FC0B0109C26E000E0E
:106B3000026E010E016EF7EC35F0C282C2B2A3EF15
:106B400035F0A5EF35F09EEF35F0C350C4CF09F016
:106B50000A6A09C00AF0096A0910076E0A50086E2D
:106B60001200000E106E000E0F6EC2EF35F00EC058
:106B700001F0026A0CC003F00DC004F060EC3AF0C2
:106B80000F4A102A0F500A24D96E10500B20DA6ECB
:106B9000DF500E6E0E50D8A4D0EF35F0D2EF35F0A6
:106BA000B7EF35F01200C5B0D8EF35F0DAEF35F0B9
:106BB000D3EF35F0C5B2DFEF35F0E1EF35F0D3EFCD
:106BC00035F0C5B4E6EF35F0E8EF35F0D3EF35F04A
:106BD000C5B6EDEF35F0EFEF35F0D3EF35F0C7B4D4
:106BE000F4EF35F0F6EF35F0D3EF35F01200000E8C
:106BF000046E000E036E10EF36F0000E066E000EEF
:106C0000056E054A062A065009E1A50E055CD8A0C6
:106C10000CEF36F00EEF36F001EF36F0034A042A9F
:106C20000150035C02500458D8A019EF36F01BEF56
:106C300036F0FDEF35F01200470E4D6E000E4E6E31
:106C400043C04FF044C050F0000E536E000E526E21
:106C5000000E5A6E000E596E4F0E3B6E000E3C6ECB
:106C600045C03DF046C03EF04D0E3F6E000E406EFA
:106C70008EEC36F052504324D96E53504420DA6ED5
:106C8000DF6A1200086E08C007F0F00E07168A507F
:106C90000F0B07108A6E8A948A8600F08A96000E7F
:106CA000026E010E016EF7EC35F008C007F0073AEE
:106CB000F00E07168A500F0B07108A6E8A8600F0B6
:106CC0008A96000E026E030E016EF7EC35F012008C
:106CD000086E08C007F0F00E07168A500F0B071059
:106CE0008A6E8A848A8600F08A96000E026E010EF1
:106CF000016EF7EC35F008C007F0073AF00E071602
:106D00008A500F0B07108A6E8A8600F08A96000E52
:106D1000026E030E016EF7EC35F012003DC041F03B
:106D20003EC042F0A2EF36F03BC029F03CC02AF052
:106D3000410E2B6E000E2C6E3FC02DF040C02EF089
:106D4000D5EC3DF041C0F6FF42C0F7FF0800F5501A
:106D50000009D8A4AEEF36F0B0EF36F094EF36F07D
:106D6000000E3C6E000E3B6E1200000E046E000E14
:106D7000036EECEC34F0086E000E046E010E036E30
:106D8000ECEC34F0096E095008C006F0076A06C042
:106D900007F0066A061000016E6F07506F6F6E29CC
:106DA00006E16F29D8A4D7EF36F0D9EF36F0DDEF42
:106DB00036F0000E6F6F000E6E6F1200F4EF36F0BB
:106DC00009C0F6FF0AC0F7FFF86A070EF76403D0A0
:106DD0000800F55005D0F6CFE9FFF7CFEAFFEF50F6
:106DE00068EC36F0094A0A2A09C0F6FF0AC0F7FF24
:106DF000F86A070EF76403D00800F55005D0F6CF07
:106E0000E9FFF7CFEAFFEF500009D8A40AEF37F007
:106E10000CEF37F0E0EF36F01200096E3AEF37F082
:106E20008C80070E026ED00E016EF7EC35F08C9060
:106E300053EF37F08C80000E026EFA0E016EF7EC05
:106E400035F08C90000E026E640E016EF7EC35F09A
:106E50008C80000E026EFA0E016EF7EC35F017EF23
:106E600037F08C80000E026E640E016EF7EC35F088
:106E700017EF37F00950076E086A0850000AD8B4B7
:106E800044EF37F053EF37F00750010AD8B410EF52
:106E900037F0030AD8B41AEF37F0010AD8B431EF4B
:106EA00037F053EF37F012000E6E0E04D8A45BEFEC
:106EB00037F05DEF37F064EF37F00B500F0B8009C0
:106EC0000F6E0F5042EC36F0020E0E18D8A46BEF86
:106ED00037F06DEF37F074EF37F00B500F0BC00940
:106EE0000F6E0F5042EC36F0030E0E18D8A47BEF55
:106EF00037F07DEF37F084EF37F00B500F0B94092C
:106F00000F6E0F5042EC36F0040E0E18D8A48BEF23
:106F100037F08DEF37F094EF37F00B500F0BD409AB
:106F20000F6E0F5042EC36F00CC009F00DC00AF0A5
:106F3000DEEC36F01200720ED36E04EC35F0010E6A
:106F40000DEC37F0D7EC3CF0020E0DEC37F0000EF4
:106F500091EC35F007C06AF008C06BF0BFEC34F07C
:106F600080BCB5EF37F0B7EF37F0BFEF37F08C7676
:106F700080ACBDEF37F0BFEF37F0B8EF37F000016E
:106F80006851D76F6951D86F684B692BD85109E1A7
:106F9000320ED75DD8A0CFEF37F0D1EF37F0D6EF74
:106FA00037F0000E696F000E686F8C72000E026E73
:106FB0000A0E016EF7EC35F000016C4B6D2BA7EF5C
:106FC00037F000EF00F054EC34F0D00E8FEC34F0DA
:106FD000000E8FEC34F04BEC34F0D10E8FEC34F02B
:106FE000010E54EC35F003C0D9FF04C0DAFFDF6EA8
:106FF00020EE01F00350D9260450DA22010E54ECA1
:1070000035F0DF6E20EE02F00350D9260450DA226C
:10701000010E54EC35F0DF6E20EE03F00350D9265C
:107020000450DA22010E54EC35F0DF6E20EE04F04D
:107030000350D9260450DA22010E54EC35F0DF6EED
:1070400020EE05F00350D9260450DA22010E54EC4C
:1070500035F0DF6E20EE06F00350D9260450DA2218
:10706000000E54EC35F0DF6E5DEC34F012005FA0E2
:107070003CEF38F03EEF38F048EF38F013C00AF03C
:1070800014C00BF011C00CF012C00DF0B1EC35F0D3
:1070900016BE4DEF38F04FEF38F055EF38F015C011
:1070A0001AF016C01BF059EF38F0000E1B6E000EE0
:1070B0001A6E000E196E000E186E6BEF38F0000E8F
:1070C000026E200E016E11C003F012C004F060ECDD
:1070D0003AF0184A192A1A50185C1950800A176E8B
:1070E0001B50800A1758D8A078EF38F07AEF38F0A4
:1070F0005FEF38F05FB07FEF38F081EF38F08BEF63
:1071000038F013C00AF014C00BF011C00CF012C01C
:107110000DF0B1EC35F01200000E066E02BE95EFD8
:1071200038F093EF38F09BEF38F0016C021ED8B0C6
:10713000022A010E066E04BEA2EF38F0A0EF38F06E
:10714000A6EF38F0036C041ED8B0042A03500410D4
:10715000D8B4ADEF38F0AFEF38F0D3EF38F0010E20
:10716000056EB7EF38F0D89003360436052A04AE22
:10717000BCEF38F0BEEF38F0B3EF38F00350015CED
:1071800004500258D8A0C7EF38F0C9EF38F0CDEF5F
:1071900038F00350015E0450025AD8900432033292
:1071A000052EBEEF38F00650D8B4D9EF38F0DBEF3B
:1071B00038F0DFEF38F0016C021ED8B0022A01C0AF
:1071C00001F002C002F0120020EE02F05D50D9265C
:1071D0005E50DA22DF500001D06F0F0ED01720EE84
:1071E00002F05D50D9265E50DA22DF50D16FD139DE
:1071F0000F0B0A0DF350D025D26F20EE01F05D5039
:10720000D9265E50DA22DF50D06F0F0ED01720EE55
:1072100001F05D50D9265E50DA22DF50D16FD139AE
:107220000F0B0A0DF350D025D36F5DC0D9FF5EC0A0
:10723000DAFFDF50D06F0F0ED0175DC0D9FF5EC0F0
:10724000DAFFDF50D16FD1390F0B0A0DF350D02583
:10725000D46F5BC043F05CC044F0B40E456E7F0E4B
:10726000466ED2C047F0486AD3C049F04A6AD4C0DB
:107270004BF04C6A1CEC36F0120020EE04F05D502E
:10728000D9265E50DA22DF500001D06F0F0ED017E2
:1072900020EE04F05D50D9265E50DA22DF50D16F27
:1072A000D1390F0B0A0DF350D025D26F20EE05F027
:1072B0005D50D9265E50DA22DF50D06F0F0ED01706
:1072C00020EE05F05D50D9265E50DA22DF50D16FF6
:1072D000D1390F0B0A0DF350D025D36F20EE06F0F5
:1072E0005D50D9265E50DA22DF50D06F0F0ED017D6
:1072F00020EE06F05D50D9265E50DA22DF50D16FC5
:10730000D1390F0B0A0DF350D025D00FD46F5BC0CD
:1073100043F05CC044F0C30E456E7F0E466ED2C093
:1073200047F0486AD3C049F04A6AD4C04BF04C6A6F
:107330001CEC36F01200000E066E04BEA4EF39F00D
:10734000A2EF39F0AAEF39F0036C041ED8B0042A7A
:10735000010E066E02BEB1EF39F0AFEF39F0B7EFB4
:1073600039F0016C021ED8B0022A010E061A000E76
:10737000086E000E076E03500410D8B4C2EF39F047
:10738000C4EF39F0ECEF39F0010E056ECCEF39F0B7
:10739000D89003360436052A04AED1EF39F0D3EF86
:1073A00039F0C8EF39F0D890073608360350015C41
:1073B00004500258D8A0DFEF39F0E1EF39F0E6EFE2
:1073C00039F00350015E0450025A0780D89004320D
:1073D0000332052ED3EF39F00650D8B4F2EF39F06E
:1073E000F4EF39F0F8EF39F0076C081ED8B0082A2E
:1073F00007C001F008C002F01200000E0F6E000E70
:107400000E6E07C0D9FF08C0DAFFDECFF6FFDDCF72
:10741000F7FF0800F5502A0AD8A411EF3AF013EF4D
:107420003AF047EF3AF007C0D9FF08C0DAFFDE2A8A
:10743000000EDD2209C0D9FF0AC0DAFFDFCF0BF052
:10744000020EDE26DFCF0CF0000EDD220BC0D9FFCE
:107450000CC0DAFFDECF0EF0DDCF0FF05BEF3AF0BD
:107460000EC001F00FC002F0000E046E0A0E036E93
:10747000ACEC34F00D5001240E6E000E02200F6EA5
:1074800007C0D9FF08C0DAFFDE2A000EDD2207C0E0
:10749000D9FF08C0DAFFDECFF6FFDDCFF7FF080027
:1074A000F550D00F0D6E090E0D6459EF3AF05BEFF9
:1074B0003AF030EF3AF00EC007F00FC008F01200BB
:1074C00003500410D8B467EF3AF069EF3AF072EF66
:1074D0003AF003500410D8A470EF3AF072EF3AF08B
:1074E00077EF3AF0015040EC34F0C4EF3AF020EE80
:1074F0000AF00350D9260450DA22DE50DE10D8B448
:1075000084EF3AF086EF3AF0A1EF3AF020EE0AF07D
:107510000350D9260450DA2210EE03F00350E1267E
:107520000450E222DE50E65CE650800A096EDE502E
:10753000800A0958D8B09FEF3AF0A1EF3AF0C4EFB3
:107540003AF020EE03F00350D9260450DA22DECFC1
:1075500005F0DDCF06F003C0D9FF04C0DAFFDECFAF
:1075600007F0DDCF08F005500724D96E065008203B
:10757000DA6E01C0DFFF20EE03F00350D92604507D
:10758000DA22DE2A000EDD22120001C008F002C05D
:1075900009F003C00AF004C00BF00506D8A00606E7
:1075A000052806E10628D8A4D8EF3AF0DAEF3AF039
:1075B000E7EF3AF0000E026E000E016E33EF3BF083
:1075C000084A092A0A4A0B2A0506D8A0060608C056
:1075D000F6FF09C0F7FF0800F5500009D8B4F3EF33
:1075E0003AF0F5EF3AF021EF3BF00AC0F6FF0BC09E
:1075F000F7FF0800F5500009D8B401EF3BF003EFA6
:107600003BF021EF3BF005500610D8B40AEF3BF0F9
:107610000CEF3BF021EF3BF008C0F6FF09C0F7FF8D
:107620000800F5CF07F00AC0F6FF0BC0F7FF08000F
:10763000F5500718D8B41FEF3BF021EF3BF0E0EF17
:107640003AF008C0F6FF09C0F7FF0800F5CF07F0D1
:107650000AC0F6FF0BC0F7FF0800F550075C016E8B
:10766000026AD8A00206120020EEC6F010EE0FF05B
:10767000060EDBCFE3FFE806FCE20CC01AF00DC0FB
:107680001BF01A501B10D8A448EF3BF04AEF3BF018
:107690004EEF3BF00F0E1A6E000E1B6E1AC001F07B
:1076A0001BC002F01DEC35F001C01EF002C01FF03F
:1076B00062C01CF063C01DF01DBE61EF3BF063EFC4
:1076C0003BF078EF3BF01E501C5C1D50800A0E6EA4
:1076D0001F50800A0E58D8A070EF3BF072EF3BF0BD
:1076E00074EF3BF078EF3BF01CC01EF01DC01FF0A4
:1076F0001EC01CF01FC01DF060C018F061C019F062
:107700005FB085EF3BF087EF3BF0A4EF3BF095EFE8
:107710003BF0000E026E200E016E0AC003F00BC09B
:1077200004F060EC3AF01E4A1F2A18501E5C1F50ED
:10773000800A0E6E1950800A0E58D8A0A2EF3BF0B6
:10774000A4EF3BF089EF3BF0000E176E000E166EB3
:10775000BDEF3BF01AC0D9FF1BC0DAFFDF500E6E41
:107760000E50016E026A0AC003F00BC004F060EC18
:107770003AF01A4A1B2A164A172A1C50165C175050
:10778000800A0E6E1D50800A0E58D8A0CAEF3BF03A
:10779000CCEF3BF0AAEF3BF05FA0D1EF3BF0D3EF93
:1077A0003BF0F0EF3BF0E1EF3BF0000E026E200EFD
:1077B000016E0AC003F00BC004F060EC3AF01E4A00
:1077C0001F2A18501E5C1F50800A0E6E1950800A26
:1077D0000E58D8A0EEEF3BF0F0EF3BF0D5EF3BF0CA
:1077E00012001FBEF6EF3BF0F9EF3BF0010EFAEF8F
:1077F0003BF0000E286E2850D8B401EF3CF003EFA8
:107800003CF007EF3CF01E6C1F1ED8B01F2A000191
:1078100063BF0DEF3CF00FEF3CF010EF3CF05F92D8
:1078200063BF17EF3CF015EF3CF01DEF3CF0000E8E
:10783000236E010E226E21EF3CF062C022F063C085
:1078400023F060C024F061C025F02850D8B42BEF9D
:107850003CF02DEF3CF044EF3CF02406D8A0250688
:107860002850D8A436EF3CF038EF3CF03EEF3CF027
:10787000000E216E2B0E206E42EF3CF0000E216EAA
:107880002D0E206E20C028F0000E276E1F0E266ED3
:10789000000E956F7CEF3CF02606D8A02706760EEA
:1078A0002624D96E000E2720DA6E1EC001F01FC0FC
:1078B00002F0000E046E0A0E036E8CEC38F001C06C
:1078C00007F002C008F071EC35F00750300FDF6EA2
:1078D0002206D8A023062406D8A025061EC001F043
:1078E0001FC002F0000E046E0A0E036E9BEC39F00E
:1078F00001C01EF002C01FF027BE87EF3CF02750EA
:1079000008E12604D8A087EF3CF089EF3CF0B3EF04
:107910003CF01E501F10D8A490EF3CF092EF3CF0CA
:107920004CEF3CF023BE9FEF3CF0235006E12204D5
:10793000D8B09DEF3CF09FEF3CF04CEF3CF025BE03
:10794000AAEF3CF0255008E12404D8A0AAEF3CF0AF
:10795000ACEF3CF0B3EF3CF05FB2B1EF3CF0B3EF13
:107960003CF04CEF3CF02850D8B4B9EF3CF0BBEF02
:107970003CF0C6EF3CF02606D8A02706760E26245B
:10798000D96E000E2720DA6E28C0DFFF1CC011F070
:107990001DC012F0760E2624136E000E2720146EE2
:1079A00024C015F025C016F037EC38F0120066EC54
:1079B00034F0070E0B6EEC0E0C6E7F0E0D6E010E8A
:1079C00054EC37F0000E0B6E3B0E0C6E7F0E0D6EFE
:1079D000020E54EC37F0020E0B6E730E0C6E7F0E1F
:1079E0000D6E030E54EC37F0030E0B6EA50E0C6EED
:1079F0007F0E0D6E040E54EC37F00B0E026EB80EB7
:107A0000016EF7EC35F066EC34F0020E0B6E4F0EA3
:107A10000C6E7F0E0D6E010E54EC37F0040E0B6EE3
:107A2000D20E0C6E7F0E0D6E020E54EC37F0010E6E
:107A30000B6E610E0C6E7F0E0D6E030E54EC37F064
:107A4000030E0B6E950E0C6E7F0E0D6E040E54EC35
:107A500037F00B0E026EB80E016EF7EC35F066ECE7
:107A600034F0020E0B6E850E0C6E7F0E0D6E010E45
:107A700054EC37F0BF0E036E000E046EE3EC37F0EB
:107A8000B60E5B6E000E5C6EBF0E5D6E000E5E6E1F
:107A9000E4EC38F0AB0E5B6E000E5C6EBF0E5D6EFC
:107AA000000E5E6E3DEC39F0000E0B6EB60E0C6EE5
:107AB000000E0D6E020E54EC37F0000E0B6EAB0E86
:107AC0000C6E000E0D6E030E54EC37F0960E436EE6
:107AD000000E446EDF0E456E7F0E466E6EC047F0A0
:107AE0006FC048F01CEC36F0000E0B6E960E0C6E5C
:107AF000000E0D6E040E54EC37F00B0E026EB80E35
:107B0000016EF7EC35F066EC34F0030E0B6E950E5B
:107B10000C6E7F0E0D6E010E54EC37F0960E436E18
:107B2000000E446EF30E456E7F0E466EB60E476E27
:107B3000000E486EAB0E496E000E4A6E1CEC36F01D
:107B4000000E0B6E960E0C6E000E0D6E020E54ECB7
:107B500037F09B0E0001D56F7E0ED66F000E0B6EB8
:107B6000D5C00CF0D6C00DF0030E54EC37F0960ED5
:107B7000436E000E446EDF0E456E7F0E466E6EC085
:107B800047F06FC048F01CEC36F0000E0B6E960EFE
:107B90000C6E000E0D6E040E54EC37F00B0E026EE0
:107BA000B80E016EF7EC35F012002BC0D9FF2CC0D7
:107BB000DAFFDECFF6FFDDCFF7FF0800F550250A2C
:107BC000D8A4E5EF3DF0E7EF3DF038EF3FF02BC0F4
:107BD000D9FF2CC0DAFFDE2A000EDD22000E0001E4
:107BE000616F000E606F60C05FF062696369000ED4
:107BF000366E000E356E27EF3EF05F822BC0D9FF48
:107C00002CC0DAFFDE2A000EDD2227EF3EF0000E48
:107C1000366E010E356E27EF3EF02BC0D9FF2CC01B
:107C2000DAFFDECFF6FFDDCFF7FF0800F5502F6E4D
:107C3000306A3050000AD8B420EF3EF007EF3EF033
:107C40002F50300AD8B4FDEF3DF007EF3EF035502D
:107C50003610D8B42EEF3EF030EF3EF00DEF3EF090
:107C60002BC007F02CC008F02DC009F02EC00AF080
:107C7000FDEC39F007C060F008C061F0000161BFA1
:107C800046EF3EF044EF3EF04BEF3EF05F80606D1C
:107C9000611FD8B0612B2BC0D9FF2CC0DAFFDECF1B
:107CA00039F0DDCF3AF039C0F6FF3AC0F7FF0800EF
:107CB000F550640AD8B45FEF3EF061EF3EF06FEF2D
:107CC0003EF039C0F6FF3AC0F7FF0800F550690AE8
:107CD000D8A46DEF3EF06FEF3EF09DEF3EF02DC06B
:107CE000D9FF2EC0DAFFDFCF2FF0020EDE26DFCF66
:107CF00030F0000EDD222FC0D9FF30C0DAFFDECF1A
:107D000031F0DDCF32F0010E39242F6E000E3A2013
:107D1000306E2BC0D9FF2CC0DAFF2FC0DEFF30C081
:107D2000DDFF29C01CF02AC01DF031C01EF032C09A
:107D30001FF0F1EC3BF04CEF3FF02BC0D9FF2CC013
:107D4000DAFFDECFF6FFDDCFF7FF0800F550730A4C
:107D5000D8B4ADEF3EF0AFEF3EF0CAEF3EF02BC02F
:107D6000D9FF2CC0DAFFDECF01F0DDCF02F0FA0E32
:107D7000036E7F0E046E000E066E030E056EC5ECDC
:107D80003AF001500210D8A4C8EF3EF0CAEF3EF01E
:107D90000AEF3FF02BC0D9FF2CC0DAFFDECFF6FF91
:107DA000DDCFF7FF0800F550730AD8B4DAEF3EF0E4
:107DB000DCEF3EF0E2EF3EF0000E386E030E376E61
:107DC000E6EF3EF0000E386E010E376E2BC0D9FF85
:107DD0002CC0DAFF3750DE263850DD2229C00AF0E9
:107DE0002AC00BF02DC0D9FF2EC0DAFFDFCF2FF055
:107DF000020EDE26DFCF30F0000EDD222FC0D9FFCD
:107E000030C0DAFFDECF0CF0DDCF0DF034EC3BF00C
:107E10004CEF3FF02BC0D9FF2CC0DAFFDECFF6FFCE
:107E2000DDCFF7FF0800F550250AD8A41AEF3FF080
:107E30001CEF3FF02FEF3FF02BC0D9FF2CC0DAFF33
:107E4000DE2A000EDD22000E026E250E016E29C014
:107E500003F02AC004F060EC3AF04CEF3FF02BC086
:107E6000D9FF2CC0DAFFDE2A000EDD224CEF3FF0F6
:107E70002BC0D9FF2CC0DAFFDECFF6FFDDCFF7FF36
:107E80000800F550016E026A29C003F02AC004F010
:107E900060EC3AF02FEF3FF01200004D6F646F3A44
:107EA000204D616E75616C20202020202020004D27
:107EB000616E75616C202D20563A256420202020AB
:107EC000202000433A2530346420503A253364257D
:107ED0002520202020200046696C74726F20646584
:107EE000204D616E676120202020004D6F646F3A45
:107EF000204175746F6D617469636F2020200046A6
:107F0000414C48412120507265737320416C74616B
:107F10002020004175746F202D20416775617264C7
:107F2000616E646F2020004175746F202D204369BD
:107F3000636C6F20417469766F2000456E67656ED3
:107F4000686172696120456C65747269636100578C
:107F5000656C696E67746F6E20436F7272656961DC
:107F6000005365712E456C6574722E4C696D706599
:107F70007A610050726F6A65746F20496E7465672C
:107F80007261646F0053656A612042656D205669B5
:107F90006E646F210046696C74726F206465204DB9
:107FA000616E676100456D20456C6574726963613F
:107FB00020494900253032643A253032643A253070
:107FC000326400253032642F253032642F2530345E
:107FD00064005241203A203130363336373700437F
:107FE00069636C6F733A202530346400554E4955EF
:0F7FF000424500257320202573006C6C73000040
:020000040030CA
:0E0000000009191EFF0181FF0FC00FE00F4025
:00000001FF
