:040000002CEF09F0E8
:100800000043616C2025782D0054696D3A25783AB3
:1008100000257820005765640054756500467269AC
:10082000004D6F6E0053756E00536174005468750F
:1008300000414D00504D0000060E0001A36F050E53
:10084000A46F20EED3F010EE60F0060EDBCFE3FFD6
:10085000E806FCE2720ED36EC0EC09F069EC09F018
:10086000EBEC09F0000E026E0A0E016EC2EC08F00D
:10087000000EE7EC08F0CDEC09F0A3C056F0010E35
:10088000576E000E586E562A49EF04F0D89057362E
:100890005836562E46EF04F00001AD515716AE51B2
:1008A000581657505810D8B458EF04F05AEF04F0C7
:1008B000D1EF04F0A4C056F0010E576E000E586E32
:1008C000562A66EF04F0D89057365836562E63EF06
:1008D00004F00001AD515716AE515816575058103C
:1008E000D8B475EF04F077EF04F082EF04F00E0E49
:1008F0000B6E340E0C6E080E0D6E010E49EC07F0F7
:100900008BEF04F00E0E0B6E310E0C6E080E0D6E9A
:10091000010E49EC07F01F0E0001AD15AD6FAE6B77
:10092000850E426E000E436E110E446E080E456E2B
:10093000B1C046F0B2C047F050EC08F08F0E426EE6
:10094000000E436E0D0E446E080E456EAFC046F0AD
:10095000B0C047F050EC08F0990E426E000E436EA6
:10096000090E446E080E456EADC046F0AEC047F0AD
:1009700050EC08F0000E0B6E990E0C6E000E0D6E12
:10098000000E49EC07F08F0E096E000E0A6ECDECDA
:1009900007F0850E096E000E0A6ECDEC07F00AEF27
:1009A00005F03F0EAD15AD6FAE6B850E426E000EBD
:1009B000436E110E446E080E456EB1C046F0B2C0D3
:1009C00047F050EC08F08F0E426E000E436E0D0E95
:1009D000446E080E456EAFC046F0B0C047F050EC14
:1009E00008F0990E426E000E436E090E446E080E1A
:1009F000456EADC046F0AEC047F050EC08F0000EBA
:100A00000B6E990E0C6E000E0D6E000E49EC07F089
:100A1000C3EF04F0030EFCEC07F0CDEC09F0670E19
:100A2000426E000E436E010E446E080E456EA9C064
:100A300046F0AAC047F050EC08F0710E426E000E6E
:100A4000436E050E446E080E456EA7C046F0A8C062
:100A500047F050EC08F07B0E426E000E436E110E14
:100A6000446E080E456EA5C046F0A6C047F050EC97
:100A700008F0000E0B6E670E0C6E000E0D6E020E6F
:100A800049EC07F0710E096E000E0A6ECDEC07F00E
:100A90007B0E096E000E0A6ECDEC07F088EF05F0B4
:100AA000250E096E080E0A6ECDEC07F038EF04F043
:100AB000210E096E080E0A6ECDEC07F038EF04F037
:100AC000190E096E080E0A6ECDEC07F038EF04F02F
:100AD000150E096E080E0A6ECDEC07F038EF04F023
:100AE0002D0E096E080E0A6ECDEC07F038EF04F0FB
:100AF0001D0E096E080E0A6ECDEC07F038EF04F0FB
:100B0000290E096E080E0A6ECDEC07F038EF04F0DE
:100B1000600E0001AB25D96E000EAC21DA6EDF50FD
:100B2000566E576A5750000AD8B499EF05F038EF5F
:100B300004F05650460AD8B478EF05F00B0AD8B442
:100B400058EF05F01E0AD8B450EF05F0070AD8B4E4
:100B500060EF05F0030AD8B468EF05F0240AD8B4B2
:100B600080EF05F0070AD8B470EF05F038EF04F015
:100B700000EF00F02EC0D9FF2FC0DAFFDECFF6FF66
:100B8000DDCFF7FF0800F550250AD8A4CAEF05F01D
:100B9000CCEF05F040EF06F02EC0D9FF2FC0DAFFF2
:100BA000DE2A000EDD22000E5A6E000E596E59C06C
:100BB0005DF05B685C682EC0D9FF2FC0DAFFDECF26
:100BC00038F0DDCF39F038C0F6FF39C0F7FF080044
:100BD000F550780AD8A4EFEF05F0F1EF05F037EF04
:100BE00006F030C0D9FF31C0DAFFDFCF32F0020E9D
:100BF000DE26DFCF33F0000EDD2232C0D9FF33C056
:100C0000DAFFDECF34F0DDCF35F0010E3824326E5E
:100C1000000E3920336E2EC0D9FF2FC0DAFF32C04C
:100C2000DEFF33C0DDFF21EF06F02CC01CF02DC02D
:100C30001DF034C01EF035C01FF055EC06F054EF27
:100C400006F038C0F6FF39C0F7FF0800F550326EE5
:100C5000336A3350000AD8B430EF06F037EF06F0AD
:100C60003250780AD8B415EF06F037EF06F02EC0F0
:100C7000D9FF2FC0DAFFDE2A000EDD2254EF06F086
:100C80002EC0D9FF2FC0DAFFDECFF6FFDDCFF7FF92
:100C90000800F550016E026A2CC003F02DC004F06C
:100CA000E4EC06F037EF06F012005CBE5CEF06F0F5
:100CB0005AEF06F062EF06F0000E286E010E276E66
:100CC00066EF06F05BC027F05CC028F059C023F047
:100CD0005AC024F0000E2A6E1F0E296E000E00016D
:100CE000D26FAFEF06F02906D8A02A061E500F0BD0
:100CF0002B6E090E2B647FEF06F081EF06F089EF73
:100D000006F0570E2B24256E266A000E26228FEF42
:100D100006F0300E2B24256E266A000E262225C0F2
:100D20002BF0B30E2924D96E000E2A20DA6E2BC0C8
:100D3000DFFF2706D8A028062306D8A024061EC059
:100D400020F01FC021F0040E226ED89021322032F4
:100D5000222EA5EF06F020C01EF021C01FF02ABEF3
:100D6000BBEF06F02A5009E1020E295CD8A0BBEFC8
:100D700006F0BDEF06F0D3EF06F01E501F10D8A40A
:100D8000C4EF06F0C6EF06F073EF06F028BED3EF0F
:100D900006F0285006E12704D8B0D1EF06F0D3EFD3
:100DA00006F073EF06F01CC011F01DC012F0B30E78
:100DB0002924136E000E2A20146E23C015F024C0BF
:100DC00016F090EC07F0120003500410D8B4EBEFCB
:100DD00006F0EDEF06F0F6EF06F003500410D8A48D
:100DE000F4EF06F0F6EF06F0FBEF06F0015002EC30
:100DF0000AF048EF07F020EE0AF00350D92604501D
:100E0000DA22DE50DE10D8B408EF07F00AEF07F060
:100E100025EF07F020EE0AF00350D9260450DA221D
:100E200010EE03F00350E1260450E222DE50E65CAF
:100E3000E650800A096EDE50800A0958D8B023EFC8
:100E400007F025EF07F048EF07F020EE03F003501E
:100E5000D9260450DA22DECF05F0DDCF06F003C03C
:100E6000D9FF04C0DAFFDECF07F0DDCF08F0055070
:100E70000724D96E06500820DA6E01C0DFFF20EE8D
:100E800003F00350D9260450DA22DE2A000EDD22B8
:100E900012000E6E0E04D8A450EF07F052EF07F0C8
:100EA00059EF07F00B500F0B80090F6E0F509CECA1
:100EB00008F0020E0E18D8A460EF07F062EF07F0FA
:100EC00069EF07F00B500F0BC0090F6E0F509CEC31
:100ED00008F0030E0E18D8A470EF07F072EF07F0B9
:100EE00079EF07F00B500F0B94090F6E0F509CEC2D
:100EF00008F0040E0E18D8A480EF07F082EF07F078
:100F000089EF07F00B500F0BD4090F6E0F509CECBC
:100F100008F00CC009F00DC00AF0CDEC07F012008B
:100F200016BE95EF07F097EF07F09DEF07F015C09D
:100F30001AF016C01BF0A1EF07F0000E1B6E000E9A
:100F40001A6E000E196E000E186EB3EF07F0000E49
:100F5000026E200E016E11C003F012C004F0E4EC2A
:100F600006F0184A192A1A50185C1950800A176E90
:100F70001B50800A1758D8A0C0EF07F0C2EF07F047
:100F8000A7EF07F013C00AF014C00BF011C00CF06B
:100F900012C00DF00AEC09F01200E3EF07F009C0EF
:100FA000F6FF0AC0F7FFF86A070EF76403D00800DF
:100FB000F55005D0F6CFE1FFF7CFE2FFE75076EC32
:100FC00008F0094A0A2A09C0F6FF0AC0F7FFF86AC2
:100FD000070EF76403D00800F55005D0F6CFE1FF07
:100FE000F7CFE2FFE7500009D8A4F9EF07F0FBEFD5
:100FF00007F0CFEF07F01200046ED00E81EC09F07D
:101000000450AFEC09F0D10E98EC09F0000E4CEC56
:1010100009F0036E03500001AB6FAC6B000E4CEC9B
:1010200009F0036E03500001A96FAA6B000E4CEC8F
:1010300009F0036E03500001A76FA86B010E4CEC82
:1010400009F0036E03500001A56FA66BCDEC09F00B
:1010500012003CC040F03DC041F03DEF08F03AC006
:101060002CF03BC02DF0400E2E6E000E2F6E3EC0B9
:1010700030F03FC031F0BAEC05F040C0F6FF41C09F
:10108000F7FF0800F5500009D8A449EF08F04BEF2E
:1010900008F02FEF08F0000E3B6E000E3A6E1200C3
:1010A000460E486E000E496E42C04AF043C04BF0F7
:1010B000000E4E6E000E4D6E000E556E000E546EFC
:1010C0004A0E3A6E000E3B6E44C03CF045C03DF007
:1010D000480E3E6E000E3F6E29EC08F04D50422443
:1010E000D96E4E504320DA6EDF6A1200086E08C0D7
:1010F00007F0F00E07168A500F0B07108A6E8A84CD
:101100008A8600F08A96000E026E010E016EC2EC15
:1011100008F008C007F0073AF00E07168A500F0BC8
:1011200007108A6E8A8600F08A96000E026E030E01
:10113000016EC2EC08F01200086E08C007F0F00E55
:1011400007168A500F0B07108A6E8A948A8600F061
:101150008A96000E026E010E016EC2EC08F008C005
:1011600007F0073AF00E07168A500F0B07108A6E29
:101170008A8600F08A96000E026E030E016EC2ECA3
:1011800008F01200000E046E000E036EDBEF08F094
:10119000000E066E000E056E054A062A065009E18D
:1011A000A50E055CD8A0D7EF08F0D9EF08F0CCEF7A
:1011B00008F0034A042A0150035C02500458D8A0E6
:1011C000E4EF08F0E6EF08F0C8EF08F01200046E54
:1011D000D00E81EC09F00450AFEC09F0D10E98EC80
:1011E00009F0000E4CEC09F0036E03500001B16FE2
:1011F000B26B000E4CEC09F0036E03500001AF6FB0
:10120000B06B010E4CEC09F0036E03500001AD6FA2
:10121000AE6B1200000E106E000E0F6E1BEF09F089
:101220000EC001F0026A0CC003F00DC004F0E4EC43
:1012300006F00F4A102A0F500A24D96E10500B20C6
:10124000DA6EDF500E6E0E50D8A429EF09F02BEFA6
:1012500009F010EF09F01200FC0EF66E130EF76E97
:10126000000EF86E00EED3F010EE07F00900F5CF97
:10127000EEFFE550E150FAE100EEA5F02E0EEE6A29
:10128000E806FDE15D6A5C6A5B6A5A6A596A000EAB
:10129000F86E00011CEF04F0016EC586C7A053EF85
:1012A00009F055EF09F04EEF09F0C9CF02F00150F7
:1012B000D8A45DEF09F05FEF09F063EF09F0E1EC0E
:1012C00009F065EF09F0D7EC09F0F5EC09F00250F0
:1012D0001200000E936E000E026E0F0E016EC2EC35
:1012E00008F0020E9CEC08F0280E9CEC08F0010EB1
:1012F0009CEC08F00C0E9CEC08F0060E9CEC08F040
:101300001200026EC580C5B088EF09F08AEF09F0BF
:1013100083EF09F09E96C7B690EF09F092EF09F0BF
:1013200094EF09F097EF09F00250AFEC09F01200CA
:10133000026EC582C5B29FEF09F0A1EF09F09AEFE6
:1013400009F09E96C7B6A7EF09F0A9EF09F0ABEF39
:1013500009F0AEEF09F00250AFEC09F01200016E97
:1013600001C0C9FFF5EC09F0C5ACB9EF09F0BBEF5E
:1013700009F0BEEF09F0010EBFEF09F0020E1200F6
:1013800093809382500EC76E280EC66E000EC56EF7
:10139000130EC86E9D869E961200C584C5B4D3EF09
:1013A00009F0D5EF09F0CEEF09F0C7501200C58A59
:1013B000C588C5B8DEEF09F0E0EF09F0D9EF09F014
:1013C0001200C59AC588C5B8E8EF09F0EAEF09F040
:1013D000E3EF09F01200010E9CEC08F0000E026E23
:1013E000030E016EC2EC08F012009EA6FAEF09F09F
:1013F000FCEF09F0F5EF09F09E961200534D54579B
:03140000744673BC
:021404001200D4
:020000040030CA
:0E00000000091F1EFF0181FF0FC00FE00F401F
:00000001FF
