:040000003CEF09F0D8
:1008000000546573746520445331333037004361BD
:100810006C2025782D0054696D3A25783A002578AA
:1008200020005765640054756500467269004D6F7D
:100830006E0053756E005361740054687500414D2D
:0508400000504D000016
:10084600060E0001A36F050EA46F20EED3F010EE86
:1008560060F0060EDBCFE3FFE806FCE2720ED36E15
:10086600D0EC09F079EC09F0FBEC09F0000E026E11
:100876000A0E016ED2EC08F0000E0B6E010E0C6E25
:10088600080E0D6E010E59EC07F0000EF7EC08F09D
:10089600DDEC09F0A3C056F0010E576E000E586E3F
:1008A600562A59EF04F0D89057365836562E56EF3A
:1008B60004F00001AD515716AE5158165750581056
:1008C600D8B468EF04F06AEF04F0E1EF04F0A4C0D6
:1008D60056F0010E576E000E586E562A76EF04F04B
:1008E600D89057365836562E73EF04F00001AD51A6
:1008F6005716AE51581657505810D8B485EF04F015
:1009060087EF04F092EF04F00E0E0B6E410E0C6EA4
:10091600080E0D6E010E59EC07F09BEF04F00E0E5B
:100926000B6E3E0E0C6E080E0D6E010E59EC07F0A6
:100936001F0E0001AD15AD6FAE6B850E426E000E3B
:10094600436E1E0E446E080E456EB1C046F0B2C030
:1009560047F060EC08F08F0E426E000E436E1A0EE2
:10096600446E080E456EAFC046F0B0C047F060EC6E
:1009760008F0990E426E000E436E160E446E080E77
:10098600456EADC046F0AEC047F060EC08F0000E14
:100996000B6E990E0C6E000E0D6E000E59EC07F0E4
:1009A6008F0E096E000E0A6EDDEC07F0850E096EDD
:1009B600000E0A6EDDEC07F01AEF05F03F0EAD15DE
:1009C600AD6FAE6B850E426E000E436E1E0E446E0C
:1009D600080E456EB1C046F0B2C047F060EC08F0B4
:1009E6008F0E426E000E436E1A0E446E080E456E52
:1009F600AFC046F0B0C047F060EC08F0990E426E0A
:100A0600000E436E160E446E080E456EADC046F0DF
:100A1600AEC047F060EC08F0000E0B6E990E0C6E3F
:100A2600000E0D6E000E59EC07F0D3EF04F0030E26
:100A36000CEC08F0DDEC09F0670E426E000E436E1A
:100A46000E0E446E080E456EA9C046F0AAC047F0C9
:100A560060EC08F0710E426E000E436E120E446E8C
:100A6600080E456EA7C046F0A8C047F060EC08F037
:100A76007B0E426E000E436E1E0E446E080E456ED1
:100A8600A5C046F0A6C047F060EC08F0000E0B6E5D
:100A9600670E0C6E000E0D6E020E59EC07F0710E0D
:100AA600096E000E0A6EDDEC07F07B0E096E000E75
:100AB6000A6EDDEC07F098EF05F0320E096E080EAF
:100AC6000A6EDDEC07F048EF04F02E0E096E080EF4
:100AD6000A6EDDEC07F048EF04F0260E096E080EEC
:100AE6000A6EDDEC07F048EF04F0220E096E080EE0
:100AF6000A6EDDEC07F048EF04F03A0E096E080EB8
:100B06000A6EDDEC07F048EF04F02A0E096E080EB7
:100B16000A6EDDEC07F048EF04F0360E096E080E9B
:100B26000A6EDDEC07F048EF04F0600E0001AB251D
:100B3600D96E000EAC21DA6EDF50566E576A5750EA
:100B4600000AD8B4A9EF05F048EF04F05650460A5B
:100B5600D8B488EF05F00B0AD8B468EF05F01E0A82
:100B6600D8B460EF05F0070AD8B470EF05F0030AB1
:100B7600D8B478EF05F0240AD8B490EF05F0070A48
:100B8600D8B480EF05F048EF04F000EF00F02EC077
:100B9600D9FF2FC0DAFFDECFF6FFDDCFF7FF080063
:100BA600F550250AD8A4DAEF05F0DCEF05F050EF92
:100BB60006F02EC0D9FF2FC0DAFFDE2A000EDD2296
:100BC600000E5A6E000E596E59C05DF05B685C6887
:100BD6002EC0D9FF2FC0DAFFDECF38F0DDCF39F0D7
:100BE60038C0F6FF39C0F7FF0800F550780AD8A4D8
:100BF600FFEF05F001EF06F047EF06F030C0D9FF32
:100C060031C0DAFFDFCF32F0020EDE26DFCF33F05F
:100C1600000EDD2232C0D9FF33C0DAFFDECF34F05A
:100C2600DDCF35F0010E3824326E000E3920336EDA
:100C36002EC0D9FF2FC0DAFF32C0DEFF33C0DDFF82
:100C460031EF06F02CC01CF02DC01DF034C01EF094
:100C560035C01FF065EC06F064EF06F038C0F6FF0D
:100C660039C0F7FF0800F550326E336A3350000A78
:100C7600D8B440EF06F047EF06F03250780AD8B401
:100C860025EF06F047EF06F02EC0D9FF2FC0DAFF9A
:100C9600DE2A000EDD2264EF06F02EC0D9FF2FC03B
:100CA600DAFFDECFF6FFDDCFF7FF0800F550016E65
:100CB600026A2CC003F02DC004F0F4EC06F047EFF6
:100CC60006F012005CBE6CEF06F06AEF06F072EFFB
:100CD60006F0000E286E010E276E76EF06F05BC05A
:100CE60027F05CC028F059C023F05AC024F0000E4B
:100CF6002A6E1F0E296E000E0001D26FBFEF06F09E
:100D06002906D8A02A061E500F0B2B6E090E2B643F
:100D16008FEF06F091EF06F099EF06F0570E2B24B1
:100D2600256E266A000E26229FEF06F0300E2B2433
:100D3600256E266A000E262225C02BF0B30E292426
:100D4600D96E000E2A20DA6E2BC0DFFF2706D8A048
:100D560028062306D8A024061EC020F01FC021F0B6
:100D6600040E226ED89021322032222EB5EF06F0E4
:100D760020C01EF021C01FF02ABECBEF06F02A507D
:100D860009E1020E295CD8A0CBEF06F0CDEF06F004
:100D9600E3EF06F01E501F10D8A4D4EF06F0D6EFEE
:100DA60006F083EF06F028BEE3EF06F0285006E1D2
:100DB6002704D8B0E1EF06F0E3EF06F083EF06F084
:100DC6001CC011F01DC012F0B30E2924136E000EC4
:100DD6002A20146E23C015F024C016F0A0EC07F0EC
:100DE600120003500410D8B4FBEF06F0FDEF06F036
:100DF60006EF07F003500410D8A404EF07F006EF3F
:100E060007F00BEF07F0015012EC0AF058EF07F06D
:100E160020EE0AF00350D9260450DA22DE50DE1006
:100E2600D8B418EF07F01AEF07F035EF07F020EE09
:100E36000AF00350D9260450DA2210EE03F00350CC
:100E4600E1260450E222DE50E65CE650800A096E96
:100E5600DE50800A0958D8B033EF07F035EF07F0B7
:100E660058EF07F020EE03F00350D9260450DA229B
:100E7600DECF05F0DDCF06F003C0D9FF04C0DAFFF0
:100E8600DECF07F0DDCF08F005500724D96E0650F7
:100E96000820DA6E01C0DFFF20EE03F00350D926EA
:100EA6000450DA22DE2A000EDD2212000E6E0E0437
:100EB600D8A460EF07F062EF07F069EF07F00B5078
:100EC6000F0B80090F6E0F50ACEC08F0020E0E18D7
:100ED600D8A470EF07F072EF07F079EF07F00B5028
:100EE6000F0BC0090F6E0F50ACEC08F0030E0E1876
:100EF600D8A480EF07F082EF07F089EF07F00B50D8
:100F06000F0B94090F6E0F50ACEC08F0040E0E1880
:100F1600D8A490EF07F092EF07F099EF07F00B5087
:100F26000F0BD4090F6E0F50ACEC08F00CC009F093
:100F36000DC00AF0DDEC07F0120016BEA5EF07F0B3
:100F4600A7EF07F0ADEF07F015C01AF016C01BF0BB
:100F5600B1EF07F0000E1B6E000E1A6E000E196E32
:100F6600000E186EC3EF07F0000E026E200E016E23
:100F760011C003F012C004F0F4EC06F0184A192A66
:100F86001A50185C1950800A176E1B50800A1758A1
:100F9600D8A0D0EF07F0D2EF07F0B7EF07F013C0F5
:100FA6000AF014C00BF011C00CF012C00DF01AECD0
:100FB60009F01200F3EF07F009C0F6FF0AC0F7FFC9
:100FC600F86A070EF76403D00800F55005D0F6CF8F
:100FD600E1FFF7CFE2FFE75086EC08F0094A0A2A5C
:100FE60009C0F6FF0AC0F7FFF86A070EF76403D0D8
:100FF6000800F55005D0F6CFE1FFF7CFE2FFE75046
:101006000009D8A409EF08F00BEF08F0DFEF07F0AE
:101016001200046ED00E91EC09F00450BFEC09F0FA
:10102600D10EA8EC09F0000E5CEC09F0036E03503B
:101036000001AB6FAC6B000E5CEC09F0036E035065
:101046000001A96FAA6B000E5CEC09F0036E035059
:101056000001A76FA86B010E5CEC09F0036E03504C
:101066000001A56FA66BDDEC09F012003CC040F054
:101076003DC041F04DEF08F03AC02CF03BC02DF0DA
:10108600400E2E6E000E2F6E3EC030F03FC031F087
:10109600CAEC05F040C0F6FF41C0F7FF0800F55066
:1010A6000009D8A459EF08F05BEF08F03FEF08F00D
:1010B600000E3B6E000E3A6E1200460E486E000E93
:1010C600496E42C04AF043C04BF0000E4E6E000E11
:1010D6004D6E000E556E000E546E4A0E3A6E000EA0
:1010E6003B6E44C03CF045C03DF0480E3E6E000EDF
:1010F6003F6E39EC08F04D504224D96E4E504320D5
:10110600DA6EDF6A1200086E08C007F0F00E0716E6
:101116008A500F0B07108A6E8A848A8600F08A9698
:10112600000E026E010E016ED2EC08F008C007F048
:10113600073AF00E07168A500F0B07108A6E8A863A
:1011460000F08A96000E026E030E016ED2EC08F0D5
:101156001200086E08C007F0F00E07168A500F0B33
:1011660007108A6E8A948A8600F08A96000E026EAE
:10117600010E016ED2EC08F008C007F0073AF00E37
:1011860007168A500F0B07108A6E8A8600F08A9619
:10119600000E026E030E016ED2EC08F01200000E75
:1011A600046E000E036EEBEF08F0000E066E000EE6
:1011B600056E054A062A065009E1A50E055CD8A06B
:1011C600E7EF08F0E9EF08F0DCEF08F0034A042A3D
:1011D6000150035C02500458D8A0F4EF08F0F6EF73
:1011E60008F0D8EF08F01200046ED00E91EC09F06A
:1011F6000450BFEC09F0D10EA8EC09F0000E5CEC2F
:1012060009F0036E03500001B16FB26B000E5CEC87
:1012160009F0036E03500001AF6FB06B010E5CEC7A
:1012260009F0036E03500001AD6FAE6B1200000EA5
:10123600106E000E0F6E2BEF09F00EC001F0026A61
:101246000CC003F00DC004F0F4EC06F00F4A102AAF
:101256000F500A24D96E10500B20DA6EDF500E6E36
:101266000E50D8A439EF09F03BEF09F020EF09F052
:1012760012001C0EF66E140EF76E000EF86E00EEDF
:10128600D3F010EE07F00900F5CFEEFFE550E15080
:10129600FAE100EEA5F02E0EEE6AE806FDE15D6AC3
:1012A6005C6A5B6A5A6A596A000EF86E000123EF9F
:1012B60004F0016EC586C7A063EF09F065EF09F07B
:1012C6005EEF09F0C9CF02F00150D8A46DEF09F026
:1012D6006FEF09F073EF09F0F1EC09F075EF09F023
:1012E600E7EC09F005EC0AF002501200000E936ECE
:1012F600000E026E0F0E016ED2EC08F0020EACEC80
:1013060008F0280EACEC08F0010EACEC08F00C0E60
:10131600ACEC08F0060EACEC08F01200026EC580CC
:10132600C5B098EF09F09AEF09F093EF09F09E9691
:10133600C7B6A0EF09F0A2EF09F0A4EF09F0A7EFF6
:1013460009F00250BFEC09F01200026EC582C5B268
:10135600AFEF09F0B1EF09F0AAEF09F09E96C7B614
:10136600B7EF09F0B9EF09F0BBEF09F0BEEF09F0EE
:101376000250BFEC09F01200016E01C0C9FF05EC76
:101386000AF0C5ACC9EF09F0CBEF09F0CEEF09F0D2
:10139600010ECFEF09F0020E120093809382500ED9
:1013A600C76E280EC66E000EC56E130EC86E9D86DD
:1013B6009E961200C584C5B4E3EF09F0E5EF09F087
:1013C600DEEF09F0C7501200C58AC588C5B8EEEF32
:1013D60009F0F0EF09F0E9EF09F01200C59AC588A7
:1013E600C5B8F8EF09F0FAEF09F0F3EF09F01200CB
:1013F600010EACEC08F0000E026E030E016ED2EC8C
:1014060008F012009EA60AEF0AF00CEF0AF005EFAC
:0D1416000AF09E961200534D545774467311
:021424001200B4
:020000040030CA
:0E00000000091F1EFF0181FF0FC00FE00F401F
:00000001FF
