:04000000DDEF39F007
:10731F0044535451515353010E3FEC3AF0000E02B7
:10732F006E030E016E1AEC3AF012009380938250A6
:10733F000EC76E280EC66E000EC56E130EC86E9D5C
:10734F00869E961200000E936E000E026E0F0E01B7
:10735F006E1AEC3AF0020E3FEC3AF0280E3FEC3A80
:10736F00F0010E3FEC3AF00C0E3FEC3AF0060E3FF8
:10737F00EC3AF01200CEEF39F009C0F6FF0AC0F771
:10738F00FF0800F55065EC3AF0094A0A2A09C0F6E1
:10739F00FF0AC0F7FF0800F5500009D8A4DAEF394B
:1073AF00F0DCEF39F0C4EF39F012001F0EF66E73F8
:1073BF000EF76E000EF86E00EE3CF010EE07F009BF
:1073CF0000F5CFEEFFE550E150FAE100EE1FF01DA2
:1073DF000EEE6AE806FDE1000EF86E0001BFEF3B0E
:1073EF00F0000E0A6E000E096E0EEF3AF08C80015F
:1073FF000E026EF40E016E1AEC3AF08C90010E0232
:10740F006EF40E016E1AEC3AF0094A0A2A07500977
:10741F005C08500A58D8A017EF3AF019EF3AF0FE6F
:10742F00EF39F01200000E046E000E036E33EF3AC8
:10743F00F0000E066E000E056E054A062A0650096C
:10744F00E1A50E055CD8A02FEF3AF031EF3AF0240A
:10745F00EF3AF0034A042A0150035C02500458D853
:10746F00A03CEF3AF03EEF3AF020EF3AF01200086E
:10747F006E08C007F0F00E07168A500F0B07108A20
:10748F006E8A948A8600F08A96000E026E010E01B3
:10749F006E1AEC3AF008C007F0073AF00E07168A9A
:1074AF00500F0B07108A6E8A8600F08A96000E0224
:1074BF006E030E016E1AEC3AF01200086E08C00748
:1074CF00F0F00E07168A500F0B07108A6E8A848A07
:1074DF008600F08A96000E026E010E016E1AEC3ACB
:1074EF00F008C007F0073AF00E07168A500F0B0787
:1074FF00108A6E8A8600F08A96000E026E030E01C5
:10750F006E1AEC3AF0120014C001F015C002F05FD1
:10751F00EC3DF014C001F015C002F05CEC3BF01430
:10752F00C010F015C011F026EC3CF020EE02F01464
:10753F0050D9261550DA22DE2A000EDD2220EE0663
:10754F00F01450D9261550DA22DE2A000EDD222043
:10755F00EE06F01450D9261550DA22010EDB500931
:10756F00E1320EDE5CD8A0BFEF3AF0C1EF3AF0CABD
:10757F00EF3AF020EE06F01450D9261550DA22DE3D
:10758F006ADD6A8C7212000E6E0E04D8A4D2EF3A26
:10759F00F0D4EF3AF0DBEF3AF00B500F0B80090FFE
:1075AF006E0F503FEC3AF0020E0E18D8A4E2EF3AED
:1075BF00F0E4EF3AF0EBEF3AF00B500F0BC0090F7E
:1075CF006E0F503FEC3AF0030E0E18D8A4F2EF3ABC
:1075DF00F0F4EF3AF0FBEF3AF00B500F0B94090F6A
:1075EF006E0F503FEC3AF0040E0E18D8A402EF3B8A
:1075FF00F004EF3BF00BEF3BF00B500F0BD4090FE8
:10760F006E0F503FEC3AF00CC009F00DC00AF0C2FB
:10761F00EC39F0120001C0D9FF02C0DAFF010EDF12
:10762F006E20EE01F00150D9260250DA22010EDF52
:10763F006E20EE02F00150D9260250DA22DE6ADD0A
:10764F006A20EE04F00150D9260250DA22DE6ADDFC
:10765F006A20EE06F00150D9260250DA22DE6ADDEA
:10766F006A20EE08F00150D9260250DA22DE6ADDD8
:10767F006A20EE0AF00150D9260250DA22010EDFFD
:10768F006E20EE0BF00150D9260250DA22010EDFE8
:10769F006E20EE0CF00150D9260250DA22010EDFD7
:1076AF006E8C968C948C9212008DEF3BF08C96BE64
:1076BF00EF3BF08C9620EE02F00150D9260250DA03
:1076CF0022010EDB5009E1640EDE5CD8A072EF3BA5
:1076DF00F074EF3BF0BEEF3BF020EE02F00150D91B
:1076EF00260250DA22DE6ADD6A20EE04F00150D95C
:1076FF00260250DA22DE2A000EDD22BEEF3BF08C8E
:10770F0086BEEF3BF08C84BEEF3BF001C0D9FF0289
:10771F00C0DAFFDF50036E046A0450000AD8B49B2E
:10772F00EF3BF0BEEF3BF00350000AD8B4BEEF3B87
:10773F00F0010AD8B45EEF3BF0030AD8B45EEF3B1A
:10774F00F0010AD8B461EF3BF0070AD8B45EEF3B03
:10775F00F0010AD8B4BEEF3BF0030AD8B487EF3B71
:10776F00F0010AD8B48AEF3BF0BEEF3BF012007283
:10777F000ED36EAAEC39F09DEC39F0000E956E0029
:10778F000E946E000E826E2F0E016E000E026E12A0
:10779F00EC3BF0000E086E020E076EF8EC39F000AD
:1077AF000E116E010E106EBFEC3CF00B0E026EB898
:1077BF000E016E1AEC3AF0000E116E020E106EBF33
:1077CF00EC3CF00B0E026EB80E016E1AEC3AF000A4
:1077DF000E116E030E106EBFEC3CF00B0E026EB866
:1077EF000E016E1AEC3AF0000E116E040E106EBF01
:1077FF00EC3CF0000E086E010E076EF8EC39F00B42
:10780F000E026EB80E016E1AEC3AF020EE3CF0103C
:10781F00EE18F0060EDBCFE3FFE806FCE22F0E14A6
:10782F006E000E156E8BEC3AF0000E026E0A0E0112
:10783F006E1AEC3AF016EF3CF000EF00F01F4A2002
:10784F002A205009E10A0E1F5CD8A031EF3CF0331B
:10785F00EF3CF0BEEF3CF0000E206E000E1F6E915D
:10786F00EF3CF0010E0B6E1D0E0C6E7F0E0D6E02B7
:10787F000ECBEC3AF0BEEF3CF0010E0B6E990E0CF6
:10788F006E7E0E0D6E020ECBEC3AF0BEEF3CF001A9
:10789F000E0B6EC50E0C6E7E0E0D6E020ECBEC3AFD
:1078AF00F0BEEF3CF0010E0B6EF10E0C6E7E0E0D66
:1078BF006E020ECBEC3AF0BEEF3CF0010E0B6EAF4A
:1078CF000E0C6E7E0E0D6E020ECBEC3AF0BEEF3C40
:1078DF00F0010E0B6EDB0E0C6E7E0E0D6E020ECBDC
:1078EF00EC3AF0BEEF3CF0010E0B6E830E0C6E7E89
:1078FF000E0D6E020ECBEC3AF0BEEF3CF0010E0B0C
:10790F006E070E0C6E7F0E0D6E020ECBEC3AF0BEB4
:10791F00EF3CF010C0D9FF11C0DAFFDF50126E1329
:10792F006A1350000AD8B49FEF3CF086EF3CF01278
:10793F0050010AD8B439EF3CF0030AD8B444EF3CF5
:10794F00F0010AD8B44FEF3CF0070AD8B45AEF3C15
:10795F00F0010AD8B465EF3CF0030AD8B470EF3CDD
:10796F00F0010AD8B47BEF3CF086EF3CF0120093A5
:10797F00EC39F040EF3DF0070E0B6EF70E0C6E7FFB
:10798F000E0D6E010ECBEC3AF0000E0B6E330E0C9B
:10799F006E7F0E0D6E020ECBEC3AF0020E0B6E7F69
:1079AF000E0C6E7F0E0D6E030ECBEC3AF0030E0B2A
:1079BF006ED30E0C6E7F0E0D6E040ECBEC3AF05E96
:1079CF00EF3DF0020E0B6E5B0E0C6E7F0E0D6E0117
:1079DF000ECBEC3AF0040E0B6EE20E0C6E7F0E0D1A
:1079EF006E020ECBEC3AF0010E0B6E6D0E0C6E7F2D
:1079FF000E0D6E030ECBEC3AF0030E0B6EC30E0C96
:107A0F006E7F0E0D6E040ECBEC3AF05EEF3DF00282
:107A1F000E0B6EB30E0C6E7F0E0D6E010ECBEC3A8D
:107A2F00F05EEF3DF0010E0B6E470E0C6E7F0E0DEC
:107A3F006E010ECBEC3AF0010E0B6EEF0E0C6E7F5B
:107A4F000E0D6E020ECBEC3AF0010E0B6EA20E0C69
:107A5F006E7F0E0D6E030ECBEC3AF0010E0B6E9196
:107A6F000E0C6E7F0E0D6E040ECBEC3AF05EEF3DFA
:107A7F00F010C012F011C013F01350000AD8B44B1D
:107A8F00EF3DF05EEF3DF01250010AD8B4C3EF3C6A
:107A9F00F0030AD8B4E9EF3CF0010AD8B40FEF3D78
:107AAF00F0070AD8B41AEF3DF05EEF3DF012000078
:107ABF000E82B4010E0A6E000E066E20EE0CF0015F
:107ACF0050D9260250DA22DE04D8A471EF3DF073AC
:107ADF00EF3DF07DEF3DF00A50D8A479EF3DF07BFC
:107AEF00EF3DF07DEF3DF0010E066E20EE0CF00144
:107AFF0050D9260250DA220AC0DFFF000E076E208F
:107B0F00EE0AF00150D9260250DA22DE04D8A493EF
:107B1F00EF3DF095EF3DF09EEF3DF082B09AEF3DD7
:107B2F00F09CEF3DF09EEF3DF0010E076E07C00594
:107B3F00F020EE0AF00150D9260250DA2282B0ABC3
:107B4F00EF3DF0AEEF3DF0010EAFEF3DF0000EDF79
:107B5F006E000E086E20EE0BF00150D9260250DA9F
:107B6F0022DE04D8A4BEEF3DF0C0EF3DF0C9EF3DDB
:107B7F00F082B2C5EF3DF0C7EF3DF0C9EF3DF00128
:107B8F000E086E08C009F020EE0BF00150D9260246
:107B9F0050DA2282B2D6EF3DF0D9EF3DF0010EDA86
:107BAF00EF3DF0000EDF6EECEF3EF020EE02F00145
:107BBF0050D9260250DA222D0EDE5C010EDE58D887
:107BCF00A0ECEF3DF0EEEF3DF019EF3FF020EE01AE
:107BDF00F00150D9260250DA22020EDF6E19EF3F64
:107BEF00F00A50D8A4FEEF3DF000EF3EF00AEF3E52
:107BFF00F020EE01F00150D9260250DA22060EDFF6
:107C0F006E19EF3FF00550D8B410EF3EF012EF3E73
:107C1F00F019EF3FF020EE01F00150D9260250DAB3
:107C2F0022030EDF6E20EE04F00150D9260250DA47
:107C3F0022DE6ADD6A19EF3FF00A50D8A42AEF3E20
:107C4F00F02CEF3EF036EF3EF020EE01F00150D970
:107C5F00260250DA22050EDF6E19EF3FF020EE04F8
:107C6F00F00150D9260250DA22010EDB5009E11E35
:107C7F000EDE5CD8A046EF3EF048EF3EF052EF3EEE
:107C8F00F020EE01F00150D9260250DA22040EDF67
:107C9F006E19EF3FF00950D8B458EF3EF05AEF3E4F
:107CAF00F019EF3FF020EE01F00150D9260250DA23
:107CBF0022050EDF6E19EF3FF00A50D8A46AEF3E8F
:107CCF00F06CEF3EF076EF3EF020EE01F00150D970
:107CDF00260250DA22050EDF6E19EF3FF00950D859
:107CEF00B47CEF3EF07EEF3EF019EF3FF020EE0157
:107CFF00F00150D9260250DA22050EDF6E19EF3F40
:107D0F00F020EE02F00150D9260250DA22010EDBEC
:107D1F005009E1330EDE5CD8A098EF3EF09AEF3EAB
:107D2F00F019EF3FF00A50D8A4A0EF3EF0A2EF3EBB
:107D3F00F0ACEF3EF020EE01F00150D9260250DA00
:107D4F0022060EDF6E19EF3FF020EE01F00150D941
:107D5F00260250DA22020EDF6E19EF3FF00A04D826
:107D6F00A4BCEF3EF0BEEF3EF019EF3FF020EE0166
:107D7F00F00150D9260250DA22020EDF6E19EF3FC2
:107D8F00F020EE02F00150D9260250DA22E90EDE81
:107D9F005C030EDE58D8A0D7EF3EF0D9EF3EF019B6
:107DAF00EF3FF020EE01F00150D9260250DA220207
:107DBF000EDF6E19EF3FF020EE01F00150D92602D1
:107DCF0050DA22DF6A19EF3FF001C0D9FF02C0DAA3
:107DDF00FFDF50036E046A0450000AD8B4FAEF3E76
:107DEF00F0E3EF3EF00350010AD8B4DDEF3DF003AE
:107DFF000AD8B4F8EF3DF0010AD8B424EF3EF007EB
:107E0F000AD8B464EF3EF0010AD8B488EF3EF0030D
:107E1F000AD8B4B6EF3EF0010AD8B4C8EF3EF0E38B
:107E2F00EF3EF020EE01F00150D9260250DA220188
:107E3F00C0E1FF02C0E2FFDE50E618D8B42AEF3FE0
:107E4F00F02CEF3FF040EF3FF020EE01F00150D962
:107E5F00260250DA2201C0E1FF02C0E2FFDFCFE7C6
:107E6F00FF20EE02F00150D9260250DA22DE6ADD41
:107E7F006A1200005374617475733A2046616C681E
:107E8F0061202020202020202000537461747573FE
:107E9F003A2050726F6E746F202020202020200017
:107EAF005374617475733A20506172616E646F2000
:107EBF002020202020005374617475733A20506184
:107ECF007274696E646F20202020200053746174D7
:107EDF0075733A20426C6F71756561646F20202055
:107EEF0020005374617475733A2046756E63696F21
:107EFF006E616E646F2020005374617475733A2045
:107F0F00446573636F6E68656369646F20005374B3
:107F1F00617475733A20496E696369616C697A613E
:107F2F006E646F00456E67656E68617269612045AA
:107F3F006C6574726963610052656C65204573747A
:107F4F00722D547269616E67756C6F0057656C693D
:107F5F006E67746F6E20436F72726569610053654F
:107F6F00712E456C6574722E4C696D70657A610067
:107F7F0050726F6A65746F20496E746567726164C1
:107F8F006F0054656D702E204D6163616C3A232331
:107F9F002C230054656D702E204D6F746F723A2331
:107FAF00232C230053656A612042656D2056696E4C
:107FBF00646F210046696C74726F206465204D6197
:107FCF006E676100456D20456C6574726963612051
:107FDF004949005241203A20313036333637370085
:107FEF005374617475733A00554E495542450000FC
:020000040030CA
:0E0000000009191EFF0181FF0FC00FE00F4025
:00000001FF
