:0400000011EF33F0D9
:0C63DE0012000E0EC16EBE0EC06E12004A
:1063EB00286E756C6C290001010101C582C5B201D3
:1063FB00EF32F003EF32F0FCEF31F01200C580C545
:10640B00B00AEF32F00CEF32F005EF32F01200C5AC
:10641B0084C5B413EF32F015EF32F00EEF32F012F9
:10642B0000010E1BEC34F0000E026E030E016ED059
:10643B00EC33F01200C59AC588C5B827EF32F029A6
:10644B00EF32F022EF32F01200C58AC588C5B831A1
:10645B00EF32F033EF32F02CEF32F01200938293E5
:10646B0080800EC76E280EC66E000EC56E040EC859
:10647B006E1200016E01C0C9FFC7B047EF32F04981
:10648B00EF32F042EF32F0ACEC33F0120034EC327E
:10649B00F004EC32F0D00E3FEC32F0070E3FEC3252
:1064AB00F0000E3FEC32F00DEC32F01200000E0853
:1064BB006E000E076E00016F51096E96EC32F00004
:1064CB000E086E010E076E6EC009F096EC32F012DC
:1064DB000001500302F3CF05F0F4CF06F001500496
:1064EB0002F350062602500302F350062605C001A4
:1064FB00F006C002F01200340E00016A5D030E6B51
:10650B0059D8A08BEF32F08DEF32F092EF32F001D1
:10651B000E736F8C8495EF32F0000E736F8C9412A8
:10652B000004EC32F0A00E3FEC32F008503FEC329E
:10653B00F007503FEC32F009503FEC32F00DEC32EB
:10654B00F0000E026E0A0E016ED0EC33F01200005A
:10655B000E936E000E026E0F0E016ED0EC33F00236
:10656B000E1BEC34F0280E1BEC34F0010E1BEC343C
:10657B00F00C0E1BEC34F0060E1BEC34F012000486
:10658B00EC32F0A00E3FEC32F004503FEC32F00353
:10659B00503FEC32F0FBEC31F0A10E3FEC32F0004F
:1065AB000E2DEC33F0056E0DEC32F00550120000A1
:1065BB000E956E000E946E000E826E000E836E9220
:1065CB008492869288928A928C9280ADEC32F04CB7
:1065DB00EC32F0F0EC31F034EC32F08EEC34F012B3
:1065EB000001C003F002C004F0FEEF32F0014A02DA
:1065FB002A01C0D9FF02C0DAFFDF50D8A408EF335D
:10660B00F00AEF33F0FCEF32F00350015C016E0443
:10661B00500258026E1200EB0EF66E630EF76E0010
:10662B000EF86E00EEC6F010EE0BF00900F5CFEE93
:10663B00FFE550E150FAE100EE60F0660EEE6AE81D
:10664B0006FDE15F6A000EF86E0001C7EF38F0013E
:10665B006EC586C7A034EF33F036EF33F02FEF3330
:10666B00F0C9CF02F0ACEC33F00104D8A440EF3307
:10667B00F042EF33F046EF33F020EC32F048EF33DB
:10668B00F02AEC32F00250120008BE57EF33F0083C
:10669B005006E10704D8B055EF33F057EF33F065F0
:1066AB00EF33F007C009F008C00AF0091E0A1E09F3
:1066BB004A0A2A09C007F00AC008F069EF33F0074D
:1066CB00C007F008C008F012000B6E0B44E846FC44
:1066DB000B0109C26E000E026E010E016ED0EC337F
:1066EB00F0C282C2B27CEF33F07EEF33F077EF3340
:1066FB00F0C350C4CF09F00A6A09C00AF0096A094D
:10670B0010076E0A50086E1200000E106E000E0F6E
:10671B006E9BEF33F00EC001F0026A0CC003F00D5C
:10672B00C004F0F3EC37F00F4A102A0F500A24D9AB
:10673B006E10500B20DA6EDF500E6E0E50D8A4A9DF
:10674B00EF33F0ABEF33F090EF33F01200C5B0B195
:10675B00EF33F0B3EF33F0ACEF33F0C5B2B8EF3348
:10676B00F0BAEF33F0ACEF33F0C5B4BFEF33F0C199
:10677B00EF33F0ACEF33F0C5B6C6EF33F0C8EF3301
:10678B00F0ACEF33F0C7B4CDEF33F0CFEF33F0AC69
:10679B00EF33F01200000E046E000E036EE9EF33C0
:1067AB00F0000E066E000E056E054A062A0650090D
:1067BB00E1A50E055CD8A0E5EF33F0E7EF33F0DA97
:1067CB00EF33F0034A042A0150035C02500458D8FB
:1067DB00A0F2EF33F0F4EF33F0D6EF33F0120047C3
:1067EB000E4D6E000E4E6E43C04FF044C050F00085
:1067FB000E536E000E526E000E5A6E000E596E4FF7
:10680B000E3B6E000E3C6E45C03DF046C03EF04D5B
:10681B000E3F6E000E406E67EC34F052504324D99D
:10682B006E53504420DA6EDF6A1200086E08C00700
:10683B00F0F00E07168A500F0B07108A6E8A948A97
:10684B008600F08A96000E026E010E016ED0EC33BC
:10685B00F008C007F0073AF00E07168A500F0B0727
:10686B00108A6E8A8600F08A96000E026E030E0165
:10687B006ED0EC33F01200086E08C007F0F00E0774
:10688B00168A500F0B07108A6E8A848A8600F08A4C
:10689B0096000E026E010E016ED0EC33F008C007AD
:1068AB00F0073AF00E07168A500F0B07108A6E8A04
:1068BB008600F08A96000E026E030E016ED0EC334A
:1068CB00F012003DC041F03EC042F07BEF34F03B94
:1068DB00C029F03CC02AF0410E2B6E000E2C6E3FEF
:1068EB00C02DF040C02EF0D4EC3DF041C0F6FF427D
:1068FB00C0F7FF0800F5500009D8A487EF34F089E2
:10690B00EF34F06DEF34F0000E3C6E000E3B6E1268
:10691B0000000E046E000E036EC5EC32F0086E0024
:10692B000E046E010E036EC5EC32F0096E095008B1
:10693B00C006F0076A06C007F0066A061000016E73
:10694B006F07506F6F6E2906E16F29D8A4B0EF3433
:10695B00F0B2EF34F0B6EF34F0000E6F6F000E6E46
:10696B006F1200CDEF34F009C0F6FF0AC0F7FFF845
:10697B006A070EF76403D00800F55005D0F6CFE197
:10698B00FFF7CFE2FFE75041EC34F0094A0A2A093E
:10699B00C0F6FF0AC0F7FFF86A070EF76403D008CA
:1069AB0000F55005D0F6CFE1FFF7CFE2FFE750003F
:1069BB0009D8A4E3EF34F0E5EF34F0B9EF34F0127B
:1069CB0000096E13EF35F08C80070E026ED00E01AE
:1069DB006ED0EC33F08C902CEF35F08C80000E02E7
:1069EB006EFA0E016ED0EC33F08C90000E026E64DA
:1069FB000E016ED0EC33F08C80000E026EFA0E019D
:106A0B006ED0EC33F0F0EF34F08C80000E026E643D
:106A1B000E016ED0EC33F0F0EF34F00950076E0836
:106A2B006A0850000AD8B41DEF35F02CEF35F0078B
:106A3B0050010AD8B4E9EF34F0030AD8B4F3EF34B9
:106A4B00F0010AD8B40AEF35F02CEF35F012000E36
:106A5B006E0E04D8A434EF35F036EF35F03DEF353C
:106A6B00F00B500F0B80090F6E0F501BEC34F00224
:106A7B000E0E18D8A444EF35F046EF35F04DEF3538
:106A8B00F00B500F0BC0090F6E0F501BEC34F003C3
:106A9B000E0E18D8A454EF35F056EF35F05DEF35E8
:106AAB00F00B500F0B94090F6E0F501BEC34F004CE
:106ABB000E0E18D8A464EF35F066EF35F06DEF3598
:106ACB00F00B500F0BD4090F6E0F501BEC34F00C66
:106ADB00C009F00DC00AF0B7EC34F0120004EC3230
:106AEB00F0D00E3FEC32F0000E3FEC32F0FBEC310D
:106AFB00F0D10E3FEC32F0010E2DEC33F003C0D988
:106B0B00FF04C0DAFFDF6E20EE01F00350D926043C
:106B1B0050DA22010E2DEC33F0DF6E20EE02F00383
:106B2B0050D9260450DA22010E2DEC33F0DF6E2003
:106B3B00EE03F00350D9260450DA22010E2DEC336C
:106B4B00F0DF6E20EE04F00350D9260450DA220158
:106B5B000E2DEC33F0DF6E20EE05F00350D926043A
:106B6B0050DA22010E2DEC33F0DF6E20EE06F0032F
:106B7B0050D9260450DA22000E2DEC33F0DF6E0DC7
:106B8B00EC32F01200000170A1CEEF35F0D0EF35F2
:106B9B00F0DAEF35F013C00AF014C00BF011C00C93
:106BAB00F012C00DF08AEC33F016BEDFEF35F0E1DA
:106BBB00EF35F0E7EF35F015C01AF016C01BF0EB10
:106BCB00EF35F0000E1B6E000E1A6E000E196E00E4
:106BDB000E186EFDEF35F0000E026E200E016E11D9
:106BEB00C003F012C004F0F3EC37F0184A192A1A5C
:106BFB0050185C1950800A176E1B50800A1758D812
:106C0B00A00AEF36F00CEF36F0F1EF35F000017023
:106C1B00B112EF36F014EF36F01EEF36F013C00A58
:106C2B00F014C00BF011C00CF012C00DF08AEC3355
:106C3B00F01200000E066E02BE28EF36F026EF367D
:106C4B00F02EEF36F0016C021ED8B0022A010E06B0
:106C5B006E04BE35EF36F033EF36F039EF36F00316
:106C6B006C041ED8B0042A03500410D8B440EF367D
:106C7B00F042EF36F066EF36F0010E056E4AEF3656
:106C8B00F0D89003360436052A04AE4FEF36F05198
:106C9B00EF36F046EF36F00350015C04500258D843
:106CAB00A05AEF36F05CEF36F060EF36F003500190
:106CBB005E0450025AD89004320332052E51EF363F
:106CCB00F00650D8B46CEF36F06EEF36F072EF364C
:106CDB00F0016C021ED8B0022A01C001F002C00202
:106CEB00F0120020EE02F05D50D9265E50DA22DF62
:106CFB00500001D16F0F0ED11720EE02F05D50D96D
:106D0B00265E50DA22DF50D26FD2390F0B0A0DF309
:106D1B0050D125D36F20EE01F05D50D9265E50DAAD
:106D2B0022DF50D16F0F0ED11720EE01F05D50D93D
:106D3B00265E50DA22DF50D26FD2390F0B0A0DF3D9
:106D4B0050D125D46F5DC0D9FF5EC0DAFFDF50D1C3
:106D5B006F0F0ED1175DC0D9FF5EC0DAFFDF50D2C7
:106D6B006FD2390F0B0A0DF350D125D56F5BC04392
:106D7B00F05CC044F0B40E456E7F0E466ED3C04738
:106D8B00F0486AD4C049F04A6AD5C04BF04C6AF55A
:106D9B00EC33F0120020EE04F05D50D9265E50DA91
:106DAB0022DF500001D16F0F0ED11720EE04F05DE2
:106DBB0050D9265E50DA22DF50D26FD2390F0B0A30
:106DCB000DF350D125D36F20EE05F05D50D9265E23
:106DDB0050DA22DF50D16F0F0ED11720EE05F05D88
:106DEB0050D9265E50DA22DF50D26FD2390F0B0A00
:106DFB000DF350D125D46F20EE06F05D50D9265EF1
:106E0B0050DA22DF50D16F0F0ED11720EE06F05D56
:106E1B0050D9265E50DA22DF50D26FD2390F0B0ACF
:106E2B000DF350D125D00FD56F5BC043F05CC04440
:106E3B00F0C30E456E7F0E466ED3C047F0486AD442
:106E4B00C049F04A6AD5C04BF04C6AF5EC33F012EE
:106E5B0000000E066E04BE37EF37F035EF37F03D0E
:106E6B00EF37F0036C041ED8B0042A010E066E0235
:106E7B00BE44EF37F042EF37F04AEF37F0016C02C8
:106E8B001ED8B0022A010E061A000E086E000E075D
:106E9B006E03500410D8B455EF37F057EF37F07F2F
:106EAB00EF37F0010E056E5FEF37F0D89003360425
:106EBB0036052A04AE64EF37F066EF37F05BEF3739
:106ECB00F0D890073608360350015C04500258D8AE
:106EDB00A072EF37F074EF37F079EF37F003500112
:106EEB005E0450025A0780D89004320332052E6696
:106EFB00EF37F00650D8B485EF37F087EF37F08BCC
:106F0B00EF37F0076C081ED8B0082A07C001F0084D
:106F1B00C002F01200000E0F6E000E0E6E07C0D9ED
:106F2B00FF08C0DAFFDECFF6FFDDCFF7FF0800F575
:106F3B00502A0AD8A4A4EF37F0A6EF37F0DAEF37D0
:106F4B00F007C0D9FF08C0DAFFDE2A000EDD2209E8
:106F5B00C0D9FF0AC0DAFFDFCF0BF0020EDE26DF4F
:106F6B00CF0CF0000EDD220BC0D9FF0CC0DAFFDE18
:106F7B00CF0EF0DDCF0FF0EEEF37F00EC001F00FBC
:106F8B00C002F0000E046E0A0E036E6EEC32F00DB2
:106F9B005001240E6E000E02200F6E07C0D9FF08A1
:106FAB00C0DAFFDE2A000EDD2207C0D9FF08C0DAE7
:106FBB00FFDECFF6FFDDCFF7FF0800F550D00F0D4A
:106FCB006E090E0D64ECEF37F0EEEF37F0C3EF37D1
:106FDB00F00EC007F00FC008F0120003500410D8D9
:106FEB00B4FAEF37F0FCEF37F005EF38F00350044D
:106FFB0010D8A403EF38F005EF38F00AEF38F001A2
:10700B0050EFEC31F057EF38F020EE0AF00350D987
:10701B00260450DA22DE50DE10D8B417EF38F01900
:10702B00EF38F034EF38F020EE0AF00350D9260495
:10703B0050DA2210EE03F00350E1260450E222DE78
:10704B0050E65CE650800A096EDE50800A0958D87B
:10705B00B032EF38F034EF38F057EF38F020EE0362
:10706B00F00350D9260450DA22DECF05F0DDCF062F
:10707B00F003C0D9FF04C0DAFFDECF07F0DDCF0885
:10708B00F005500724D96E06500820DA6E01C0DFD8
:10709B00FF20EE03F00350D9260450DA22DE2A003B
:1070AB000EDD22120001C008F002C009F003C00A75
:1070BB00F004C00BF00506D8A00606052806E1066D
:1070CB0028D8A46BEF38F06DEF38F07AEF38F0007A
:1070DB000E026E000E016EC6EF38F0084A092A0A3E
:1070EB004A0B2A0506D8A0060608C0F6FF09C0F70A
:1070FB00FF0800F5500009D8B486EF38F088EF3858
:10710B00F0B4EF38F00AC0F6FF0BC0F7FF0800F53C
:10711B00500009D8B494EF38F096EF38F0B4EF384C
:10712B00F005500610D8B49DEF38F09FEF38F0B44F
:10713B00EF38F008C0F6FF09C0F7FF0800F5CF07DE
:10714B00F00AC0F6FF0BC0F7FF0800F5500718D880
:10715B00B4B2EF38F0B4EF38F073EF38F008C0F694
:10716B00FF09C0F7FF0800F5CF07F00AC0F6FF0BC9
:10717B00C0F7FF0800F550075C016E026AD8A00249
:10718B00061200720ED36EDDEC32F0010EE6EC341B
:10719B00F0C7EC3CF0020EE6EC34F0000E6AEC3378
:1071AB00F007C06AF008C06BF081EC32F080BCE1F4
:1071BB00EF38F0E3EF38F016EF39F0000E026E32D5
:1071CB000E016ED0EC33F080BCEEEF38F0F0EF3800
:1071DB00F016EF39F05F04D8A4F6EF38F0F8EF387B
:1071EB00F004EF39F0000E00016F6F000E6E6F5C54
:1071FB00EC32F0020EE6EC34F00FEF39F082688CD3
:10720B008E070E026ED00E016ED0EC33F0000E82A4
:10721B006E8C9E80AC14EF39F016EF39F00FEF390E
:10722B00F080B41BEF39F01DEF39F047EF39F05F09
:10723B0004D8A423EF39F025EF39F047EF39F000EC
:10724B000E026E320E016ED0EC33F080B430EF399B
:10725B00F032EF39F047EF39F05F50D8B438EF39EF
:10726B00F03BEF39F0010E3CEF39F0000E5F6E0092
:10727B000E0001746F000E826E8C9E8C96010EE6D2
:10728B00EC34F0000E80B4010E0001D06F5F50D8CB
:10729B00A452EF39F054EF39F058EF39F03DEC3A96
:1072AB00F05AEF39F00AEC3BF000016851D86F69E6
:1072BB0051D96F684B692BD95109E1320ED85DD882
:1072CB00A06AEF39F06CEF39F071EF39F0000E690D
:1072DB006F000E686F8C72000E026E0A0E016ED07C
:1072EB00EC33F000016C4B6D2BD3EF38F000EF005B
:1072FB00F020EEC6F010EE0FF0060EDBCFE3FFE84A
:10730B0006FCE20CC01AF00DC01BF01A501B10D873
:10731B00A492EF39F094EF39F098EF39F00F0E1A81
:10732B006E000E1B6E1AC001F01BC002F0F6EC32A1
:10733B00F001C01EF002C01FF062C01CF063C01D44
:10734B00F01DBEABEF39F0ADEF39F0C2EF39F01EE7
:10735B00501C5C1D50800A0E6E1F50800A0E58D8B0
:10736B00A0BAEF39F0BCEF39F0BEEF39F0C2EF390C
:10737B00F01CC01EF01DC01FF01EC01CF01FC01D56
:10738B00F060C018F061C019F0000170B1D0EF3996
:10739B00F0D2EF39F0EFEF39F0E0EF39F0000E02F9
:1073AB006E200E016E0AC003F00BC004F0F3EC3735
:1073BB00F01E4A1F2A18501E5C1F50800A0E6E19B1
:1073CB0050800A0E58D8A0EDEF39F0EFEF39F0D41A
:1073DB00EF39F0000E176E000E166E08EF3AF01A2A
:1073EB00C0D9FF1BC0DAFFDF500E6E0E50016E02CC
:1073FB006A0AC003F00BC004F0F3EC37F01A4A1B17
:10740B002A164A172A1C50165C1750800A0E6E1D3E
:10741B0050800A0E58D8A015EF3AF017EF3AF0F556
:10742B00EF39F0000170A11DEF3AF01FEF3AF03C7D
:10743B00EF3AF02DEF3AF0000E026E200E016E0ABD
:10744B00C003F00BC004F0F3EC37F01E4A1F2A18F0
:10745B00501E5C1F50800A0E6E1950800A0E58D8B1
:10746B00A03AEF3AF03CEF3AF021EF3AF0120080FD
:10747B00B642EF3AF044EF3AF066EF3AF00001CF44
:10748B0005D8A44BEF3AF04DEF3AF066EF3AF00027
:10749B000E026E320E016ED0EC33F080B658EF3A1E
:1074AB00F05AEF3AF066EF3AF00001752B070E75C4
:1074BB006562EF3AF064EF3AF066EF3AF0000E7562
:1074CB006F000E80B6010E0001CF6F80B870EF3ADF
:1074DB00F072EF3AF095EF3AF0CE05D8A478EF3A88
:1074EB00F07AEF3AF095EF3AF0000E026E320E01A1
:1074FB006ED0EC33F080B885EF3AF087EF3AF09529
:10750B00EF3AF000017551D8A48EEF3AF090EF3AB4
:10751B00F094EF3AF0070E756F95EF3AF0750700A0
:10752B000E80B8010E0001CE6F80BA9FEF3AF0A12A
:10753B00EF3AF004EF3BF0CD05D8A4A7EF3AF0A952
:10754B00EF3AF004EF3BF0000E026E320E016ED0FC
:10755B00EC33F080BAB4EF3AF0B6EF3AF004EF3B0D
:10756B00F0000E826E8C9ECDEF3AF08B80FBEF3AE3
:10757B00F08B82FBEF3AF08B84FBEF3AF08B8CFBBA
:10758B00EF3AF08B8EFBEF3AF08C8EFBEF3AF0007C
:10759B00017551076E086A0850000AD8B4D8EF3A43
:1075AB00F0FBEF3AF00750000AD8B4BBEF3AF0010A
:1075BB000AD8B4BEEF3AF0030AD8B4C1EF3AF001DF
:1075CB000AD8B4C1EF3AF0070AD8B4C1EF3AF001C8
:1075DB000AD8B4C4EF3AF0030AD8B4C7EF3AF001B3
:1075EB000AD8B4CAEF3AF0FBEF3AF0070E026ED0AE
:1075FB000E016ED0EC33F0000E826E8C9E000E806E
:10760B00BA010E0001CD6F120000017351D8B411F5
:10761B00EF3BF013EF3BF0C6EF3BF0000E746F8CBB
:10762B0096000E826E8C9EDFEF3BF0000E746F8C1B
:10763B009664510A6E65510B6E644B652BB80E0A3E
:10764B005C0B0E0B58D8A02DEF3BF02FEF3BF0DF70
:10765B00EF3BF0010E716F000E656F000E646F0053
:10766B000E726F010E746F8C866E4B6F2B5CEC324F
:10767B00F0DFEF3BF08B807FEF3BF08B827FEF3BBC
:10768B00F08B847FEF3BF08B8C7FEF3BF08B8E7F0F
:10769B00EF3BF08C8E7FEF3BF072510A6E0B6A0B57
:1076AB0050000AD8B45CEF3BF07FEF3BF00A500080
:1076BB000AD8B440EF3BF0010AD8B443EF3BF003D8
:1076CB000AD8B446EF3BF0010AD8B446EF3BF007BB
:1076DB000AD8B446EF3BF0010AD8B449EF3BF003AC
:1076EB000AD8B44CEF3BF0010AD8B44FEF3BF07F14
:1076FB00EF3BF064510A6E65510B6E644B652B0BBF
:10770B005009E1C80E0A5CD8A08EEF3BF090EF3B1E
:10771B00F0DFEF3BF0000E826E8C9E020E716F005D
:10772B000E656F000E646F722B070E7265A0EF3B38
:10773B00F0A2EF3BF0DFEF3BF0000E716F000E6538
:10774B006F000E646F000E746F8C96DFEF3BF0646E
:10775B00510A6E65510B6E644B652BF40E0A5C017E
:10776B000E0B58D8A0BCEF3BF0BEEF3BF0DFEF3B6E
:10777B00F0010E716F000E656F000E646FDFEF3B53
:10778B00F071510A6E0B6A0B50000AD8B4D0EF3B64
:10779B00F0DFEF3BF00A50000AD8B41BEF3BF001CF
:1077AB000AD8B452EF3BF0030AD8B4ADEF3BF0DF8D
:1077BB00EF3BF012001FBEE5EF3BF0E8EF3BF001B3
:1077CB000EE9EF3BF0000E286E2850D8B4F0EF3BDB
:1077DB00F0F2EF3BF0F6EF3BF01E6C1F1ED8B01F24
:1077EB002A000163BFFCEF3BF0FEEF3BF0FFEF3BEA
:1077FB00F0709363BF06EF3CF004EF3CF00CEF3CF2
:10780B00F0000E236E010E226E10EF3CF062C022D0
:10781B00F063C023F060C024F061C025F02850D87D
:10782B00B41AEF3CF01CEF3CF033EF3CF02406D8DD
:10783B00A025062850D8A425EF3CF027EF3CF02DCF
:10784B00EF3CF0000E216E2B0E206E31EF3CF00062
:10785B000E216E2D0E206E20C028F0000E276E1FFD
:10786B000E266E000E956F6BEF3CF02606D8A02708
:10787B0006760E2624D96E000E2720DA6E1EC00166
:10788B00F01FC002F0000E046E0A0E036E1FEC36E2
:10789B00F001C007F002C008F04AEC33F00750309B
:1078AB000FDF6E2206D8A023062406D8A025061EBD
:1078BB00C001F01FC002F0000E046E0A0E036E2E04
:1078CB00EC37F001C01EF002C01FF027BE76EF3C74
:1078DB00F0275008E12604D8A076EF3CF078EF3C77
:1078EB00F0A3EF3CF01E501F10D8A47FEF3CF081AB
:1078FB00EF3CF03BEF3CF023BE8EEF3CF023500609
:10790B00E12204D8B08CEF3CF08EEF3CF03BEF3C27
:10791B00F025BE99EF3CF0255008E12404D8A0993E
:10792B00EF3CF09BEF3CF0A3EF3CF0000170B3A1F8
:10793B00EF3CF0A3EF3CF03BEF3CF02850D8B4A960
:10794B00EF3CF0ABEF3CF0B6EF3CF02606D8A027AF
:10795B0006760E2624D96E000E2720DA6E28C0DF9D
:10796B00FF1CC011F01DC012F0760E2624136E0002
:10797B000E2720146E24C015F025C016F0C8EC3568
:10798B00F0120016EC32F0070E0B6EEC0E0C6E7F45
:10799B000E0D6E010E2DEC35F0000E0B6E3B0E0C2A
:1079AB006E7F0E0D6E020E2DEC35F0020E0B6E730C
:1079BB000E0C6E7F0E0D6E030E2DEC35F0030E0BC1
:1079CB006EA50E0C6E7F0E0D6E040E2DEC35F00BAE
:1079DB000E026EB80E016ED0EC33F016EC32F002E4
:1079EB000E0B6E4F0E0C6E7F0E0D6E010E2DEC35C9
:1079FB00F0040E0B6ED20E0C6E7F0E0D6E020E2D62
:107A0B00EC35F0010E0B6E610E0C6E7F0E0D6E03DE
:107A1B000E2DEC35F0030E0B6E950E0C6E7F0E0DCE
:107A2B006E040E2DEC35F00B0E026EB80E016ED0FF
:107A3B00EC33F016EC32F0020E0B6E850E0C6E7FF3
:107A4B000E0D6E010E2DEC35F0BF0E036E000E0405
:107A5B006E74EC35F0B60E5B6E000E5C6EBF0E5D99
:107A6B006E000E5E6E77EC36F0AB0E5B6E000E5C4E
:107A7B006EBF0E5D6E000E5E6ED0EC36F0000E0B20
:107A8B006EB60E0C6E000E0D6E020E2DEC35F00068
:107A9B000E0B6EAB0E0C6E000E0D6E030E2DEC3539
:107AAB00F0960E436E000E446EDF0E456E7F0E4653
:107ABB006E6EC047F06FC048F0F5EC33F0000E0B64
:107ACB006E960E0C6E000E0D6E040E2DEC35F00B3B
:107ADB000E026EB80E016ED0EC33F016EC32F003E2
:107AEB000E0B6E950E0C6E7F0E0D6E010E2DEC3582
:107AFB00F0960E436E000E446EF30E456E7F0E46EF
:107B0B006EB60E476E000E486EAB0E496E000E4AF7
:107B1B006EF5EC33F0000E0B6E960E0C6E000E0D28
:107B2B006E020E2DEC35F05F50D8A49FEF3DF0A107
:107B3B00EF3DF0A8EF3DF09B0E0001D66F7E0ED708
:107B4B006FADEF3DF0EB0E0001D66F7E0ED76F00E1
:107B5B000E0B6ED6C00CF0D7C00DF0030E2DEC350E
:107B6B00F0960E436E000E446EDF0E456E7F0E4692
:107B7B006E6EC047F06FC048F0F5EC33F0000E0BA3
:107B8B006E960E0C6E000E0D6E040E2DEC35F00B7A
:107B9B000E026EB80E016ED0EC33F012002BC0D972
:107BAB00FF2CC0DAFFDECFF6FFDDCFF7FF0800F5C5
:107BBB0050250AD8A4E4EF3DF0E6EF3DF038EF3F57
:107BCB00F02BC0D9FF2CC0DAFFDE2A000EDD22001D
:107BDB000E0001616F000E606F60C070F062696330
:107BEB0069000E366E000E356E27EF3EF000017009
:107BFB00832BC0D9FF2CC0DAFFDE2A000EDD222733
:107C0B00EF3EF0000E366E010E356E27EF3EF02B79
:107C1B00C0D9FF2CC0DAFFDECFF6FFDDCFF7FF08B0
:107C2B0000F5502F6E306A3050000AD8B420EF3E6A
:107C3B00F007EF3EF02F50300AD8B4FCEF3DF007C1
:107C4B00EF3EF035503610D8B42EEF3EF030EF3E0D
:107C5B00F00DEF3EF02BC007F02CC008F02DC00943
:107C6B00F02EC00AF090EC37F007C060F008C0614E
:107C7B00F0000161BF46EF3EF044EF3EF04BEF3EAC
:107C8B00F07081606D611FD8B0612B2BC0D9FF2CB8
:107C9B00C0DAFFDECF39F0DDCF3AF039C0F6FF3A6C
:107CAB00C0F7FF0800F550640AD8B45FEF3EF061EF
:107CBB00EF3EF06FEF3EF039C0F6FF3AC0F7FF082A
:107CCB0000F550690AD8A46DEF3EF06FEF3EF09DC2
:107CDB00EF3EF02DC0D9FF2EC0DAFFDFCF2FF00221
:107CEB000EDE26DFCF30F0000EDD222FC0D9FF30A5
:107CFB00C0DAFFDECF31F0DDCF32F0010E39242FA9
:107D0B006E000E3A20306E2BC0D9FF2CC0DAFF2F3D
:107D1B00C0DEFF30C0DDFF29C01CF02AC01DF031D2
:107D2B00C01EF032C01FF0E0EC3BF04CEF3FF02BED
:107D3B00C0D9FF2CC0DAFFDECFF6FFDDCFF7FF088F
:107D4B0000F550730AD8B4ADEF3EF0AFEF3EF0CA7A
:107D5B00EF3EF02BC0D9FF2CC0DAFFDECF01F0DDF8
:107D6B00CF02F0FA0E036E7F0E046E000E066E034A
:107D7B000E056E58EC38F001500210D8A4C8EF3E37
:107D8B00F0CAEF3EF00AEF3FF02BC0D9FF2CC0DA60
:107D9B00FFDECFF6FFDDCFF7FF0800F550730AD8F3
:107DAB00B4DAEF3EF0DCEF3EF0E2EF3EF0000E38DF
:107DBB006E030E376EE6EF3EF0000E386E010E3797
:107DCB006E2BC0D9FF2CC0DAFF3750DE263850DDC2
:107DDB002229C00AF02AC00BF02DC0D9FF2EC0DA21
:107DEB00FFDFCF2FF0020EDE26DFCF30F0000EDDEF
:107DFB00222FC0D9FF30C0DAFFDECF0CF0DDCF0D64
:107E0B00F07EEC39F04CEF3FF02BC0D9FF2CC0DAF1
:107E1B00FFDECFF6FFDDCFF7FF0800F550250AD8C0
:107E2B00A41AEF3FF01CEF3FF02FEF3FF02BC0D920
:107E3B00FF2CC0DAFFDE2A000EDD22000E026E25BB
:107E4B000E016E29C003F02AC004F0F3EC37F04C9E
:107E5B00EF3FF02BC0D9FF2CC0DAFFDE2A000EDD7E
:107E6B00224CEF3FF02BC0D9FF2CC0DAFFDECFF650
:107E7B00FFDDCFF7FF0800F550016E026A29C00342
:107E8B00F02AC004F0F3EC37F02FEF3FF0120000B4
:107E9B004D6F646F3A204D616E75616C2020202010
:107EAB00202020004D616E75616C202D20563A25E7
:107EBB006420202020202000433A253034642050B9
:107ECB003A253364252520202020200046696C7438
:107EDB00726F206465204D616E6761202020200049
:107EEB004D6F646F3A204175746F6D617469636F88
:107EFB002020200046414C4841212050726573736D
:107F0B0020416C74612020004175746F202D20413D
:107F1B006775617264616E646F2020004175746FC8
:107F2B00202D204369636C6F20417469766F2000AC
:107F3B00456E67656E686172696120456C65747228
:107F4B006963610057656C696E67746F6E20436F70
:107F5B007272656961005365712E456C6574722E82
:107F6B004C696D70657A610050726F6A65746F2031
:107F7B00496E7465677261646F0053656A61204274
:107F8B00656D2056696E646F210046696C74726F63
:107F9B00206465204D616E676100456D20456C6501
:107FAB00747269636120494900253032643A253087
:107FBB0032643A2530326400253032642F2530325A
:107FCB00642F25303464005241203A20313036334F
:107FDB00363737004369636C6F733A20253034644E
:107FEB0000554E4955424500257320202573006CE2
:047FFB006C730000A3
:020000040030CA
:0E0000000009191EFF0181FF0FC00FE00F4025
:00000001FF
